{"contracts/OrganDonation.sol":{"OrganDonation":{"abi":[{"inputs":[],"stateMutability":"nonpayable","type":"constructor"},{"anonymous":false,"inputs":[{"indexed":true,"internalType":"address","name":"donor","type":"address"}],"name":"DonorCommitmentRevoked","type":"event"},{"anonymous":false,"inputs":[{"indexed":true,"internalType":"address","name":"donor","type":"address"}],"name":"DonorCommitmentValidated","type":"event"},{"anonymous":false,"inputs":[{"indexed":true,"internalType":"address","name":"donor","type":"address"}],"name":"DonorDeceased","type":"event"},{"anonymous":false,"inputs":[{"indexed":true,"internalType":"address","name":"hospital","type":"address"}],"name":"HospitalDeactivated","type":"event"},{"anonymous":false,"inputs":[{"indexed":true,"internalType":"address","name":"hospital","type":"address"},{"indexed":false,"internalType":"string","name":"name","type":"string"}],"name":"HospitalRegistered","type":"event"},{"anonymous":false,"inputs":[{"indexed":true,"internalType":"address","name":"donor","type":"address"},{"indexed":true,"internalType":"address","name":"patient","type":"address"}],"name":"MatchFound","type":"event"},{"anonymous":false,"inputs":[{"indexed":true,"internalType":"address","name":"donor","type":"address"},{"indexed":false,"internalType":"enum OrganDonation.OrganType[]","name":"organs","type":"uint8[]"},{"indexed":false,"internalType":"uint256","name":"age","type":"uint256"}],"name":"OrganRegistered","type":"event"},{"anonymous":false,"inputs":[{"indexed":true,"internalType":"address","name":"user","type":"address"}],"name":"UserFlagged","type":"event"},{"anonymous":false,"inputs":[{"indexed":true,"internalType":"address","name":"user","type":"address"}],"name":"UserSuspended","type":"event"},{"anonymous":false,"inputs":[{"indexed":true,"internalType":"address","name":"user","type":"address"},{"indexed":false,"internalType":"enum OrganDonation.Role","name":"role","type":"uint8"}],"name":"UserVerified","type":"event"},{"inputs":[{"internalType":"address","name":"user","type":"address"},{"internalType":"enum OrganDonation.Role","name":"roleToVerify","type":"uint8"}],"name":"adminVerifyUser","outputs":[],"stateMutability":"nonpayable","type":"function"},{"inputs":[{"internalType":"address","name":"hospital","type":"address"}],"name":"deactivateHospital","outputs":[],"stateMutability":"nonpayable","type":"function"},{"inputs":[{"internalType":"uint256","name":"","type":"uint256"}],"name":"donorList","outputs":[{"internalType":"address","name":"","type":"address"}],"stateMutability":"view","type":"function"},{"inputs":[{"internalType":"address","name":"","type":"address"}],"name":"donors","outputs":[{"internalType":"address","name":"donorAddress","type":"address"},{"internalType":"string","name":"name","type":"string"},{"internalType":"uint256","name":"age","type":"uint256"},{"internalType":"string","name":"bloodType","type":"string"},{"internalType":"string","name":"location","type":"string"},{"internalType":"bool","name":"deceased","type":"bool"},{"internalType":"bool","name":"hospitalVerified","type":"bool"},{"internalType":"bool","name":"adminVerified","type":"bool"},{"internalType":"bool","name":"suspended","type":"bool"},{"internalType":"bool","name":"flagged","type":"bool"},{"internalType":"bool","name":"committed","type":"bool"},{"internalType":"string","name":"ipfsHash","type":"string"}],"stateMutability":"view","type":"function"},{"inputs":[{"internalType":"address","name":"user","type":"address"}],"name":"flagUser","outputs":[],"stateMutability":"nonpayable","type":"function"},{"inputs":[],"name":"getAvailableOrgans","outputs":[{"components":[{"internalType":"address","name":"donorAddress","type":"address"},{"internalType":"string","name":"name","type":"string"},{"internalType":"uint256","name":"age","type":"uint256"},{"internalType":"string","name":"bloodType","type":"string"},{"internalType":"enum OrganDonation.OrganType[]","name":"organs","type":"uint8[]"},{"internalType":"string","name":"location","type":"string"},{"internalType":"bool","name":"deceased","type":"bool"},{"internalType":"bool","name":"hospitalVerified","type":"bool"},{"internalType":"bool","name":"adminVerified","type":"bool"},{"internalType":"bool","name":"suspended","type":"bool"},{"internalType":"bool","name":"flagged","type":"bool"},{"internalType":"bool","name":"committed","type":"bool"},{"internalType":"string","name":"ipfsHash","type":"string"}],"internalType":"struct OrganDonation.Donor[]","name":"","type":"tuple[]"}],"stateMutability":"view","type":"function"},{"inputs":[{"internalType":"address","name":"_donorAddress","type":"address"}],"name":"getDonorDetails","outputs":[{"internalType":"address","name":"donorAddress","type":"address"},{"internalType":"string","name":"name","type":"string"},{"internalType":"uint256","name":"age","type":"uint256"},{"internalType":"string","name":"bloodType","type":"string"},{"internalType":"enum OrganDonation.OrganType[]","name":"organs","type":"uint8[]"},{"internalType":"string","name":"location","type":"string"},{"internalType":"bool","name":"deceased","type":"bool"},{"internalType":"bool","name":"hospitalVerified","type":"bool"},{"internalType":"bool","name":"adminVerified","type":"bool"},{"internalType":"bool","name":"suspended","type":"bool"},{"internalType":"bool","name":"flagged","type":"bool"},{"internalType":"bool","name":"committed","type":"bool"},{"internalType":"string","name":"ipfsHash","type":"string"}],"stateMutability":"view","type":"function"},{"inputs":[],"name":"getDonorList","outputs":[{"internalType":"address[]","name":"","type":"address[]"}],"stateMutability":"view","type":"function"},{"inputs":[{"internalType":"address","name":"_patientAddress","type":"address"}],"name":"getPatientDetails","outputs":[{"internalType":"address","name":"patientAddress","type":"address"},{"internalType":"string","name":"name","type":"string"},{"internalType":"uint256","name":"age","type":"uint256"},{"internalType":"string","name":"bloodType","type":"string"},{"internalType":"string","name":"neededOrgan","type":"string"},{"internalType":"string","name":"urgency","type":"string"},{"internalType":"string","name":"location","type":"string"},{"internalType":"bool","name":"hospitalVerified","type":"bool"},{"internalType":"bool","name":"adminVerified","type":"bool"},{"internalType":"bool","name":"suspended","type":"bool"},{"internalType":"bool","name":"flagged","type":"bool"},{"internalType":"string","name":"ipfsHash","type":"string"}],"stateMutability":"view","type":"function"},{"inputs":[],"name":"getPatientList","outputs":[{"internalType":"address[]","name":"","type":"address[]"}],"stateMutability":"view","type":"function"},{"inputs":[{"internalType":"uint256","name":"","type":"uint256"}],"name":"hospitalList","outputs":[{"internalType":"address","name":"","type":"address"}],"stateMutability":"view","type":"function"},{"inputs":[{"internalType":"address","name":"user","type":"address"},{"internalType":"enum OrganDonation.Role","name":"roleToVerify","type":"uint8"}],"name":"hospitalVerifyUser","outputs":[],"stateMutability":"nonpayable","type":"function"},{"inputs":[{"internalType":"address","name":"","type":"address"}],"name":"hospitals","outputs":[{"internalType":"address","name":"hospitalAddress","type":"address"},{"internalType":"string","name":"name","type":"string"},{"internalType":"string","name":"location","type":"string"},{"internalType":"bool","name":"isActive","type":"bool"}],"stateMutability":"view","type":"function"},{"inputs":[{"internalType":"address","name":"donor","type":"address"}],"name":"markDonorDeceased","outputs":[],"stateMutability":"nonpayable","type":"function"},{"inputs":[{"internalType":"address","name":"donor","type":"address"},{"internalType":"address","name":"patient","type":"address"}],"name":"markOrganAsMatched","outputs":[],"stateMutability":"nonpayable","type":"function"},{"inputs":[],"name":"owner","outputs":[{"internalType":"address","name":"","type":"address"}],"stateMutability":"view","type":"function"},{"inputs":[{"internalType":"uint256","name":"","type":"uint256"}],"name":"patientList","outputs":[{"internalType":"address","name":"","type":"address"}],"stateMutability":"view","type":"function"},{"inputs":[{"internalType":"address","name":"","type":"address"}],"name":"patients","outputs":[{"internalType":"address","name":"patientAddress","type":"address"},{"internalType":"string","name":"name","type":"string"},{"internalType":"uint256","name":"age","type":"uint256"},{"internalType":"string","name":"bloodType","type":"string"},{"internalType":"string","name":"neededOrgan","type":"string"},{"internalType":"string","name":"urgency","type":"string"},{"internalType":"string","name":"location","type":"string"},{"internalType":"bool","name":"hospitalVerified","type":"bool"},{"internalType":"bool","name":"adminVerified","type":"bool"},{"internalType":"bool","name":"suspended","type":"bool"},{"internalType":"bool","name":"flagged","type":"bool"},{"internalType":"string","name":"ipfsHash","type":"string"}],"stateMutability":"view","type":"function"},{"inputs":[{"internalType":"address","name":"hospital","type":"address"}],"name":"reactivateHospital","outputs":[],"stateMutability":"nonpayable","type":"function"},{"inputs":[{"internalType":"string","name":"name","type":"string"},{"internalType":"uint256","name":"_age","type":"uint256"},{"internalType":"string","name":"bloodType","type":"string"},{"internalType":"enum OrganDonation.OrganType[]","name":"organs","type":"uint8[]"},{"internalType":"string","name":"location","type":"string"},{"internalType":"string","name":"ipfsHash","type":"string"}],"name":"registerDonor","outputs":[],"stateMutability":"nonpayable","type":"function"},{"inputs":[{"internalType":"string","name":"name","type":"string"},{"internalType":"string","name":"location","type":"string"}],"name":"registerHospital","outputs":[],"stateMutability":"nonpayable","type":"function"},{"inputs":[{"internalType":"string","name":"name","type":"string"},{"internalType":"string","name":"bloodType","type":"string"},{"internalType":"string","name":"neededOrgan","type":"string"},{"internalType":"string","name":"urgency","type":"string"},{"internalType":"string","name":"location","type":"string"},{"internalType":"string","name":"ipfsHash","type":"string"},{"internalType":"uint256","name":"_age","type":"uint256"}],"name":"registerPatient","outputs":[],"stateMutability":"nonpayable","type":"function"},{"inputs":[{"internalType":"address","name":"donor","type":"address"}],"name":"revokeDonorCommitment","outputs":[],"stateMutability":"nonpayable","type":"function"},{"inputs":[{"internalType":"address","name":"","type":"address"}],"name":"roles","outputs":[{"internalType":"enum OrganDonation.Role","name":"","type":"uint8"}],"stateMutability":"view","type":"function"},{"inputs":[{"internalType":"address","name":"user","type":"address"}],"name":"suspendUser","outputs":[],"stateMutability":"nonpayable","type":"function"},{"inputs":[{"internalType":"address","name":"donor","type":"address"}],"name":"validateDonorCommitment","outputs":[],"stateMutability":"nonpayable","type":"function"}],"evm":{"bytecode":{"linkReferences":{},"object":"6080806040523461004057600080546001600160a01b0319163390811782558152600160205260409020805460ff19166003179055613cc490816100468239f35b600080fdfe6080604052600436101561001257600080fd5b60003560e01c80630869cfbc14612cd8578063099efadb14612c565780631e153acb14612b5d5780632f383cb7146129125780632fdfdf7914612502578063312b6d4d1461247c57806348cfc779146123f85780634c1da6a914612374578063503b1354146122e4578063592d7e20146120f25780635eed3dcb146120b05780637bb848fc146117745780638371a454146116fc5780638da5cb5b146116d3578063993746421461168d578063a33a2d8014611590578063af70f3e3146114e6578063afcb67d314611356578063babb1d41146112fb578063bbad68a614611267578063c5f37813146108b3578063c82412b914610858578063c9047be714610492578063ca0cdea81461037c578063efe2ccc1146101ce5763f093cf801461013a57600080fd5b346101c95760203660031901126101c9576001600160a01b038061015c612d8d565b16600052600460205260406000209081541661017a60018301612e36565b916101bd60ff600361018e60028501612e36565b93015416916101af6040519586958652608060208701526080860190612edc565b908482036040860152612edc565b90151560608301520390f35b600080fd5b346101c95760203660031901126101c9576001600160a01b03806101f0612d8d565b16806000526001602052600260ff6040600020541661020e816130dc565b0361032b57600052600360205260406000209061032760405161023081612df9565b82845416815261024260018501612e36565b92602082019384526002850154946040830195865261026360038201612e36565b91606084019283528361027860048401612e36565b926080820193845261028c60058201612e36565b60a0830190815261029f60068301612e36565b9060c0840191825260078301549586956102f4600860e088019660ff8a161515885260ff6101406101008b019a828d861c1615158c528261012082019d60101c1615158d52019b60181c1615158b5201612e36565b998a61016082015251169a519b51975190519151925193511515945115159551151596511515976040519c8d9c8d612f1c565b0390f35b60405162461bcd60e51b815260206004820152602360248201527f41646472657373206973206e6f74206120726567697374657265642070617469604482015262195b9d60ea1b6064820152608490fd5b346101c95760203660031901126101c9576001600160a01b038061039e612d8d565b1660005260026020526040600020908154166103276103bf60018401612e36565b9260028101546104346103d460038401612e36565b916104266103e460058601612e36565b916103f6600760068801549701612e36565b946104136040519a8b9a8b526101808060208d01528b0190612edc565b9160408a015288820360608a0152612edc565b908682036080880152612edc565b9160ff90818116151560a0870152818160081c16151560c0870152818160101c16151560e0870152818160181c161515610100870152818160201c16151561012087015260281c161515610140850152838203610160850152612edc565b346101c95760003660031901126101c957600080600554905b81811061078957506104bc826130c5565b916104ca6040519384612e15565b8083526104d9601f19916130c5565b0160005b8181106107165750506000805b828110610619576040805160208082528651818301819052600093600582901b8401810192808a01929185015b8287106105245785850386f35b909192938280610609600193603f198a82030186528851858060a01b0381511682526105a9610596610583610566878501516101a0808a890152870190612edc565b604085015160408701526060808601519087830390880152612edc565b60808085015190868303908701526130fc565b60a0808401519085830390860152612edc565b9160c08083015115159082015260e0820151151560e0820152610100808301511515908201526101208083015115159082015261014080830151151590820152610160808301511515908201526101808092015191818403910152612edc565b9601920196019592919092610517565b806106266106709261308e565b60018060a01b03809254600392831b1c1660005260029160209183835260ff600690808260406000200154161591826106ea575b826106be575b5050610675575b505050506133af565b6104ea565b61067e8561308e565b9054911b1c16600052526106b46040600020936106a361069d826133af565b956133e8565b6106ad82896133d4565b52866133d4565b5085808080610667565b909150836106cb8861308e565b905490851b1c166000528585526040600020015460101c168a80610660565b9150836106f68861308e565b905490851b1c1660005285855280826040600020015460081c169161065a565b60209060405161072581612ddd565b600081526060839080828401526000604084015280808401528060808401528060a0840152600060c0840152600060e084015260006101008401526000610120840152600061014084015260006101608401526101808301528287010152016104dd565b6107928161308e565b9060018060a01b03809154600393841b1c1660005260029060209180835260ff926006928484604060002001541615958661082c575b866107fc575b5050505050506107e7575b6107e2906133af565b6104ab565b916107f46107e2916133af565b9290506107d9565b9091929394955061080c8761308e565b9054911b1c16600052526040600020015460101c168480808080806107ce565b9550806108388861308e565b905490881b1c1660005282825284846040600020015460081c16956107c8565b346101c95760203660031901126101c9576004356007548110156101c95760076000527fa66cc928b5edb82af9bd49922954155ab7b0942694bea4ce44661d9a8736c68801546040516001600160a01b039091168152602090f35b346101c95760e03660031901126101c9576004356001600160401b0381116101c9576108e3903690600401612ff4565b6024356001600160401b0381116101c957610902903690600401612ff4565b6044356001600160401b0381116101c957610921903690600401612ff4565b6064356001600160401b0381116101c957610940903690600401612ff4565b6084356001600160401b0381116101c95761095f903690600401612ff4565b9160a4356001600160401b0381116101c95761097f903690600401612ff4565b9361098c8651151561313e565b6109988151151561324d565b815115611222578251156111e7576109b28451151561317d565b60c435156111a257604051956109c787612df9565b338752602087015260c43560408701526060860152608085015260a084015260c0830152600060e0830152600061010083015260006101208301526000610140830152610160820152336000526003602052604060002060018060a01b038251166001600160601b0360a01b82541617815560208201519182516001600160401b038111610d7257610a5c6001840154612da3565b601f811161116d575b506020601f82116001146110ff57819293946000926110f4575b50508160011b916000199060031b1c19161760018301555b6040810151600283015560608101519182516001600160401b038111610d7257610ac46003830154612da3565b601f81116110bf575b506020601f82116001146110515781929394600092611046575b50508160011b916000199060031b1c19161760038201555b60808201519182516001600160401b038111610d7257610b226004840154612da3565b601f8111611011575b506020601f8211600114610fa35781929394600092610f98575b50508160011b916000199060031b1c19161760048301555b60a08101519182516001600160401b038111610d7257610b806005830154612da3565b601f8111610f63575b506020601f8211600114610ef55781929394600092610eea575b50508160011b916000199060031b1c19161760058201555b60c08201518051906001600160401b038211610d7257610bde6006840154612da3565b601f8111610eb5575b50602090601f8311600114610e3f5791806101609492600894600092610e34575b50508160011b916000199060031b1c19161760068201555b610c9960078201610c4360e08701511515829060ff801983541691151516179055565b610100860151815461ff00191690151560081b61ff0016178155610120860151815462ff0000191690151560101b62ff000016178155610140860151815463ff000000191690151560181b63ff00000016179055565b019101519081516001600160401b038111610d7257610cb88254612da3565b601f8111610df7575b50602092601f8211600114610d935792819293600092610d88575b50508160011b916000199060031b1c19161790555b3360005260016020526040600020600260ff19825416179055600654600160401b811015610d72576001810180600655811015610d5c577ff652222313e28459528d920b65115c16c04f3efc82aaedc97be59f3f377c0d3f0180546001600160a01b03191633179055005b634e487b7160e01b600052603260045260246000fd5b634e487b7160e01b600052604160045260246000fd5b015190508380610cdc565b601f198216938360005260206000209160005b868110610ddf5750836001959610610dc6575b505050811b019055610cf1565b015160001960f88460031b161c19169055838080610db9565b91926020600181928685015181550194019201610da6565b610e2490836000526020600020601f840160051c81019160208510610e2a575b601f0160051c01906131c0565b83610cc1565b9091508190610e17565b015190508680610c08565b906006840160005260206000209160005b601f1985168110610e9d575092610160949260019260089583601f19811610610e84575b505050811b016006820155610c20565b015160001960f88460031b161c19169055868080610e74565b91926020600181928685015181550194019201610e50565b610ee490600685016000526020600020601f850160051c81019160208610610e2a57601f0160051c01906131c0565b84610be7565b015190508480610ba3565b6005830160005260206000209060005b601f1984168110610f4b5750600193949583601f19811610610f32575b505050811b016005820155610bbb565b015160001960f88460031b161c19169055848080610f22565b9091602060018192858a015181550193019101610f05565b610f9290600584016000526020600020601f840160051c81019160208510610e2a57601f0160051c01906131c0565b84610b89565b015190508480610b45565b6004840160005260206000209060005b601f1984168110610ff95750600193949583601f19811610610fe0575b505050811b016004830155610b5d565b015160001960f88460031b161c19169055848080610fd0565b9091602060018192858a015181550193019101610fb3565b61104090600485016000526020600020601f840160051c81019160208510610e2a57601f0160051c01906131c0565b84610b2b565b015190508480610ae7565b6003830160005260206000209060005b601f19841681106110a75750600193949583601f1981161061108e575b505050811b016003820155610aff565b015160001960f88460031b161c1916905584808061107e565b9091602060018192858a015181550193019101611061565b6110ee90600384016000526020600020601f840160051c81019160208510610e2a57601f0160051c01906131c0565b84610acd565b015190508480610a7f565b6001840160005260206000209060005b601f19841681106111555750600193949583601f1981161061113c575b505050811b016001830155610a97565b015160001960f88460031b161c1916905584808061112c565b9091602060018192858a01518155019301910161110f565b61119c90600185016000526020600020601f840160051c81019160208510610e2a57601f0160051c01906131c0565b84610a65565b60405162461bcd60e51b815260206004820152601a60248201527f416765206d7573742062652067726561746572207468616e20300000000000006044820152606490fd5b60405162461bcd60e51b8152602060048201526013602482015272155c99d95b98de481a5cc81c995c5d5a5c9959606a1b6044820152606490fd5b60405162461bcd60e51b815260206004820152601860248201527f4e6565646564206f7267616e20697320726571756972656400000000000000006044820152606490fd5b346101c95760203660031901126101c957611280612d8d565b3360005260016020526112a6600360ff604060002054166112a0816130dc565b146131d7565b6001600160a01b03166000818152600260205260408120600601805465ff00000000001916650100000000001790557fd3246ded9638f3a0c0ba5c93a9a153d20c9176e5c705e1e0a3f7e92e0cb0500b9080a2005b346101c95760203660031901126101c9576004356006548110156101c95760066000527ff652222313e28459528d920b65115c16c04f3efc82aaedc97be59f3f377c0d3f01546040516001600160a01b039091168152602090f35b346101c95760203660031901126101c9576001600160a01b0380611378612d8d565b16806000526001602052600160ff60406000205416611396816130dc565b0361149757600052600260205260406000206113b1906133e8565b9081511660208201519160408101519060608101519060808101519160a08201519260c083015115159360e084015115156101008501511515916101208601511515936101408701511515956101608801511515976101800151996040519c8d9c8d528c6101a06020819201528d0161142991612edc565b9060408d01528b810360608d015261144091612edc565b8a810360808c0152611451916130fc565b89810360a08b015261146291612edc565b9560c089015260e088015261010087015261012086015261014085015261016084015282810361018084015261032791612edc565b60405162461bcd60e51b815260206004820152602160248201527f41646472657373206973206e6f742061207265676973746572656420646f6e6f6044820152603960f91b6064820152608490fd5b346101c95760203660031901126101c9576114ff612d8d565b33600052600160205261151f600360ff604060002054166112a0816130dc565b6001600160a01b03166000818152600160205260409020546115509060049060ff1661154a816130dc565b14613210565b806000526004602052600360406000200160ff1981541690557f15adb08b0c08c5f6ce96550bc504baaba1b761f1711211ec68416eef11ed55e5600080a2005b346101c9576020806003193601126101c9576115aa612d8d565b33600052600182526115c9600360ff604060002054166112a0816130dc565b60018060a01b0316908160005260018152600160ff604060002054166115ee816130dc565b0361163e576002908260005252600660406000200164010000000064ff00000000198254161790555b7faea35fc9a27361aba75788b01d0206dbe6018a2061ba0c177d99b2b18dd37289600080a2005b8160005260018152600260ff6040600020541661165a816130dc565b14611666575b50611617565b60039082600052526007604060002001630100000063ff0000001982541617905581611660565b346101c95760203660031901126101c9576001600160a01b036116ae612d8d565b166000526001602052602060ff60406000205416604051906116cf816130dc565b8152f35b346101c95760003660031901126101c9576000546040516001600160a01b039091168152602090f35b346101c95760403660031901126101c957611715612d8d565b6001600160a01b0360243581811692908390036101c95733600052600160205261174c600360ff604060002054166112a0816130dc565b167f3182b38841de065eded850f9e9fa30850bb37c3a57df9bef3841138a94b72956600080a3005b346101c95760c03660031901126101c9576004356001600160401b0381116101c9576117a4903690600401612ff4565b6044356001600160401b0381116101c9576117c3903690600401612ff4565b90606435916001600160401b0383116101c957366023840112156101c95782600401356117ef816130c5565b936117fd6040519586612e15565b8185526024602086019260051b820101903682116101c957602401915b818310612097575050506084356001600160401b0381116101c957611843903690600401612ff4565b60a4356001600160401b0381116101c957611862903690600401612ff4565b9161186f8451151561313e565b601260243510612046576118858151151561324d565b845115611ff5576118988251151561317d565b604051936118a585612ddd565b33855260208501526024356040850152606084015283608084015260a0830152600060c0830152600060e0830152600061010083015260006101208301526000610140830152600061016083015261018082015233600052600260205260406000209060018060a01b038151166001600160601b0360a01b83541617825560208101519283516001600160401b038111610d72576119466001850154612da3565b601f8111611fc0575b506020601f8211600114611f51578192939495600092611f46575b50508160011b916000199060031b1c19161760018401555b6040820151600284015560608201519283516001600160401b038111610d72576119af6003830154612da3565b601f8111611f11575b506020601f8211600114611ea2578192939495600092611e97575b50508160011b916000199060031b1c19161760038201555b60808301518051906001600160401b038211610d7257600160401b8211610d72576020906004840154836004860155808410611e40575b5001906004830160005260206000209060005b8160051c8110611e075750601f1981168103611db1575b50505060a08301519283516001600160401b038111610d7257611a726005840154612da3565b601f8111611d7c575b506020601f8211600114611d08578190610180949596600092611cfd575b50508160011b916000199060031b1c19161760058401555b60068301611ad160c08301511515829060ff801983541691151516179055565b60e0820151815461ff00191690151560081b61ff0016178155610100820151815462ff0000191690151560101b62ff000016178155610120820151815463ff000000191690151560181b63ff000000161781556101408201511515815464ff0000000065ff0000000000610160860151151560281b169260201b169065ffff0000000019161717905501518051906001600160401b038211610d7257611b7a6007840154612da3565b601f8111611cc8575b50602090601f8311600114611c58576007929160009183611c4d575b50508160011b916000199060031b1c1916179101555b3360005260016020526040600020600160ff19825416179055600554600160401b811015610d7257806001611bed920160055561308e565b81549060031b9033821b9160018060a01b03901b19161790557f7555fbe7a03a1845d092ae34447e52cc2cf366bbd2a8c185275753f775b0c3cc611c3c604051926040845260408401906130fc565b9160243560208201528033930390a2005b015190508580611b9f565b906007840160005260206000209160005b601f1985168110611cb05750918391600193600795601f19811610611c97575b505050811b01910155611bb5565b015160001960f88460031b161c19169055858080611c89565b91926020600181928685015181550194019201611c69565b611cf790600785016000526020600020601f850160051c81019160208610610e2a57601f0160051c01906131c0565b84611b83565b015190508680611a99565b6005840160005260206000209560005b601f1984168110611d645750958291610180959697600194601f19811610611d4b575b505050811b016005840155611ab1565b015160001960f88460031b161c19169055868080611d3b565b82820151885560019097019660209283019201611d18565b611dab90600585016000526020600020601f840160051c81019160208510610e2a57601f0160051c01906131c0565b85611a7b565b60009260005b601f19831683038110611dd357505060051c0155838080611a4c565b90936020611dfe60019284885191611dea836130dc565b9060ff809160031b9316831b921b19161790565b95019101611db7565b6000805b60208110611e20575083820155600101611a35565b94906020611e3760019288855191611dea836130dc565b92019501611e0b565b611e709060048601600052601f846000209181871680611e76575b500160051c810190601f860160051c016131c0565b86611a22565b6000199081848a0160051c86010191825491890360031b1c1690558a611e5b565b0151905085806119d3565b6003830160005260206000209060005b601f1984168110611ef9575060019394959683601f19811610611ee0575b505050811b0160038201556119eb565b015160001960f88460031b161c19169055858080611ed0565b9091602060018192858b015181550193019101611eb2565b611f4090600384016000526020600020601f840160051c81019160208510610e2a57601f0160051c01906131c0565b856119b8565b01519050858061196a565b6001850160005260206000209060005b601f1984168110611fa8575060019394959683601f19811610611f8f575b505050811b016001840155611982565b015160001960f88460031b161c19169055858080611f7f565b9091602060018192858b015181550193019101611f61565b611fef90600186016000526020600020601f840160051c81019160208510610e2a57601f0160051c01906131c0565b8561194f565b60405162461bcd60e51b8152602060048201526024808201527f4174206c65617374206f6e65206f7267616e206d757374206265207370656369604482015263199a595960e21b6064820152608490fd5b60405162461bcd60e51b815260206004820152602360248201527f446f6e6f72206d757374206265206174206c65617374203138207965617273206044820152621bdb1960ea1b6064820152608490fd5b823560058110156101c95781526020928301920161181a565b346101c95760203660031901126101c9576004356005548110156101c9576120d960209161308e565b905460405160039290921b1c6001600160a01b03168152f35b346101c95761210036612fc5565b9033600052600190602091808352600460ff60406000205416612122816130dc565b036122af57336000526004835260ff600360406000200154161561227157907f3e60282061aa9f0ac8f17cb522ab49946225e94f8597d84e6504593ee06a81e0929161216d856130dc565b80851480801561225e575b61218190613292565b61218a866130dc565b156121f7576001600160a01b0382166000818152828552604090205490916121be9160ff166121b8816130dc565b1461334f565b60005260028252600660406000200161010061ff00198254161790555b604051936121e8816130dc565b84526001600160a01b031692a2005b612200856130dc565b6002851461220f575b506121db565b6001600160a01b0382166000818152828552604090205461223f9060029060ff16612239816130dc565b146132ed565b6000526003835260076040600020019060ff1982541617905584612209565b50612268866130dc565b60028614612178565b60405162461bcd60e51b8152600481018490526016602482015275486f73706974616c206973206e6f742061637469766560501b6044820152606490fd5b60405162461bcd60e51b815260048101849052600d60248201526c13db9b1e481a1bdcdc1a5d185b609a1b6044820152606490fd5b346101c95760003660031901126101c957604051806006549182815260208091019260066000527ff652222313e28459528d920b65115c16c04f3efc82aaedc97be59f3f377c0d3f916000905b828210612354576103278561234881890382612e15565b6040519182918261304a565b83546001600160a01b031686529485019460019384019390910190612331565b346101c95760203660031901126101c95761238d612d8d565b3360005260016020526123ad600360ff604060002054166112a0816130dc565b6001600160a01b03166000818152600260205260408120600601805460ff191660011790557f5d1f8ae728605f1c5a96c33df7ee3b56ded21030717a9f48200f94737da9fd299080a2005b346101c95760003660031901126101c957604051806005549182815260208091019260056000527f036b6384b5eca791c62761152d0c79bb0604c104a5fb6f4eb0703f3154bb3db0916000905b82821061245c576103278561234881890382612e15565b83546001600160a01b031686529485019460019384019390910190612445565b346101c95760203660031901126101c957612495612d8d565b3360005260016020526124b5600360ff604060002054166112a0816130dc565b6001600160a01b03166000818152600260205260408120600601805465ff0000000000191690557ff2f9e1301b8fc7b02f69f6ec7d37d40ca019ddcb0a1ec4ea542256fba95cf6929080a2005b346101c95760403660031901126101c9576004356001600160401b0381116101c957612532903690600401612ff4565b6024356001600160401b0381116101c957612551903690600401612ff4565b61255d8251151561313e565b6125698151151561317d565b33600052600160205260ff60406000205416612584816130dc565b6128cd57604051608081018181106001600160401b03821117610d7257604052338152602081019183835260408201526001606082015233600052600460205260406000209160018060a01b038251166001600160601b0360a01b8454161783555180516001600160401b038111610d7257806126046001860154612da3565b92601f9384811161289a575b506020908483116001146128285760009261281d575b50508160011b916000199060031b1c19161760018401555b60028301906040830151908151916001600160401b038311610d72576126648454612da3565b8281116127e3575b5060209183116001146127725792826060936126ba979693600396600092612767575b50508160011b9160001990871b1c19161790555b0151151591019060ff801983541691151516179055565b3360005260016020526040600020600460ff19825416179055600754600160401b811015610d72576001810180600755811015610d5c5760076000527fa66cc928b5edb82af9bd49922954155ab7b0942694bea4ce44661d9a8736c68801336001600160601b0360a01b8254161790557f72cefccb74b7edacb21023a72b39a2cecb1123ba70d1eea03d3509d046b941c2604051602081528061276233946020830190612edc565b0390a2005b01519050898061268f565b90601f198316918460005260206000209260005b8181106127cb5750936126ba9796936003969360019383606098106127b3575b505050811b0190556126a3565b015160001983891b60f8161c191690558980806127a6565b92936020600181928786015181550195019301612786565b61280e908560005260206000208480870160051c82019260208810612814575b0160051c01906131c0565b8761266c565b92508192612803565b015190508680612626565b9250600186016000526020600020906000935b601f198416851061287f576001945083601f19811610612866575b505050811b01600184015561263e565b015160001960f88460031b161c19169055868080612856565b8181015183556020948501946001909301929091019061283b565b6128c7906001880160005260206000208680860160051c82019260208710612814570160051c01906131c0565b87612610565b60405162461bcd60e51b815260206004820152601a60248201527f4164647265737320616c726561647920726567697374657265640000000000006044820152606490fd5b346101c95761292036612fc5565b903360005260209060018252612943600360ff604060002054166112a0816130dc565b61294c836130dc565b60018314808015612b4a575b61296190613292565b61296a846130dc565b15612a555760018060a01b0381168060005260018352612997600160ff604060002054166121b8816130dc565b806000526002835260ff60066040600020015460081c1615612a0257907f3e60282061aa9f0ac8f17cb522ab49946225e94f8597d84e6504593ee06a81e092916000526002825260066040600020016201000062ff000019825416179055604051936121e8816130dc565b60405162461bcd60e51b815260048101849052602560248201527f446f6e6f72206d75737420626520686f73706974616c20766572696669656420604482015264199a5c9cdd60da1b6064820152608490fd5b612a5e836130dc565b60028314612a8f575b907f3e60282061aa9f0ac8f17cb522ab49946225e94f8597d84e6504593ee06a81e0916121db565b6001600160a01b0381166000818152600184526040902054612aba9060029060ff16612239816130dc565b806000526003835260ff6007604060002001541615612af55760009081526003835260409020600701805461ff001916610100179055612a67565b60405162461bcd60e51b815260048101849052602760248201527f50617469656e74206d75737420626520686f73706974616c20766572696669656044820152661908199a5c9cdd60ca1b6064820152608490fd5b50612b54846130dc565b60028414612958565b346101c9576020806003193601126101c957612b77612d8d565b3360005260018252612b96600360ff604060002054166112a0816130dc565b60018060a01b0316908160005260018152600160ff60406000205416612bbb816130dc565b03612c095760029082600052526006604060002001630100000063ff000000198254161790555b7f904d1985d199946aad94a6990736c4602adcc5b717b04d0436ed05446b07169d600080a2005b8160005260018152600260ff60406000205416612c25816130dc565b14612c31575b50612be2565b600390826000525260076040600020016201000062ff00001982541617905581612c2b565b346101c95760203660031901126101c957612c6f612d8d565b336000526001602052612c8f600360ff604060002054166112a0816130dc565b6001600160a01b0316600081815260016020526040902054612cba9060049060ff1661154a816130dc565b6000908152600460205260409020600301805460ff19166001179055005b346101c95760203660031901126101c9576001600160a01b0380612cfa612d8d565b166000526003602052604060002090815416610327612d1b60018401612e36565b916002840154612d2d60038601612e36565b93612d3a60048701612e36565b95612d4760058201612e36565b93612d5460068301612e36565b612d65600860078501549401612e36565b95604051998a9960ff8660181c169760ff8760101c169760ff808960081c169816968d612f1c565b600435906001600160a01b03821682036101c957565b90600182811c92168015612dd3575b6020831014612dbd57565b634e487b7160e01b600052602260045260246000fd5b91607f1691612db2565b6101a081019081106001600160401b03821117610d7257604052565b61018081019081106001600160401b03821117610d7257604052565b90601f801991011681019081106001600160401b03821117610d7257604052565b9060405191826000825492612e4a84612da3565b908184526001948581169081600014612eb95750600114612e76575b5050612e7492500383612e15565b565b9093915060005260209081600020936000915b818310612ea1575050612e7493508201013880612e66565b85548884018501529485019487945091830191612e89565b915050612e7494506020925060ff191682840152151560051b8201013880612e66565b919082519283825260005b848110612f08575050826000602080949584010152601f8019910116010190565b602081830181015184830182015201612ee7565b98959194612f6a8a612fc29e9c9996612f86969b9e9b6040612f5a612f949b612f789860018060a01b03168652610180806020880152860190612edc565b9301528c820360608e0152612edc565b908a820360808c0152612edc565b9088820360a08a0152612edc565b9086820360c0880152612edc565b95151560e0850152151561010084015215156101208301521515610140820152610160818403910152612edc565b90565b60409060031901126101c9576004356001600160a01b03811681036101c9579060243560058110156101c95790565b81601f820112156101c9578035906001600160401b038211610d725760405192613028601f8401601f191660200185612e15565b828452602083830101116101c957816000926020809301838601378301015290565b6020908160408183019282815285518094520193019160005b828110613071575050505090565b83516001600160a01b031685529381019392810192600101613063565b600554811015610d5c5760056000527f036b6384b5eca791c62761152d0c79bb0604c104a5fb6f4eb0703f3154bb3db00190600090565b6001600160401b038111610d725760051b60200190565b600511156130e657565b634e487b7160e01b600052602160045260246000fd5b90815180825260208080930193019160005b82811061311c575050505090565b9091929382806001928751613130816130dc565b81520195019392910161310e565b1561314557565b60405162461bcd60e51b815260206004820152601060248201526f13985b59481a5cc81c995c5d5a5c995960821b6044820152606490fd5b1561318457565b60405162461bcd60e51b8152602060048201526014602482015273131bd8d85d1a5bdb881a5cc81c995c5d5a5c995960621b6044820152606490fd5b8181106131cb575050565b600081556001016131c0565b156131de57565b60405162461bcd60e51b815260206004820152600a60248201526927b7363c9030b236b4b760b11b6044820152606490fd5b1561321757565b60405162461bcd60e51b815260206004820152600e60248201526d139bdd0818481a1bdcdc1a5d185b60921b6044820152606490fd5b1561325457565b60405162461bcd60e51b8152602060048201526016602482015275109b1bdbd9081d1e5c19481a5cc81c995c5d5a5c995960521b6044820152606490fd5b1561329957565b60405162461bcd60e51b815260206004820152602660248201527f43616e206f6e6c792076657269667920446f6e6f72206f722050617469656e7460448201526520726f6c657360d01b6064820152608490fd5b156132f457565b60405162461bcd60e51b815260206004820152602d60248201527f55736572206973206e6f7420726567697374657265642061732061205061746960448201526c656e7420746f2076657269667960981b6064820152608490fd5b1561335657565b60405162461bcd60e51b815260206004820152602b60248201527f55736572206973206e6f742072656769737465726564206173206120446f6e6f60448201526a7220746f2076657269667960a81b6064820152608490fd5b60001981146133be5760010190565b634e487b7160e01b600052601160045260246000fd5b8051821015610d5c5760209160051b010190565b906040516133f581612ddd565b82546001600160a01b031681529182906001613412818301612e36565b90602091828501526002830154604085015261343060038401612e36565b6060850152600483016040519182848354918281520192600052846000206000905b82601f8301106139c857948661018098956135ef9895839561357e9560079a5492858383106139ac575b83831061398d575b83831061396e575b83831061394f575b838310613931575b838310613912575b8383106138f3575b8383106138d4575b8383106138b5575b838310613896575b838310613877575b838310613858575b838310613839575b83831061381a575b8383106137fb575b8383106137dc575b8383106137bd575b83831061379e575b83831061377f575b838310613760575b838310613741575b838310613722575b838310613703575b8383106136e4575b8383106136c5575b8383106136a6575b838310613687575b838310613668575b838310613649575b83831061362a575b83831061360b575b5050106135f4575b5090500382612e15565b608087015261358f60058301612e36565b60a08701526006820154809160ff928391828216151560c08b0152828260081c16151560e08b0152828260101c1615156101008b0152828260181c1615156101208b01521c16151561014088015260281c16151561016086015201612e36565b910152565b60f81c613600816130dc565b815201849038613574565b90919460ff8560f01c1661361e816130dc565b8152019301388561356c565b81929560ff8660e81c1661363d816130dc565b81520194019085613564565b81929560ff8660e01c1661365c816130dc565b8152019401908561355c565b81929560ff8660d81c1661367b816130dc565b81520194019085613554565b81929560ff8660d01c1661369a816130dc565b8152019401908561354c565b81929560ff8660c81c166136b9816130dc565b81520194019085613544565b81929560ff8660c01c166136d8816130dc565b8152019401908561353c565b81929560ff8660b81c166136f7816130dc565b81520194019085613534565b81929560ff8660b01c16613716816130dc565b8152019401908561352c565b81929560ff8660a81c16613735816130dc565b81520194019085613524565b81929560ff8660a01c16613754816130dc565b8152019401908561351c565b81929560ff8660981c16613773816130dc565b81520194019085613514565b81929560ff8660901c16613792816130dc565b8152019401908561350c565b81929560ff8660881c166137b1816130dc565b81520194019085613504565b81929560ff8660801c166137d0816130dc565b815201940190856134fc565b81929560ff8660781c166137ef816130dc565b815201940190856134f4565b81929560ff8660701c1661380e816130dc565b815201940190856134ec565b81929560ff8660681c1661382d816130dc565b815201940190856134e4565b81929560ff8660601c1661384c816130dc565b815201940190856134dc565b81929560ff8660581c1661386b816130dc565b815201940190856134d4565b81929560ff8660501c1661388a816130dc565b815201940190856134cc565b81929560ff8660481c166138a9816130dc565b815201940190856134c4565b81929560ff8660401c166138c8816130dc565b815201940190856134bc565b81929560ff8660381c166138e7816130dc565b815201940190856134b4565b81929560ff8660301c16613906816130dc565b815201940190856134ac565b81929560ff8660281c16613925816130dc565b815201940190856134a4565b81929560ff86831c16613943816130dc565b8152019401908561349c565b81929560ff8660181c16613962816130dc565b81520194019085613494565b81929560ff8660101c16613981816130dc565b8152019401908561348c565b81929560ff8660081c166139a0816130dc565b81520194019085613484565b81929560ff86166139bc816130dc565b8152019401908561347c565b93836104008892875460ff81166139de816130dc565b825260ff8160081c166139f0816130dc565b8583015260ff8160101c16613a04816130dc565b604083015260ff8160181c16613a19816130dc565b606083015260ff81861c16613a2d816130dc565b608083015260ff8160281c16613a42816130dc565b60a083015260ff8160301c16613a57816130dc565b60c0830152613a6b60ff8260381c166130dc565b60ff8160381c1660e083015260ff8160401c16613a87816130dc565b61010083015260ff8160481c16613a9d816130dc565b61012083015260ff8160501c16613ab3816130dc565b61014083015260ff8160581c16613ac9816130dc565b61016083015260ff8160601c16613adf816130dc565b61018083015260ff8160681c16613af5816130dc565b6101a083015260ff8160701c16613b0b816130dc565b6101c083015260ff8160781c16613b21816130dc565b6101e083015260ff8160801c16613b37816130dc565b61020083015260ff8160881c16613b4d816130dc565b61022083015260ff8160901c16613b63816130dc565b61024083015260ff8160981c16613b79816130dc565b61026083015260ff8160a01c16613b8f816130dc565b61028083015260ff8160a81c16613ba5816130dc565b6102a083015260ff8160b01c16613bbb816130dc565b6102c083015260ff8160b81c16613bd1816130dc565b6102e083015260ff8160c01c16613be7816130dc565b61030083015260ff8160c81c16613bfd816130dc565b61032083015260ff8160d01c16613c13816130dc565b61034083015260ff8160d81c16613c29816130dc565b61036083015260ff8160e01c16613c3f816130dc565b61038083015260ff8160e81c16613c55816130dc565b6103a083015260ff8160f01c16613c6b816130dc565b6103c083015260f81c613c7d816130dc565b6103e082015201950191019061345256fea26469706673582212205e35d197f6ba715c3de54add44c33cf91c97c7677f1ef153f71cd1e8e264079664736f6c63430008140033","opcodes":"PUSH1 0x80 DUP1 PUSH1 0x40 MSTORE CALLVALUE PUSH2 0x40 JUMPI PUSH1 0x0 DUP1 SLOAD PUSH1 0x1 PUSH1 0x1 PUSH1 0xA0 SHL SUB NOT AND CALLER SWAP1 DUP2 OR DUP3 SSTORE DUP2 MSTORE PUSH1 0x1 PUSH1 0x20 MSTORE PUSH1 0x40 SWAP1 KECCAK256 DUP1 SLOAD PUSH1 0xFF NOT AND PUSH1 0x3 OR SWAP1 SSTORE PUSH2 0x3CC4 SWAP1 DUP2 PUSH2 0x46 DUP3 CODECOPY RETURN JUMPDEST PUSH1 0x0 DUP1 REVERT INVALID PUSH1 0x80 PUSH1 0x40 MSTORE PUSH1 0x4 CALLDATASIZE LT ISZERO PUSH2 0x12 JUMPI PUSH1 0x0 DUP1 REVERT JUMPDEST PUSH1 0x0 CALLDATALOAD PUSH1 0xE0 SHR DUP1 PUSH4 0x869CFBC EQ PUSH2 0x2CD8 JUMPI DUP1 PUSH4 0x99EFADB EQ PUSH2 0x2C56 JUMPI DUP1 PUSH4 0x1E153ACB EQ PUSH2 0x2B5D JUMPI DUP1 PUSH4 0x2F383CB7 EQ PUSH2 0x2912 JUMPI DUP1 PUSH4 0x2FDFDF79 EQ PUSH2 0x2502 JUMPI DUP1 PUSH4 0x312B6D4D EQ PUSH2 0x247C JUMPI DUP1 PUSH4 0x48CFC779 EQ PUSH2 0x23F8 JUMPI DUP1 PUSH4 0x4C1DA6A9 EQ PUSH2 0x2374 JUMPI DUP1 PUSH4 0x503B1354 EQ PUSH2 0x22E4 JUMPI DUP1 PUSH4 0x592D7E20 EQ PUSH2 0x20F2 JUMPI DUP1 PUSH4 0x5EED3DCB EQ PUSH2 0x20B0 JUMPI DUP1 PUSH4 0x7BB848FC EQ PUSH2 0x1774 JUMPI DUP1 PUSH4 0x8371A454 EQ PUSH2 0x16FC JUMPI DUP1 PUSH4 0x8DA5CB5B EQ PUSH2 0x16D3 JUMPI DUP1 PUSH4 0x99374642 EQ PUSH2 0x168D JUMPI DUP1 PUSH4 0xA33A2D80 EQ PUSH2 0x1590 JUMPI DUP1 PUSH4 0xAF70F3E3 EQ PUSH2 0x14E6 JUMPI DUP1 PUSH4 0xAFCB67D3 EQ PUSH2 0x1356 JUMPI DUP1 PUSH4 0xBABB1D41 EQ PUSH2 0x12FB JUMPI DUP1 PUSH4 0xBBAD68A6 EQ PUSH2 0x1267 JUMPI DUP1 PUSH4 0xC5F37813 EQ PUSH2 0x8B3 JUMPI DUP1 PUSH4 0xC82412B9 EQ PUSH2 0x858 JUMPI DUP1 PUSH4 0xC9047BE7 EQ PUSH2 0x492 JUMPI DUP1 PUSH4 0xCA0CDEA8 EQ PUSH2 0x37C JUMPI DUP1 PUSH4 0xEFE2CCC1 EQ PUSH2 0x1CE JUMPI PUSH4 0xF093CF80 EQ PUSH2 0x13A JUMPI PUSH1 0x0 DUP1 REVERT JUMPDEST CALLVALUE PUSH2 0x1C9 JUMPI PUSH1 0x20 CALLDATASIZE PUSH1 0x3 NOT ADD SLT PUSH2 0x1C9 JUMPI PUSH1 0x1 PUSH1 0x1 PUSH1 0xA0 SHL SUB DUP1 PUSH2 0x15C PUSH2 0x2D8D JUMP JUMPDEST AND PUSH1 0x0 MSTORE PUSH1 0x4 PUSH1 0x20 MSTORE PUSH1 0x40 PUSH1 0x0 KECCAK256 SWAP1 DUP2 SLOAD AND PUSH2 0x17A PUSH1 0x1 DUP4 ADD PUSH2 0x2E36 JUMP JUMPDEST SWAP2 PUSH2 0x1BD PUSH1 0xFF PUSH1 0x3 PUSH2 0x18E PUSH1 0x2 DUP6 ADD PUSH2 0x2E36 JUMP JUMPDEST SWAP4 ADD SLOAD AND SWAP2 PUSH2 0x1AF PUSH1 0x40 MLOAD SWAP6 DUP7 SWAP6 DUP7 MSTORE PUSH1 0x80 PUSH1 0x20 DUP8 ADD MSTORE PUSH1 0x80 DUP7 ADD SWAP1 PUSH2 0x2EDC JUMP JUMPDEST SWAP1 DUP5 DUP3 SUB PUSH1 0x40 DUP7 ADD MSTORE PUSH2 0x2EDC JUMP JUMPDEST SWAP1 ISZERO ISZERO PUSH1 0x60 DUP4 ADD MSTORE SUB SWAP1 RETURN JUMPDEST PUSH1 0x0 DUP1 REVERT JUMPDEST CALLVALUE PUSH2 0x1C9 JUMPI PUSH1 0x20 CALLDATASIZE PUSH1 0x3 NOT ADD SLT PUSH2 0x1C9 JUMPI PUSH1 0x1 PUSH1 0x1 PUSH1 0xA0 SHL SUB DUP1 PUSH2 0x1F0 PUSH2 0x2D8D JUMP JUMPDEST AND DUP1 PUSH1 0x0 MSTORE PUSH1 0x1 PUSH1 0x20 MSTORE PUSH1 0x2 PUSH1 0xFF PUSH1 0x40 PUSH1 0x0 KECCAK256 SLOAD AND PUSH2 0x20E DUP2 PUSH2 0x30DC JUMP JUMPDEST SUB PUSH2 0x32B JUMPI PUSH1 0x0 MSTORE PUSH1 0x3 PUSH1 0x20 MSTORE PUSH1 0x40 PUSH1 0x0 KECCAK256 SWAP1 PUSH2 0x327 PUSH1 0x40 MLOAD PUSH2 0x230 DUP2 PUSH2 0x2DF9 JUMP JUMPDEST DUP3 DUP5 SLOAD AND DUP2 MSTORE PUSH2 0x242 PUSH1 0x1 DUP6 ADD PUSH2 0x2E36 JUMP JUMPDEST SWAP3 PUSH1 0x20 DUP3 ADD SWAP4 DUP5 MSTORE PUSH1 0x2 DUP6 ADD SLOAD SWAP5 PUSH1 0x40 DUP4 ADD SWAP6 DUP7 MSTORE PUSH2 0x263 PUSH1 0x3 DUP3 ADD PUSH2 0x2E36 JUMP JUMPDEST SWAP2 PUSH1 0x60 DUP5 ADD SWAP3 DUP4 MSTORE DUP4 PUSH2 0x278 PUSH1 0x4 DUP5 ADD PUSH2 0x2E36 JUMP JUMPDEST SWAP3 PUSH1 0x80 DUP3 ADD SWAP4 DUP5 MSTORE PUSH2 0x28C PUSH1 0x5 DUP3 ADD PUSH2 0x2E36 JUMP JUMPDEST PUSH1 0xA0 DUP4 ADD SWAP1 DUP2 MSTORE PUSH2 0x29F PUSH1 0x6 DUP4 ADD PUSH2 0x2E36 JUMP JUMPDEST SWAP1 PUSH1 0xC0 DUP5 ADD SWAP2 DUP3 MSTORE PUSH1 0x7 DUP4 ADD SLOAD SWAP6 DUP7 SWAP6 PUSH2 0x2F4 PUSH1 0x8 PUSH1 0xE0 DUP9 ADD SWAP7 PUSH1 0xFF DUP11 AND ISZERO ISZERO DUP9 MSTORE PUSH1 0xFF PUSH2 0x140 PUSH2 0x100 DUP12 ADD SWAP11 DUP3 DUP14 DUP7 SHR AND ISZERO ISZERO DUP13 MSTORE DUP3 PUSH2 0x120 DUP3 ADD SWAP14 PUSH1 0x10 SHR AND ISZERO ISZERO DUP14 MSTORE ADD SWAP12 PUSH1 0x18 SHR AND ISZERO ISZERO DUP12 MSTORE ADD PUSH2 0x2E36 JUMP JUMPDEST SWAP10 DUP11 PUSH2 0x160 DUP3 ADD MSTORE MLOAD AND SWAP11 MLOAD SWAP12 MLOAD SWAP8 MLOAD SWAP1 MLOAD SWAP2 MLOAD SWAP3 MLOAD SWAP4 MLOAD ISZERO ISZERO SWAP5 MLOAD ISZERO ISZERO SWAP6 MLOAD ISZERO ISZERO SWAP7 MLOAD ISZERO ISZERO SWAP8 PUSH1 0x40 MLOAD SWAP13 DUP14 SWAP13 DUP14 PUSH2 0x2F1C JUMP JUMPDEST SUB SWAP1 RETURN JUMPDEST PUSH1 0x40 MLOAD PUSH3 0x461BCD PUSH1 0xE5 SHL DUP2 MSTORE PUSH1 0x20 PUSH1 0x4 DUP3 ADD MSTORE PUSH1 0x23 PUSH1 0x24 DUP3 ADD MSTORE PUSH32 0x41646472657373206973206E6F74206120726567697374657265642070617469 PUSH1 0x44 DUP3 ADD MSTORE PUSH3 0x195B9D PUSH1 0xEA SHL PUSH1 0x64 DUP3 ADD MSTORE PUSH1 0x84 SWAP1 REVERT JUMPDEST CALLVALUE PUSH2 0x1C9 JUMPI PUSH1 0x20 CALLDATASIZE PUSH1 0x3 NOT ADD SLT PUSH2 0x1C9 JUMPI PUSH1 0x1 PUSH1 0x1 PUSH1 0xA0 SHL SUB DUP1 PUSH2 0x39E PUSH2 0x2D8D JUMP JUMPDEST AND PUSH1 0x0 MSTORE PUSH1 0x2 PUSH1 0x20 MSTORE PUSH1 0x40 PUSH1 0x0 KECCAK256 SWAP1 DUP2 SLOAD AND PUSH2 0x327 PUSH2 0x3BF PUSH1 0x1 DUP5 ADD PUSH2 0x2E36 JUMP JUMPDEST SWAP3 PUSH1 0x2 DUP2 ADD SLOAD PUSH2 0x434 PUSH2 0x3D4 PUSH1 0x3 DUP5 ADD PUSH2 0x2E36 JUMP JUMPDEST SWAP2 PUSH2 0x426 PUSH2 0x3E4 PUSH1 0x5 DUP7 ADD PUSH2 0x2E36 JUMP JUMPDEST SWAP2 PUSH2 0x3F6 PUSH1 0x7 PUSH1 0x6 DUP9 ADD SLOAD SWAP8 ADD PUSH2 0x2E36 JUMP JUMPDEST SWAP5 PUSH2 0x413 PUSH1 0x40 MLOAD SWAP11 DUP12 SWAP11 DUP12 MSTORE PUSH2 0x180 DUP1 PUSH1 0x20 DUP14 ADD MSTORE DUP12 ADD SWAP1 PUSH2 0x2EDC JUMP JUMPDEST SWAP2 PUSH1 0x40 DUP11 ADD MSTORE DUP9 DUP3 SUB PUSH1 0x60 DUP11 ADD MSTORE PUSH2 0x2EDC JUMP JUMPDEST SWAP1 DUP7 DUP3 SUB PUSH1 0x80 DUP9 ADD MSTORE PUSH2 0x2EDC JUMP JUMPDEST SWAP2 PUSH1 0xFF SWAP1 DUP2 DUP2 AND ISZERO ISZERO PUSH1 0xA0 DUP8 ADD MSTORE DUP2 DUP2 PUSH1 0x8 SHR AND ISZERO ISZERO PUSH1 0xC0 DUP8 ADD MSTORE DUP2 DUP2 PUSH1 0x10 SHR AND ISZERO ISZERO PUSH1 0xE0 DUP8 ADD MSTORE DUP2 DUP2 PUSH1 0x18 SHR AND ISZERO ISZERO PUSH2 0x100 DUP8 ADD MSTORE DUP2 DUP2 PUSH1 0x20 SHR AND ISZERO ISZERO PUSH2 0x120 DUP8 ADD MSTORE PUSH1 0x28 SHR AND ISZERO ISZERO PUSH2 0x140 DUP6 ADD MSTORE DUP4 DUP3 SUB PUSH2 0x160 DUP6 ADD MSTORE PUSH2 0x2EDC JUMP JUMPDEST CALLVALUE PUSH2 0x1C9 JUMPI PUSH1 0x0 CALLDATASIZE PUSH1 0x3 NOT ADD SLT PUSH2 0x1C9 JUMPI PUSH1 0x0 DUP1 PUSH1 0x5 SLOAD SWAP1 JUMPDEST DUP2 DUP2 LT PUSH2 0x789 JUMPI POP PUSH2 0x4BC DUP3 PUSH2 0x30C5 JUMP JUMPDEST SWAP2 PUSH2 0x4CA PUSH1 0x40 MLOAD SWAP4 DUP5 PUSH2 0x2E15 JUMP JUMPDEST DUP1 DUP4 MSTORE PUSH2 0x4D9 PUSH1 0x1F NOT SWAP2 PUSH2 0x30C5 JUMP JUMPDEST ADD PUSH1 0x0 JUMPDEST DUP2 DUP2 LT PUSH2 0x716 JUMPI POP POP PUSH1 0x0 DUP1 JUMPDEST DUP3 DUP2 LT PUSH2 0x619 JUMPI PUSH1 0x40 DUP1 MLOAD PUSH1 0x20 DUP1 DUP3 MSTORE DUP7 MLOAD DUP2 DUP4 ADD DUP2 SWAP1 MSTORE PUSH1 0x0 SWAP4 PUSH1 0x5 DUP3 SWAP1 SHL DUP5 ADD DUP2 ADD SWAP3 DUP1 DUP11 ADD SWAP3 SWAP2 DUP6 ADD JUMPDEST DUP3 DUP8 LT PUSH2 0x524 JUMPI DUP6 DUP6 SUB DUP7 RETURN JUMPDEST SWAP1 SWAP2 SWAP3 SWAP4 DUP3 DUP1 PUSH2 0x609 PUSH1 0x1 SWAP4 PUSH1 0x3F NOT DUP11 DUP3 SUB ADD DUP7 MSTORE DUP9 MLOAD DUP6 DUP1 PUSH1 0xA0 SHL SUB DUP2 MLOAD AND DUP3 MSTORE PUSH2 0x5A9 PUSH2 0x596 PUSH2 0x583 PUSH2 0x566 DUP8 DUP6 ADD MLOAD PUSH2 0x1A0 DUP1 DUP11 DUP10 ADD MSTORE DUP8 ADD SWAP1 PUSH2 0x2EDC JUMP JUMPDEST PUSH1 0x40 DUP6 ADD MLOAD PUSH1 0x40 DUP8 ADD MSTORE PUSH1 0x60 DUP1 DUP7 ADD MLOAD SWAP1 DUP8 DUP4 SUB SWAP1 DUP9 ADD MSTORE PUSH2 0x2EDC JUMP JUMPDEST PUSH1 0x80 DUP1 DUP6 ADD MLOAD SWAP1 DUP7 DUP4 SUB SWAP1 DUP8 ADD MSTORE PUSH2 0x30FC JUMP JUMPDEST PUSH1 0xA0 DUP1 DUP5 ADD MLOAD SWAP1 DUP6 DUP4 SUB SWAP1 DUP7 ADD MSTORE PUSH2 0x2EDC JUMP JUMPDEST SWAP2 PUSH1 0xC0 DUP1 DUP4 ADD MLOAD ISZERO ISZERO SWAP1 DUP3 ADD MSTORE PUSH1 0xE0 DUP3 ADD MLOAD ISZERO ISZERO PUSH1 0xE0 DUP3 ADD MSTORE PUSH2 0x100 DUP1 DUP4 ADD MLOAD ISZERO ISZERO SWAP1 DUP3 ADD MSTORE PUSH2 0x120 DUP1 DUP4 ADD MLOAD ISZERO ISZERO SWAP1 DUP3 ADD MSTORE PUSH2 0x140 DUP1 DUP4 ADD MLOAD ISZERO ISZERO SWAP1 DUP3 ADD MSTORE PUSH2 0x160 DUP1 DUP4 ADD MLOAD ISZERO ISZERO SWAP1 DUP3 ADD MSTORE PUSH2 0x180 DUP1 SWAP3 ADD MLOAD SWAP2 DUP2 DUP5 SUB SWAP2 ADD MSTORE PUSH2 0x2EDC JUMP JUMPDEST SWAP7 ADD SWAP3 ADD SWAP7 ADD SWAP6 SWAP3 SWAP2 SWAP1 SWAP3 PUSH2 0x517 JUMP JUMPDEST DUP1 PUSH2 0x626 PUSH2 0x670 SWAP3 PUSH2 0x308E JUMP JUMPDEST PUSH1 0x1 DUP1 PUSH1 0xA0 SHL SUB DUP1 SWAP3 SLOAD PUSH1 0x3 SWAP3 DUP4 SHL SHR AND PUSH1 0x0 MSTORE PUSH1 0x2 SWAP2 PUSH1 0x20 SWAP2 DUP4 DUP4 MSTORE PUSH1 0xFF PUSH1 0x6 SWAP1 DUP1 DUP3 PUSH1 0x40 PUSH1 0x0 KECCAK256 ADD SLOAD AND ISZERO SWAP2 DUP3 PUSH2 0x6EA JUMPI JUMPDEST DUP3 PUSH2 0x6BE JUMPI JUMPDEST POP POP PUSH2 0x675 JUMPI JUMPDEST POP POP POP POP PUSH2 0x33AF JUMP JUMPDEST PUSH2 0x4EA JUMP JUMPDEST PUSH2 0x67E DUP6 PUSH2 0x308E JUMP JUMPDEST SWAP1 SLOAD SWAP2 SHL SHR AND PUSH1 0x0 MSTORE MSTORE PUSH2 0x6B4 PUSH1 0x40 PUSH1 0x0 KECCAK256 SWAP4 PUSH2 0x6A3 PUSH2 0x69D DUP3 PUSH2 0x33AF JUMP JUMPDEST SWAP6 PUSH2 0x33E8 JUMP JUMPDEST PUSH2 0x6AD DUP3 DUP10 PUSH2 0x33D4 JUMP JUMPDEST MSTORE DUP7 PUSH2 0x33D4 JUMP JUMPDEST POP DUP6 DUP1 DUP1 DUP1 PUSH2 0x667 JUMP JUMPDEST SWAP1 SWAP2 POP DUP4 PUSH2 0x6CB DUP9 PUSH2 0x308E JUMP JUMPDEST SWAP1 SLOAD SWAP1 DUP6 SHL SHR AND PUSH1 0x0 MSTORE DUP6 DUP6 MSTORE PUSH1 0x40 PUSH1 0x0 KECCAK256 ADD SLOAD PUSH1 0x10 SHR AND DUP11 DUP1 PUSH2 0x660 JUMP JUMPDEST SWAP2 POP DUP4 PUSH2 0x6F6 DUP9 PUSH2 0x308E JUMP JUMPDEST SWAP1 SLOAD SWAP1 DUP6 SHL SHR AND PUSH1 0x0 MSTORE DUP6 DUP6 MSTORE DUP1 DUP3 PUSH1 0x40 PUSH1 0x0 KECCAK256 ADD SLOAD PUSH1 0x8 SHR AND SWAP2 PUSH2 0x65A JUMP JUMPDEST PUSH1 0x20 SWAP1 PUSH1 0x40 MLOAD PUSH2 0x725 DUP2 PUSH2 0x2DDD JUMP JUMPDEST PUSH1 0x0 DUP2 MSTORE PUSH1 0x60 DUP4 SWAP1 DUP1 DUP3 DUP5 ADD MSTORE PUSH1 0x0 PUSH1 0x40 DUP5 ADD MSTORE DUP1 DUP1 DUP5 ADD MSTORE DUP1 PUSH1 0x80 DUP5 ADD MSTORE DUP1 PUSH1 0xA0 DUP5 ADD MSTORE PUSH1 0x0 PUSH1 0xC0 DUP5 ADD MSTORE PUSH1 0x0 PUSH1 0xE0 DUP5 ADD MSTORE PUSH1 0x0 PUSH2 0x100 DUP5 ADD MSTORE PUSH1 0x0 PUSH2 0x120 DUP5 ADD MSTORE PUSH1 0x0 PUSH2 0x140 DUP5 ADD MSTORE PUSH1 0x0 PUSH2 0x160 DUP5 ADD MSTORE PUSH2 0x180 DUP4 ADD MSTORE DUP3 DUP8 ADD ADD MSTORE ADD PUSH2 0x4DD JUMP JUMPDEST PUSH2 0x792 DUP2 PUSH2 0x308E JUMP JUMPDEST SWAP1 PUSH1 0x1 DUP1 PUSH1 0xA0 SHL SUB DUP1 SWAP2 SLOAD PUSH1 0x3 SWAP4 DUP5 SHL SHR AND PUSH1 0x0 MSTORE PUSH1 0x2 SWAP1 PUSH1 0x20 SWAP2 DUP1 DUP4 MSTORE PUSH1 0xFF SWAP3 PUSH1 0x6 SWAP3 DUP5 DUP5 PUSH1 0x40 PUSH1 0x0 KECCAK256 ADD SLOAD AND ISZERO SWAP6 DUP7 PUSH2 0x82C JUMPI JUMPDEST DUP7 PUSH2 0x7FC JUMPI JUMPDEST POP POP POP POP POP POP PUSH2 0x7E7 JUMPI JUMPDEST PUSH2 0x7E2 SWAP1 PUSH2 0x33AF JUMP JUMPDEST PUSH2 0x4AB JUMP JUMPDEST SWAP2 PUSH2 0x7F4 PUSH2 0x7E2 SWAP2 PUSH2 0x33AF JUMP JUMPDEST SWAP3 SWAP1 POP PUSH2 0x7D9 JUMP JUMPDEST SWAP1 SWAP2 SWAP3 SWAP4 SWAP5 SWAP6 POP PUSH2 0x80C DUP8 PUSH2 0x308E JUMP JUMPDEST SWAP1 SLOAD SWAP2 SHL SHR AND PUSH1 0x0 MSTORE MSTORE PUSH1 0x40 PUSH1 0x0 KECCAK256 ADD SLOAD PUSH1 0x10 SHR AND DUP5 DUP1 DUP1 DUP1 DUP1 DUP1 PUSH2 0x7CE JUMP JUMPDEST SWAP6 POP DUP1 PUSH2 0x838 DUP9 PUSH2 0x308E JUMP JUMPDEST SWAP1 SLOAD SWAP1 DUP9 SHL SHR AND PUSH1 0x0 MSTORE DUP3 DUP3 MSTORE DUP5 DUP5 PUSH1 0x40 PUSH1 0x0 KECCAK256 ADD SLOAD PUSH1 0x8 SHR AND SWAP6 PUSH2 0x7C8 JUMP JUMPDEST CALLVALUE PUSH2 0x1C9 JUMPI PUSH1 0x20 CALLDATASIZE PUSH1 0x3 NOT ADD SLT PUSH2 0x1C9 JUMPI PUSH1 0x4 CALLDATALOAD PUSH1 0x7 SLOAD DUP2 LT ISZERO PUSH2 0x1C9 JUMPI PUSH1 0x7 PUSH1 0x0 MSTORE PUSH32 0xA66CC928B5EDB82AF9BD49922954155AB7B0942694BEA4CE44661D9A8736C688 ADD SLOAD PUSH1 0x40 MLOAD PUSH1 0x1 PUSH1 0x1 PUSH1 0xA0 SHL SUB SWAP1 SWAP2 AND DUP2 MSTORE PUSH1 0x20 SWAP1 RETURN JUMPDEST CALLVALUE PUSH2 0x1C9 JUMPI PUSH1 0xE0 CALLDATASIZE PUSH1 0x3 NOT ADD SLT PUSH2 0x1C9 JUMPI PUSH1 0x4 CALLDATALOAD PUSH1 0x1 PUSH1 0x1 PUSH1 0x40 SHL SUB DUP2 GT PUSH2 0x1C9 JUMPI PUSH2 0x8E3 SWAP1 CALLDATASIZE SWAP1 PUSH1 0x4 ADD PUSH2 0x2FF4 JUMP JUMPDEST PUSH1 0x24 CALLDATALOAD PUSH1 0x1 PUSH1 0x1 PUSH1 0x40 SHL SUB DUP2 GT PUSH2 0x1C9 JUMPI PUSH2 0x902 SWAP1 CALLDATASIZE SWAP1 PUSH1 0x4 ADD PUSH2 0x2FF4 JUMP JUMPDEST PUSH1 0x44 CALLDATALOAD PUSH1 0x1 PUSH1 0x1 PUSH1 0x40 SHL SUB DUP2 GT PUSH2 0x1C9 JUMPI PUSH2 0x921 SWAP1 CALLDATASIZE SWAP1 PUSH1 0x4 ADD PUSH2 0x2FF4 JUMP JUMPDEST PUSH1 0x64 CALLDATALOAD PUSH1 0x1 PUSH1 0x1 PUSH1 0x40 SHL SUB DUP2 GT PUSH2 0x1C9 JUMPI PUSH2 0x940 SWAP1 CALLDATASIZE SWAP1 PUSH1 0x4 ADD PUSH2 0x2FF4 JUMP JUMPDEST PUSH1 0x84 CALLDATALOAD PUSH1 0x1 PUSH1 0x1 PUSH1 0x40 SHL SUB DUP2 GT PUSH2 0x1C9 JUMPI PUSH2 0x95F SWAP1 CALLDATASIZE SWAP1 PUSH1 0x4 ADD PUSH2 0x2FF4 JUMP JUMPDEST SWAP2 PUSH1 0xA4 CALLDATALOAD PUSH1 0x1 PUSH1 0x1 PUSH1 0x40 SHL SUB DUP2 GT PUSH2 0x1C9 JUMPI PUSH2 0x97F SWAP1 CALLDATASIZE SWAP1 PUSH1 0x4 ADD PUSH2 0x2FF4 JUMP JUMPDEST SWAP4 PUSH2 0x98C DUP7 MLOAD ISZERO ISZERO PUSH2 0x313E JUMP JUMPDEST PUSH2 0x998 DUP2 MLOAD ISZERO ISZERO PUSH2 0x324D JUMP JUMPDEST DUP2 MLOAD ISZERO PUSH2 0x1222 JUMPI DUP3 MLOAD ISZERO PUSH2 0x11E7 JUMPI PUSH2 0x9B2 DUP5 MLOAD ISZERO ISZERO PUSH2 0x317D JUMP JUMPDEST PUSH1 0xC4 CALLDATALOAD ISZERO PUSH2 0x11A2 JUMPI PUSH1 0x40 MLOAD SWAP6 PUSH2 0x9C7 DUP8 PUSH2 0x2DF9 JUMP JUMPDEST CALLER DUP8 MSTORE PUSH1 0x20 DUP8 ADD MSTORE PUSH1 0xC4 CALLDATALOAD PUSH1 0x40 DUP8 ADD MSTORE PUSH1 0x60 DUP7 ADD MSTORE PUSH1 0x80 DUP6 ADD MSTORE PUSH1 0xA0 DUP5 ADD MSTORE PUSH1 0xC0 DUP4 ADD MSTORE PUSH1 0x0 PUSH1 0xE0 DUP4 ADD MSTORE PUSH1 0x0 PUSH2 0x100 DUP4 ADD MSTORE PUSH1 0x0 PUSH2 0x120 DUP4 ADD MSTORE PUSH1 0x0 PUSH2 0x140 DUP4 ADD MSTORE PUSH2 0x160 DUP3 ADD MSTORE CALLER PUSH1 0x0 MSTORE PUSH1 0x3 PUSH1 0x20 MSTORE PUSH1 0x40 PUSH1 0x0 KECCAK256 PUSH1 0x1 DUP1 PUSH1 0xA0 SHL SUB DUP3 MLOAD AND PUSH1 0x1 PUSH1 0x1 PUSH1 0x60 SHL SUB PUSH1 0xA0 SHL DUP3 SLOAD AND OR DUP2 SSTORE PUSH1 0x20 DUP3 ADD MLOAD SWAP2 DUP3 MLOAD PUSH1 0x1 PUSH1 0x1 PUSH1 0x40 SHL SUB DUP2 GT PUSH2 0xD72 JUMPI PUSH2 0xA5C PUSH1 0x1 DUP5 ADD SLOAD PUSH2 0x2DA3 JUMP JUMPDEST PUSH1 0x1F DUP2 GT PUSH2 0x116D JUMPI JUMPDEST POP PUSH1 0x20 PUSH1 0x1F DUP3 GT PUSH1 0x1 EQ PUSH2 0x10FF JUMPI DUP2 SWAP3 SWAP4 SWAP5 PUSH1 0x0 SWAP3 PUSH2 0x10F4 JUMPI JUMPDEST POP POP DUP2 PUSH1 0x1 SHL SWAP2 PUSH1 0x0 NOT SWAP1 PUSH1 0x3 SHL SHR NOT AND OR PUSH1 0x1 DUP4 ADD SSTORE JUMPDEST PUSH1 0x40 DUP2 ADD MLOAD PUSH1 0x2 DUP4 ADD SSTORE PUSH1 0x60 DUP2 ADD MLOAD SWAP2 DUP3 MLOAD PUSH1 0x1 PUSH1 0x1 PUSH1 0x40 SHL SUB DUP2 GT PUSH2 0xD72 JUMPI PUSH2 0xAC4 PUSH1 0x3 DUP4 ADD SLOAD PUSH2 0x2DA3 JUMP JUMPDEST PUSH1 0x1F DUP2 GT PUSH2 0x10BF JUMPI JUMPDEST POP PUSH1 0x20 PUSH1 0x1F DUP3 GT PUSH1 0x1 EQ PUSH2 0x1051 JUMPI DUP2 SWAP3 SWAP4 SWAP5 PUSH1 0x0 SWAP3 PUSH2 0x1046 JUMPI JUMPDEST POP POP DUP2 PUSH1 0x1 SHL SWAP2 PUSH1 0x0 NOT SWAP1 PUSH1 0x3 SHL SHR NOT AND OR PUSH1 0x3 DUP3 ADD SSTORE JUMPDEST PUSH1 0x80 DUP3 ADD MLOAD SWAP2 DUP3 MLOAD PUSH1 0x1 PUSH1 0x1 PUSH1 0x40 SHL SUB DUP2 GT PUSH2 0xD72 JUMPI PUSH2 0xB22 PUSH1 0x4 DUP5 ADD SLOAD PUSH2 0x2DA3 JUMP JUMPDEST PUSH1 0x1F DUP2 GT PUSH2 0x1011 JUMPI JUMPDEST POP PUSH1 0x20 PUSH1 0x1F DUP3 GT PUSH1 0x1 EQ PUSH2 0xFA3 JUMPI DUP2 SWAP3 SWAP4 SWAP5 PUSH1 0x0 SWAP3 PUSH2 0xF98 JUMPI JUMPDEST POP POP DUP2 PUSH1 0x1 SHL SWAP2 PUSH1 0x0 NOT SWAP1 PUSH1 0x3 SHL SHR NOT AND OR PUSH1 0x4 DUP4 ADD SSTORE JUMPDEST PUSH1 0xA0 DUP2 ADD MLOAD SWAP2 DUP3 MLOAD PUSH1 0x1 PUSH1 0x1 PUSH1 0x40 SHL SUB DUP2 GT PUSH2 0xD72 JUMPI PUSH2 0xB80 PUSH1 0x5 DUP4 ADD SLOAD PUSH2 0x2DA3 JUMP JUMPDEST PUSH1 0x1F DUP2 GT PUSH2 0xF63 JUMPI JUMPDEST POP PUSH1 0x20 PUSH1 0x1F DUP3 GT PUSH1 0x1 EQ PUSH2 0xEF5 JUMPI DUP2 SWAP3 SWAP4 SWAP5 PUSH1 0x0 SWAP3 PUSH2 0xEEA JUMPI JUMPDEST POP POP DUP2 PUSH1 0x1 SHL SWAP2 PUSH1 0x0 NOT SWAP1 PUSH1 0x3 SHL SHR NOT AND OR PUSH1 0x5 DUP3 ADD SSTORE JUMPDEST PUSH1 0xC0 DUP3 ADD MLOAD DUP1 MLOAD SWAP1 PUSH1 0x1 PUSH1 0x1 PUSH1 0x40 SHL SUB DUP3 GT PUSH2 0xD72 JUMPI PUSH2 0xBDE PUSH1 0x6 DUP5 ADD SLOAD PUSH2 0x2DA3 JUMP JUMPDEST PUSH1 0x1F DUP2 GT PUSH2 0xEB5 JUMPI JUMPDEST POP PUSH1 0x20 SWAP1 PUSH1 0x1F DUP4 GT PUSH1 0x1 EQ PUSH2 0xE3F JUMPI SWAP2 DUP1 PUSH2 0x160 SWAP5 SWAP3 PUSH1 0x8 SWAP5 PUSH1 0x0 SWAP3 PUSH2 0xE34 JUMPI JUMPDEST POP POP DUP2 PUSH1 0x1 SHL SWAP2 PUSH1 0x0 NOT SWAP1 PUSH1 0x3 SHL SHR NOT AND OR PUSH1 0x6 DUP3 ADD SSTORE JUMPDEST PUSH2 0xC99 PUSH1 0x7 DUP3 ADD PUSH2 0xC43 PUSH1 0xE0 DUP8 ADD MLOAD ISZERO ISZERO DUP3 SWAP1 PUSH1 0xFF DUP1 NOT DUP4 SLOAD AND SWAP2 ISZERO ISZERO AND OR SWAP1 SSTORE JUMP JUMPDEST PUSH2 0x100 DUP7 ADD MLOAD DUP2 SLOAD PUSH2 0xFF00 NOT AND SWAP1 ISZERO ISZERO PUSH1 0x8 SHL PUSH2 0xFF00 AND OR DUP2 SSTORE PUSH2 0x120 DUP7 ADD MLOAD DUP2 SLOAD PUSH3 0xFF0000 NOT AND SWAP1 ISZERO ISZERO PUSH1 0x10 SHL PUSH3 0xFF0000 AND OR DUP2 SSTORE PUSH2 0x140 DUP7 ADD MLOAD DUP2 SLOAD PUSH4 0xFF000000 NOT AND SWAP1 ISZERO ISZERO PUSH1 0x18 SHL PUSH4 0xFF000000 AND OR SWAP1 SSTORE JUMP JUMPDEST ADD SWAP2 ADD MLOAD SWAP1 DUP2 MLOAD PUSH1 0x1 PUSH1 0x1 PUSH1 0x40 SHL SUB DUP2 GT PUSH2 0xD72 JUMPI PUSH2 0xCB8 DUP3 SLOAD PUSH2 0x2DA3 JUMP JUMPDEST PUSH1 0x1F DUP2 GT PUSH2 0xDF7 JUMPI JUMPDEST POP PUSH1 0x20 SWAP3 PUSH1 0x1F DUP3 GT PUSH1 0x1 EQ PUSH2 0xD93 JUMPI SWAP3 DUP2 SWAP3 SWAP4 PUSH1 0x0 SWAP3 PUSH2 0xD88 JUMPI JUMPDEST POP POP DUP2 PUSH1 0x1 SHL SWAP2 PUSH1 0x0 NOT SWAP1 PUSH1 0x3 SHL SHR NOT AND OR SWAP1 SSTORE JUMPDEST CALLER PUSH1 0x0 MSTORE PUSH1 0x1 PUSH1 0x20 MSTORE PUSH1 0x40 PUSH1 0x0 KECCAK256 PUSH1 0x2 PUSH1 0xFF NOT DUP3 SLOAD AND OR SWAP1 SSTORE PUSH1 0x6 SLOAD PUSH1 0x1 PUSH1 0x40 SHL DUP2 LT ISZERO PUSH2 0xD72 JUMPI PUSH1 0x1 DUP2 ADD DUP1 PUSH1 0x6 SSTORE DUP2 LT ISZERO PUSH2 0xD5C JUMPI PUSH32 0xF652222313E28459528D920B65115C16C04F3EFC82AAEDC97BE59F3F377C0D3F ADD DUP1 SLOAD PUSH1 0x1 PUSH1 0x1 PUSH1 0xA0 SHL SUB NOT AND CALLER OR SWAP1 SSTORE STOP JUMPDEST PUSH4 0x4E487B71 PUSH1 0xE0 SHL PUSH1 0x0 MSTORE PUSH1 0x32 PUSH1 0x4 MSTORE PUSH1 0x24 PUSH1 0x0 REVERT JUMPDEST PUSH4 0x4E487B71 PUSH1 0xE0 SHL PUSH1 0x0 MSTORE PUSH1 0x41 PUSH1 0x4 MSTORE PUSH1 0x24 PUSH1 0x0 REVERT JUMPDEST ADD MLOAD SWAP1 POP DUP4 DUP1 PUSH2 0xCDC JUMP JUMPDEST PUSH1 0x1F NOT DUP3 AND SWAP4 DUP4 PUSH1 0x0 MSTORE PUSH1 0x20 PUSH1 0x0 KECCAK256 SWAP2 PUSH1 0x0 JUMPDEST DUP7 DUP2 LT PUSH2 0xDDF JUMPI POP DUP4 PUSH1 0x1 SWAP6 SWAP7 LT PUSH2 0xDC6 JUMPI JUMPDEST POP POP POP DUP2 SHL ADD SWAP1 SSTORE PUSH2 0xCF1 JUMP JUMPDEST ADD MLOAD PUSH1 0x0 NOT PUSH1 0xF8 DUP5 PUSH1 0x3 SHL AND SHR NOT AND SWAP1 SSTORE DUP4 DUP1 DUP1 PUSH2 0xDB9 JUMP JUMPDEST SWAP2 SWAP3 PUSH1 0x20 PUSH1 0x1 DUP2 SWAP3 DUP7 DUP6 ADD MLOAD DUP2 SSTORE ADD SWAP5 ADD SWAP3 ADD PUSH2 0xDA6 JUMP JUMPDEST PUSH2 0xE24 SWAP1 DUP4 PUSH1 0x0 MSTORE PUSH1 0x20 PUSH1 0x0 KECCAK256 PUSH1 0x1F DUP5 ADD PUSH1 0x5 SHR DUP2 ADD SWAP2 PUSH1 0x20 DUP6 LT PUSH2 0xE2A JUMPI JUMPDEST PUSH1 0x1F ADD PUSH1 0x5 SHR ADD SWAP1 PUSH2 0x31C0 JUMP JUMPDEST DUP4 PUSH2 0xCC1 JUMP JUMPDEST SWAP1 SWAP2 POP DUP2 SWAP1 PUSH2 0xE17 JUMP JUMPDEST ADD MLOAD SWAP1 POP DUP7 DUP1 PUSH2 0xC08 JUMP JUMPDEST SWAP1 PUSH1 0x6 DUP5 ADD PUSH1 0x0 MSTORE PUSH1 0x20 PUSH1 0x0 KECCAK256 SWAP2 PUSH1 0x0 JUMPDEST PUSH1 0x1F NOT DUP6 AND DUP2 LT PUSH2 0xE9D JUMPI POP SWAP3 PUSH2 0x160 SWAP5 SWAP3 PUSH1 0x1 SWAP3 PUSH1 0x8 SWAP6 DUP4 PUSH1 0x1F NOT DUP2 AND LT PUSH2 0xE84 JUMPI JUMPDEST POP POP POP DUP2 SHL ADD PUSH1 0x6 DUP3 ADD SSTORE PUSH2 0xC20 JUMP JUMPDEST ADD MLOAD PUSH1 0x0 NOT PUSH1 0xF8 DUP5 PUSH1 0x3 SHL AND SHR NOT AND SWAP1 SSTORE DUP7 DUP1 DUP1 PUSH2 0xE74 JUMP JUMPDEST SWAP2 SWAP3 PUSH1 0x20 PUSH1 0x1 DUP2 SWAP3 DUP7 DUP6 ADD MLOAD DUP2 SSTORE ADD SWAP5 ADD SWAP3 ADD PUSH2 0xE50 JUMP JUMPDEST PUSH2 0xEE4 SWAP1 PUSH1 0x6 DUP6 ADD PUSH1 0x0 MSTORE PUSH1 0x20 PUSH1 0x0 KECCAK256 PUSH1 0x1F DUP6 ADD PUSH1 0x5 SHR DUP2 ADD SWAP2 PUSH1 0x20 DUP7 LT PUSH2 0xE2A JUMPI PUSH1 0x1F ADD PUSH1 0x5 SHR ADD SWAP1 PUSH2 0x31C0 JUMP JUMPDEST DUP5 PUSH2 0xBE7 JUMP JUMPDEST ADD MLOAD SWAP1 POP DUP5 DUP1 PUSH2 0xBA3 JUMP JUMPDEST PUSH1 0x5 DUP4 ADD PUSH1 0x0 MSTORE PUSH1 0x20 PUSH1 0x0 KECCAK256 SWAP1 PUSH1 0x0 JUMPDEST PUSH1 0x1F NOT DUP5 AND DUP2 LT PUSH2 0xF4B JUMPI POP PUSH1 0x1 SWAP4 SWAP5 SWAP6 DUP4 PUSH1 0x1F NOT DUP2 AND LT PUSH2 0xF32 JUMPI JUMPDEST POP POP POP DUP2 SHL ADD PUSH1 0x5 DUP3 ADD SSTORE PUSH2 0xBBB JUMP JUMPDEST ADD MLOAD PUSH1 0x0 NOT PUSH1 0xF8 DUP5 PUSH1 0x3 SHL AND SHR NOT AND SWAP1 SSTORE DUP5 DUP1 DUP1 PUSH2 0xF22 JUMP JUMPDEST SWAP1 SWAP2 PUSH1 0x20 PUSH1 0x1 DUP2 SWAP3 DUP6 DUP11 ADD MLOAD DUP2 SSTORE ADD SWAP4 ADD SWAP2 ADD PUSH2 0xF05 JUMP JUMPDEST PUSH2 0xF92 SWAP1 PUSH1 0x5 DUP5 ADD PUSH1 0x0 MSTORE PUSH1 0x20 PUSH1 0x0 KECCAK256 PUSH1 0x1F DUP5 ADD PUSH1 0x5 SHR DUP2 ADD SWAP2 PUSH1 0x20 DUP6 LT PUSH2 0xE2A JUMPI PUSH1 0x1F ADD PUSH1 0x5 SHR ADD SWAP1 PUSH2 0x31C0 JUMP JUMPDEST DUP5 PUSH2 0xB89 JUMP JUMPDEST ADD MLOAD SWAP1 POP DUP5 DUP1 PUSH2 0xB45 JUMP JUMPDEST PUSH1 0x4 DUP5 ADD PUSH1 0x0 MSTORE PUSH1 0x20 PUSH1 0x0 KECCAK256 SWAP1 PUSH1 0x0 JUMPDEST PUSH1 0x1F NOT DUP5 AND DUP2 LT PUSH2 0xFF9 JUMPI POP PUSH1 0x1 SWAP4 SWAP5 SWAP6 DUP4 PUSH1 0x1F NOT DUP2 AND LT PUSH2 0xFE0 JUMPI JUMPDEST POP POP POP DUP2 SHL ADD PUSH1 0x4 DUP4 ADD SSTORE PUSH2 0xB5D JUMP JUMPDEST ADD MLOAD PUSH1 0x0 NOT PUSH1 0xF8 DUP5 PUSH1 0x3 SHL AND SHR NOT AND SWAP1 SSTORE DUP5 DUP1 DUP1 PUSH2 0xFD0 JUMP JUMPDEST SWAP1 SWAP2 PUSH1 0x20 PUSH1 0x1 DUP2 SWAP3 DUP6 DUP11 ADD MLOAD DUP2 SSTORE ADD SWAP4 ADD SWAP2 ADD PUSH2 0xFB3 JUMP JUMPDEST PUSH2 0x1040 SWAP1 PUSH1 0x4 DUP6 ADD PUSH1 0x0 MSTORE PUSH1 0x20 PUSH1 0x0 KECCAK256 PUSH1 0x1F DUP5 ADD PUSH1 0x5 SHR DUP2 ADD SWAP2 PUSH1 0x20 DUP6 LT PUSH2 0xE2A JUMPI PUSH1 0x1F ADD PUSH1 0x5 SHR ADD SWAP1 PUSH2 0x31C0 JUMP JUMPDEST DUP5 PUSH2 0xB2B JUMP JUMPDEST ADD MLOAD SWAP1 POP DUP5 DUP1 PUSH2 0xAE7 JUMP JUMPDEST PUSH1 0x3 DUP4 ADD PUSH1 0x0 MSTORE PUSH1 0x20 PUSH1 0x0 KECCAK256 SWAP1 PUSH1 0x0 JUMPDEST PUSH1 0x1F NOT DUP5 AND DUP2 LT PUSH2 0x10A7 JUMPI POP PUSH1 0x1 SWAP4 SWAP5 SWAP6 DUP4 PUSH1 0x1F NOT DUP2 AND LT PUSH2 0x108E JUMPI JUMPDEST POP POP POP DUP2 SHL ADD PUSH1 0x3 DUP3 ADD SSTORE PUSH2 0xAFF JUMP JUMPDEST ADD MLOAD PUSH1 0x0 NOT PUSH1 0xF8 DUP5 PUSH1 0x3 SHL AND SHR NOT AND SWAP1 SSTORE DUP5 DUP1 DUP1 PUSH2 0x107E JUMP JUMPDEST SWAP1 SWAP2 PUSH1 0x20 PUSH1 0x1 DUP2 SWAP3 DUP6 DUP11 ADD MLOAD DUP2 SSTORE ADD SWAP4 ADD SWAP2 ADD PUSH2 0x1061 JUMP JUMPDEST PUSH2 0x10EE SWAP1 PUSH1 0x3 DUP5 ADD PUSH1 0x0 MSTORE PUSH1 0x20 PUSH1 0x0 KECCAK256 PUSH1 0x1F DUP5 ADD PUSH1 0x5 SHR DUP2 ADD SWAP2 PUSH1 0x20 DUP6 LT PUSH2 0xE2A JUMPI PUSH1 0x1F ADD PUSH1 0x5 SHR ADD SWAP1 PUSH2 0x31C0 JUMP JUMPDEST DUP5 PUSH2 0xACD JUMP JUMPDEST ADD MLOAD SWAP1 POP DUP5 DUP1 PUSH2 0xA7F JUMP JUMPDEST PUSH1 0x1 DUP5 ADD PUSH1 0x0 MSTORE PUSH1 0x20 PUSH1 0x0 KECCAK256 SWAP1 PUSH1 0x0 JUMPDEST PUSH1 0x1F NOT DUP5 AND DUP2 LT PUSH2 0x1155 JUMPI POP PUSH1 0x1 SWAP4 SWAP5 SWAP6 DUP4 PUSH1 0x1F NOT DUP2 AND LT PUSH2 0x113C JUMPI JUMPDEST POP POP POP DUP2 SHL ADD PUSH1 0x1 DUP4 ADD SSTORE PUSH2 0xA97 JUMP JUMPDEST ADD MLOAD PUSH1 0x0 NOT PUSH1 0xF8 DUP5 PUSH1 0x3 SHL AND SHR NOT AND SWAP1 SSTORE DUP5 DUP1 DUP1 PUSH2 0x112C JUMP JUMPDEST SWAP1 SWAP2 PUSH1 0x20 PUSH1 0x1 DUP2 SWAP3 DUP6 DUP11 ADD MLOAD DUP2 SSTORE ADD SWAP4 ADD SWAP2 ADD PUSH2 0x110F JUMP JUMPDEST PUSH2 0x119C SWAP1 PUSH1 0x1 DUP6 ADD PUSH1 0x0 MSTORE PUSH1 0x20 PUSH1 0x0 KECCAK256 PUSH1 0x1F DUP5 ADD PUSH1 0x5 SHR DUP2 ADD SWAP2 PUSH1 0x20 DUP6 LT PUSH2 0xE2A JUMPI PUSH1 0x1F ADD PUSH1 0x5 SHR ADD SWAP1 PUSH2 0x31C0 JUMP JUMPDEST DUP5 PUSH2 0xA65 JUMP JUMPDEST PUSH1 0x40 MLOAD PUSH3 0x461BCD PUSH1 0xE5 SHL DUP2 MSTORE PUSH1 0x20 PUSH1 0x4 DUP3 ADD MSTORE PUSH1 0x1A PUSH1 0x24 DUP3 ADD MSTORE PUSH32 0x416765206D7573742062652067726561746572207468616E2030000000000000 PUSH1 0x44 DUP3 ADD MSTORE PUSH1 0x64 SWAP1 REVERT JUMPDEST PUSH1 0x40 MLOAD PUSH3 0x461BCD PUSH1 0xE5 SHL DUP2 MSTORE PUSH1 0x20 PUSH1 0x4 DUP3 ADD MSTORE PUSH1 0x13 PUSH1 0x24 DUP3 ADD MSTORE PUSH19 0x155C99D95B98DE481A5CC81C995C5D5A5C9959 PUSH1 0x6A SHL PUSH1 0x44 DUP3 ADD MSTORE PUSH1 0x64 SWAP1 REVERT JUMPDEST PUSH1 0x40 MLOAD PUSH3 0x461BCD PUSH1 0xE5 SHL DUP2 MSTORE PUSH1 0x20 PUSH1 0x4 DUP3 ADD MSTORE PUSH1 0x18 PUSH1 0x24 DUP3 ADD MSTORE PUSH32 0x4E6565646564206F7267616E2069732072657175697265640000000000000000 PUSH1 0x44 DUP3 ADD MSTORE PUSH1 0x64 SWAP1 REVERT JUMPDEST CALLVALUE PUSH2 0x1C9 JUMPI PUSH1 0x20 CALLDATASIZE PUSH1 0x3 NOT ADD SLT PUSH2 0x1C9 JUMPI PUSH2 0x1280 PUSH2 0x2D8D JUMP JUMPDEST CALLER PUSH1 0x0 MSTORE PUSH1 0x1 PUSH1 0x20 MSTORE PUSH2 0x12A6 PUSH1 0x3 PUSH1 0xFF PUSH1 0x40 PUSH1 0x0 KECCAK256 SLOAD AND PUSH2 0x12A0 DUP2 PUSH2 0x30DC JUMP JUMPDEST EQ PUSH2 0x31D7 JUMP JUMPDEST PUSH1 0x1 PUSH1 0x1 PUSH1 0xA0 SHL SUB AND PUSH1 0x0 DUP2 DUP2 MSTORE PUSH1 0x2 PUSH1 0x20 MSTORE PUSH1 0x40 DUP2 KECCAK256 PUSH1 0x6 ADD DUP1 SLOAD PUSH6 0xFF0000000000 NOT AND PUSH6 0x10000000000 OR SWAP1 SSTORE PUSH32 0xD3246DED9638F3A0C0BA5C93A9A153D20C9176E5C705E1E0A3F7E92E0CB0500B SWAP1 DUP1 LOG2 STOP JUMPDEST CALLVALUE PUSH2 0x1C9 JUMPI PUSH1 0x20 CALLDATASIZE PUSH1 0x3 NOT ADD SLT PUSH2 0x1C9 JUMPI PUSH1 0x4 CALLDATALOAD PUSH1 0x6 SLOAD DUP2 LT ISZERO PUSH2 0x1C9 JUMPI PUSH1 0x6 PUSH1 0x0 MSTORE PUSH32 0xF652222313E28459528D920B65115C16C04F3EFC82AAEDC97BE59F3F377C0D3F ADD SLOAD PUSH1 0x40 MLOAD PUSH1 0x1 PUSH1 0x1 PUSH1 0xA0 SHL SUB SWAP1 SWAP2 AND DUP2 MSTORE PUSH1 0x20 SWAP1 RETURN JUMPDEST CALLVALUE PUSH2 0x1C9 JUMPI PUSH1 0x20 CALLDATASIZE PUSH1 0x3 NOT ADD SLT PUSH2 0x1C9 JUMPI PUSH1 0x1 PUSH1 0x1 PUSH1 0xA0 SHL SUB DUP1 PUSH2 0x1378 PUSH2 0x2D8D JUMP JUMPDEST AND DUP1 PUSH1 0x0 MSTORE PUSH1 0x1 PUSH1 0x20 MSTORE PUSH1 0x1 PUSH1 0xFF PUSH1 0x40 PUSH1 0x0 KECCAK256 SLOAD AND PUSH2 0x1396 DUP2 PUSH2 0x30DC JUMP JUMPDEST SUB PUSH2 0x1497 JUMPI PUSH1 0x0 MSTORE PUSH1 0x2 PUSH1 0x20 MSTORE PUSH1 0x40 PUSH1 0x0 KECCAK256 PUSH2 0x13B1 SWAP1 PUSH2 0x33E8 JUMP JUMPDEST SWAP1 DUP2 MLOAD AND PUSH1 0x20 DUP3 ADD MLOAD SWAP2 PUSH1 0x40 DUP2 ADD MLOAD SWAP1 PUSH1 0x60 DUP2 ADD MLOAD SWAP1 PUSH1 0x80 DUP2 ADD MLOAD SWAP2 PUSH1 0xA0 DUP3 ADD MLOAD SWAP3 PUSH1 0xC0 DUP4 ADD MLOAD ISZERO ISZERO SWAP4 PUSH1 0xE0 DUP5 ADD MLOAD ISZERO ISZERO PUSH2 0x100 DUP6 ADD MLOAD ISZERO ISZERO SWAP2 PUSH2 0x120 DUP7 ADD MLOAD ISZERO ISZERO SWAP4 PUSH2 0x140 DUP8 ADD MLOAD ISZERO ISZERO SWAP6 PUSH2 0x160 DUP9 ADD MLOAD ISZERO ISZERO SWAP8 PUSH2 0x180 ADD MLOAD SWAP10 PUSH1 0x40 MLOAD SWAP13 DUP14 SWAP13 DUP14 MSTORE DUP13 PUSH2 0x1A0 PUSH1 0x20 DUP2 SWAP3 ADD MSTORE DUP14 ADD PUSH2 0x1429 SWAP2 PUSH2 0x2EDC JUMP JUMPDEST SWAP1 PUSH1 0x40 DUP14 ADD MSTORE DUP12 DUP2 SUB PUSH1 0x60 DUP14 ADD MSTORE PUSH2 0x1440 SWAP2 PUSH2 0x2EDC JUMP JUMPDEST DUP11 DUP2 SUB PUSH1 0x80 DUP13 ADD MSTORE PUSH2 0x1451 SWAP2 PUSH2 0x30FC JUMP JUMPDEST DUP10 DUP2 SUB PUSH1 0xA0 DUP12 ADD MSTORE PUSH2 0x1462 SWAP2 PUSH2 0x2EDC JUMP JUMPDEST SWAP6 PUSH1 0xC0 DUP10 ADD MSTORE PUSH1 0xE0 DUP9 ADD MSTORE PUSH2 0x100 DUP8 ADD MSTORE PUSH2 0x120 DUP7 ADD MSTORE PUSH2 0x140 DUP6 ADD MSTORE PUSH2 0x160 DUP5 ADD MSTORE DUP3 DUP2 SUB PUSH2 0x180 DUP5 ADD MSTORE PUSH2 0x327 SWAP2 PUSH2 0x2EDC JUMP JUMPDEST PUSH1 0x40 MLOAD PUSH3 0x461BCD PUSH1 0xE5 SHL DUP2 MSTORE PUSH1 0x20 PUSH1 0x4 DUP3 ADD MSTORE PUSH1 0x21 PUSH1 0x24 DUP3 ADD MSTORE PUSH32 0x41646472657373206973206E6F742061207265676973746572656420646F6E6F PUSH1 0x44 DUP3 ADD MSTORE PUSH1 0x39 PUSH1 0xF9 SHL PUSH1 0x64 DUP3 ADD MSTORE PUSH1 0x84 SWAP1 REVERT JUMPDEST CALLVALUE PUSH2 0x1C9 JUMPI PUSH1 0x20 CALLDATASIZE PUSH1 0x3 NOT ADD SLT PUSH2 0x1C9 JUMPI PUSH2 0x14FF PUSH2 0x2D8D JUMP JUMPDEST CALLER PUSH1 0x0 MSTORE PUSH1 0x1 PUSH1 0x20 MSTORE PUSH2 0x151F PUSH1 0x3 PUSH1 0xFF PUSH1 0x40 PUSH1 0x0 KECCAK256 SLOAD AND PUSH2 0x12A0 DUP2 PUSH2 0x30DC JUMP JUMPDEST PUSH1 0x1 PUSH1 0x1 PUSH1 0xA0 SHL SUB AND PUSH1 0x0 DUP2 DUP2 MSTORE PUSH1 0x1 PUSH1 0x20 MSTORE PUSH1 0x40 SWAP1 KECCAK256 SLOAD PUSH2 0x1550 SWAP1 PUSH1 0x4 SWAP1 PUSH1 0xFF AND PUSH2 0x154A DUP2 PUSH2 0x30DC JUMP JUMPDEST EQ PUSH2 0x3210 JUMP JUMPDEST DUP1 PUSH1 0x0 MSTORE PUSH1 0x4 PUSH1 0x20 MSTORE PUSH1 0x3 PUSH1 0x40 PUSH1 0x0 KECCAK256 ADD PUSH1 0xFF NOT DUP2 SLOAD AND SWAP1 SSTORE PUSH32 0x15ADB08B0C08C5F6CE96550BC504BAABA1B761F1711211EC68416EEF11ED55E5 PUSH1 0x0 DUP1 LOG2 STOP JUMPDEST CALLVALUE PUSH2 0x1C9 JUMPI PUSH1 0x20 DUP1 PUSH1 0x3 NOT CALLDATASIZE ADD SLT PUSH2 0x1C9 JUMPI PUSH2 0x15AA PUSH2 0x2D8D JUMP JUMPDEST CALLER PUSH1 0x0 MSTORE PUSH1 0x1 DUP3 MSTORE PUSH2 0x15C9 PUSH1 0x3 PUSH1 0xFF PUSH1 0x40 PUSH1 0x0 KECCAK256 SLOAD AND PUSH2 0x12A0 DUP2 PUSH2 0x30DC JUMP JUMPDEST PUSH1 0x1 DUP1 PUSH1 0xA0 SHL SUB AND SWAP1 DUP2 PUSH1 0x0 MSTORE PUSH1 0x1 DUP2 MSTORE PUSH1 0x1 PUSH1 0xFF PUSH1 0x40 PUSH1 0x0 KECCAK256 SLOAD AND PUSH2 0x15EE DUP2 PUSH2 0x30DC JUMP JUMPDEST SUB PUSH2 0x163E JUMPI PUSH1 0x2 SWAP1 DUP3 PUSH1 0x0 MSTORE MSTORE PUSH1 0x6 PUSH1 0x40 PUSH1 0x0 KECCAK256 ADD PUSH5 0x100000000 PUSH5 0xFF00000000 NOT DUP3 SLOAD AND OR SWAP1 SSTORE JUMPDEST PUSH32 0xAEA35FC9A27361ABA75788B01D0206DBE6018A2061BA0C177D99B2B18DD37289 PUSH1 0x0 DUP1 LOG2 STOP JUMPDEST DUP2 PUSH1 0x0 MSTORE PUSH1 0x1 DUP2 MSTORE PUSH1 0x2 PUSH1 0xFF PUSH1 0x40 PUSH1 0x0 KECCAK256 SLOAD AND PUSH2 0x165A DUP2 PUSH2 0x30DC JUMP JUMPDEST EQ PUSH2 0x1666 JUMPI JUMPDEST POP PUSH2 0x1617 JUMP JUMPDEST PUSH1 0x3 SWAP1 DUP3 PUSH1 0x0 MSTORE MSTORE PUSH1 0x7 PUSH1 0x40 PUSH1 0x0 KECCAK256 ADD PUSH4 0x1000000 PUSH4 0xFF000000 NOT DUP3 SLOAD AND OR SWAP1 SSTORE DUP2 PUSH2 0x1660 JUMP JUMPDEST CALLVALUE PUSH2 0x1C9 JUMPI PUSH1 0x20 CALLDATASIZE PUSH1 0x3 NOT ADD SLT PUSH2 0x1C9 JUMPI PUSH1 0x1 PUSH1 0x1 PUSH1 0xA0 SHL SUB PUSH2 0x16AE PUSH2 0x2D8D JUMP JUMPDEST AND PUSH1 0x0 MSTORE PUSH1 0x1 PUSH1 0x20 MSTORE PUSH1 0x20 PUSH1 0xFF PUSH1 0x40 PUSH1 0x0 KECCAK256 SLOAD AND PUSH1 0x40 MLOAD SWAP1 PUSH2 0x16CF DUP2 PUSH2 0x30DC JUMP JUMPDEST DUP2 MSTORE RETURN JUMPDEST CALLVALUE PUSH2 0x1C9 JUMPI PUSH1 0x0 CALLDATASIZE PUSH1 0x3 NOT ADD SLT PUSH2 0x1C9 JUMPI PUSH1 0x0 SLOAD PUSH1 0x40 MLOAD PUSH1 0x1 PUSH1 0x1 PUSH1 0xA0 SHL SUB SWAP1 SWAP2 AND DUP2 MSTORE PUSH1 0x20 SWAP1 RETURN JUMPDEST CALLVALUE PUSH2 0x1C9 JUMPI PUSH1 0x40 CALLDATASIZE PUSH1 0x3 NOT ADD SLT PUSH2 0x1C9 JUMPI PUSH2 0x1715 PUSH2 0x2D8D JUMP JUMPDEST PUSH1 0x1 PUSH1 0x1 PUSH1 0xA0 SHL SUB PUSH1 0x24 CALLDATALOAD DUP2 DUP2 AND SWAP3 SWAP1 DUP4 SWAP1 SUB PUSH2 0x1C9 JUMPI CALLER PUSH1 0x0 MSTORE PUSH1 0x1 PUSH1 0x20 MSTORE PUSH2 0x174C PUSH1 0x3 PUSH1 0xFF PUSH1 0x40 PUSH1 0x0 KECCAK256 SLOAD AND PUSH2 0x12A0 DUP2 PUSH2 0x30DC JUMP JUMPDEST AND PUSH32 0x3182B38841DE065EDED850F9E9FA30850BB37C3A57DF9BEF3841138A94B72956 PUSH1 0x0 DUP1 LOG3 STOP JUMPDEST CALLVALUE PUSH2 0x1C9 JUMPI PUSH1 0xC0 CALLDATASIZE PUSH1 0x3 NOT ADD SLT PUSH2 0x1C9 JUMPI PUSH1 0x4 CALLDATALOAD PUSH1 0x1 PUSH1 0x1 PUSH1 0x40 SHL SUB DUP2 GT PUSH2 0x1C9 JUMPI PUSH2 0x17A4 SWAP1 CALLDATASIZE SWAP1 PUSH1 0x4 ADD PUSH2 0x2FF4 JUMP JUMPDEST PUSH1 0x44 CALLDATALOAD PUSH1 0x1 PUSH1 0x1 PUSH1 0x40 SHL SUB DUP2 GT PUSH2 0x1C9 JUMPI PUSH2 0x17C3 SWAP1 CALLDATASIZE SWAP1 PUSH1 0x4 ADD PUSH2 0x2FF4 JUMP JUMPDEST SWAP1 PUSH1 0x64 CALLDATALOAD SWAP2 PUSH1 0x1 PUSH1 0x1 PUSH1 0x40 SHL SUB DUP4 GT PUSH2 0x1C9 JUMPI CALLDATASIZE PUSH1 0x23 DUP5 ADD SLT ISZERO PUSH2 0x1C9 JUMPI DUP3 PUSH1 0x4 ADD CALLDATALOAD PUSH2 0x17EF DUP2 PUSH2 0x30C5 JUMP JUMPDEST SWAP4 PUSH2 0x17FD PUSH1 0x40 MLOAD SWAP6 DUP7 PUSH2 0x2E15 JUMP JUMPDEST DUP2 DUP6 MSTORE PUSH1 0x24 PUSH1 0x20 DUP7 ADD SWAP3 PUSH1 0x5 SHL DUP3 ADD ADD SWAP1 CALLDATASIZE DUP3 GT PUSH2 0x1C9 JUMPI PUSH1 0x24 ADD SWAP2 JUMPDEST DUP2 DUP4 LT PUSH2 0x2097 JUMPI POP POP POP PUSH1 0x84 CALLDATALOAD PUSH1 0x1 PUSH1 0x1 PUSH1 0x40 SHL SUB DUP2 GT PUSH2 0x1C9 JUMPI PUSH2 0x1843 SWAP1 CALLDATASIZE SWAP1 PUSH1 0x4 ADD PUSH2 0x2FF4 JUMP JUMPDEST PUSH1 0xA4 CALLDATALOAD PUSH1 0x1 PUSH1 0x1 PUSH1 0x40 SHL SUB DUP2 GT PUSH2 0x1C9 JUMPI PUSH2 0x1862 SWAP1 CALLDATASIZE SWAP1 PUSH1 0x4 ADD PUSH2 0x2FF4 JUMP JUMPDEST SWAP2 PUSH2 0x186F DUP5 MLOAD ISZERO ISZERO PUSH2 0x313E JUMP JUMPDEST PUSH1 0x12 PUSH1 0x24 CALLDATALOAD LT PUSH2 0x2046 JUMPI PUSH2 0x1885 DUP2 MLOAD ISZERO ISZERO PUSH2 0x324D JUMP JUMPDEST DUP5 MLOAD ISZERO PUSH2 0x1FF5 JUMPI PUSH2 0x1898 DUP3 MLOAD ISZERO ISZERO PUSH2 0x317D JUMP JUMPDEST PUSH1 0x40 MLOAD SWAP4 PUSH2 0x18A5 DUP6 PUSH2 0x2DDD JUMP JUMPDEST CALLER DUP6 MSTORE PUSH1 0x20 DUP6 ADD MSTORE PUSH1 0x24 CALLDATALOAD PUSH1 0x40 DUP6 ADD MSTORE PUSH1 0x60 DUP5 ADD MSTORE DUP4 PUSH1 0x80 DUP5 ADD MSTORE PUSH1 0xA0 DUP4 ADD MSTORE PUSH1 0x0 PUSH1 0xC0 DUP4 ADD MSTORE PUSH1 0x0 PUSH1 0xE0 DUP4 ADD MSTORE PUSH1 0x0 PUSH2 0x100 DUP4 ADD MSTORE PUSH1 0x0 PUSH2 0x120 DUP4 ADD MSTORE PUSH1 0x0 PUSH2 0x140 DUP4 ADD MSTORE PUSH1 0x0 PUSH2 0x160 DUP4 ADD MSTORE PUSH2 0x180 DUP3 ADD MSTORE CALLER PUSH1 0x0 MSTORE PUSH1 0x2 PUSH1 0x20 MSTORE PUSH1 0x40 PUSH1 0x0 KECCAK256 SWAP1 PUSH1 0x1 DUP1 PUSH1 0xA0 SHL SUB DUP2 MLOAD AND PUSH1 0x1 PUSH1 0x1 PUSH1 0x60 SHL SUB PUSH1 0xA0 SHL DUP4 SLOAD AND OR DUP3 SSTORE PUSH1 0x20 DUP2 ADD MLOAD SWAP3 DUP4 MLOAD PUSH1 0x1 PUSH1 0x1 PUSH1 0x40 SHL SUB DUP2 GT PUSH2 0xD72 JUMPI PUSH2 0x1946 PUSH1 0x1 DUP6 ADD SLOAD PUSH2 0x2DA3 JUMP JUMPDEST PUSH1 0x1F DUP2 GT PUSH2 0x1FC0 JUMPI JUMPDEST POP PUSH1 0x20 PUSH1 0x1F DUP3 GT PUSH1 0x1 EQ PUSH2 0x1F51 JUMPI DUP2 SWAP3 SWAP4 SWAP5 SWAP6 PUSH1 0x0 SWAP3 PUSH2 0x1F46 JUMPI JUMPDEST POP POP DUP2 PUSH1 0x1 SHL SWAP2 PUSH1 0x0 NOT SWAP1 PUSH1 0x3 SHL SHR NOT AND OR PUSH1 0x1 DUP5 ADD SSTORE JUMPDEST PUSH1 0x40 DUP3 ADD MLOAD PUSH1 0x2 DUP5 ADD SSTORE PUSH1 0x60 DUP3 ADD MLOAD SWAP3 DUP4 MLOAD PUSH1 0x1 PUSH1 0x1 PUSH1 0x40 SHL SUB DUP2 GT PUSH2 0xD72 JUMPI PUSH2 0x19AF PUSH1 0x3 DUP4 ADD SLOAD PUSH2 0x2DA3 JUMP JUMPDEST PUSH1 0x1F DUP2 GT PUSH2 0x1F11 JUMPI JUMPDEST POP PUSH1 0x20 PUSH1 0x1F DUP3 GT PUSH1 0x1 EQ PUSH2 0x1EA2 JUMPI DUP2 SWAP3 SWAP4 SWAP5 SWAP6 PUSH1 0x0 SWAP3 PUSH2 0x1E97 JUMPI JUMPDEST POP POP DUP2 PUSH1 0x1 SHL SWAP2 PUSH1 0x0 NOT SWAP1 PUSH1 0x3 SHL SHR NOT AND OR PUSH1 0x3 DUP3 ADD SSTORE JUMPDEST PUSH1 0x80 DUP4 ADD MLOAD DUP1 MLOAD SWAP1 PUSH1 0x1 PUSH1 0x1 PUSH1 0x40 SHL SUB DUP3 GT PUSH2 0xD72 JUMPI PUSH1 0x1 PUSH1 0x40 SHL DUP3 GT PUSH2 0xD72 JUMPI PUSH1 0x20 SWAP1 PUSH1 0x4 DUP5 ADD SLOAD DUP4 PUSH1 0x4 DUP7 ADD SSTORE DUP1 DUP5 LT PUSH2 0x1E40 JUMPI JUMPDEST POP ADD SWAP1 PUSH1 0x4 DUP4 ADD PUSH1 0x0 MSTORE PUSH1 0x20 PUSH1 0x0 KECCAK256 SWAP1 PUSH1 0x0 JUMPDEST DUP2 PUSH1 0x5 SHR DUP2 LT PUSH2 0x1E07 JUMPI POP PUSH1 0x1F NOT DUP2 AND DUP2 SUB PUSH2 0x1DB1 JUMPI JUMPDEST POP POP POP PUSH1 0xA0 DUP4 ADD MLOAD SWAP3 DUP4 MLOAD PUSH1 0x1 PUSH1 0x1 PUSH1 0x40 SHL SUB DUP2 GT PUSH2 0xD72 JUMPI PUSH2 0x1A72 PUSH1 0x5 DUP5 ADD SLOAD PUSH2 0x2DA3 JUMP JUMPDEST PUSH1 0x1F DUP2 GT PUSH2 0x1D7C JUMPI JUMPDEST POP PUSH1 0x20 PUSH1 0x1F DUP3 GT PUSH1 0x1 EQ PUSH2 0x1D08 JUMPI DUP2 SWAP1 PUSH2 0x180 SWAP5 SWAP6 SWAP7 PUSH1 0x0 SWAP3 PUSH2 0x1CFD JUMPI JUMPDEST POP POP DUP2 PUSH1 0x1 SHL SWAP2 PUSH1 0x0 NOT SWAP1 PUSH1 0x3 SHL SHR NOT AND OR PUSH1 0x5 DUP5 ADD SSTORE JUMPDEST PUSH1 0x6 DUP4 ADD PUSH2 0x1AD1 PUSH1 0xC0 DUP4 ADD MLOAD ISZERO ISZERO DUP3 SWAP1 PUSH1 0xFF DUP1 NOT DUP4 SLOAD AND SWAP2 ISZERO ISZERO AND OR SWAP1 SSTORE JUMP JUMPDEST PUSH1 0xE0 DUP3 ADD MLOAD DUP2 SLOAD PUSH2 0xFF00 NOT AND SWAP1 ISZERO ISZERO PUSH1 0x8 SHL PUSH2 0xFF00 AND OR DUP2 SSTORE PUSH2 0x100 DUP3 ADD MLOAD DUP2 SLOAD PUSH3 0xFF0000 NOT AND SWAP1 ISZERO ISZERO PUSH1 0x10 SHL PUSH3 0xFF0000 AND OR DUP2 SSTORE PUSH2 0x120 DUP3 ADD MLOAD DUP2 SLOAD PUSH4 0xFF000000 NOT AND SWAP1 ISZERO ISZERO PUSH1 0x18 SHL PUSH4 0xFF000000 AND OR DUP2 SSTORE PUSH2 0x140 DUP3 ADD MLOAD ISZERO ISZERO DUP2 SLOAD PUSH5 0xFF00000000 PUSH6 0xFF0000000000 PUSH2 0x160 DUP7 ADD MLOAD ISZERO ISZERO PUSH1 0x28 SHL AND SWAP3 PUSH1 0x20 SHL AND SWAP1 PUSH6 0xFFFF00000000 NOT AND OR OR SWAP1 SSTORE ADD MLOAD DUP1 MLOAD SWAP1 PUSH1 0x1 PUSH1 0x1 PUSH1 0x40 SHL SUB DUP3 GT PUSH2 0xD72 JUMPI PUSH2 0x1B7A PUSH1 0x7 DUP5 ADD SLOAD PUSH2 0x2DA3 JUMP JUMPDEST PUSH1 0x1F DUP2 GT PUSH2 0x1CC8 JUMPI JUMPDEST POP PUSH1 0x20 SWAP1 PUSH1 0x1F DUP4 GT PUSH1 0x1 EQ PUSH2 0x1C58 JUMPI PUSH1 0x7 SWAP3 SWAP2 PUSH1 0x0 SWAP2 DUP4 PUSH2 0x1C4D JUMPI JUMPDEST POP POP DUP2 PUSH1 0x1 SHL SWAP2 PUSH1 0x0 NOT SWAP1 PUSH1 0x3 SHL SHR NOT AND OR SWAP2 ADD SSTORE JUMPDEST CALLER PUSH1 0x0 MSTORE PUSH1 0x1 PUSH1 0x20 MSTORE PUSH1 0x40 PUSH1 0x0 KECCAK256 PUSH1 0x1 PUSH1 0xFF NOT DUP3 SLOAD AND OR SWAP1 SSTORE PUSH1 0x5 SLOAD PUSH1 0x1 PUSH1 0x40 SHL DUP2 LT ISZERO PUSH2 0xD72 JUMPI DUP1 PUSH1 0x1 PUSH2 0x1BED SWAP3 ADD PUSH1 0x5 SSTORE PUSH2 0x308E JUMP JUMPDEST DUP2 SLOAD SWAP1 PUSH1 0x3 SHL SWAP1 CALLER DUP3 SHL SWAP2 PUSH1 0x1 DUP1 PUSH1 0xA0 SHL SUB SWAP1 SHL NOT AND OR SWAP1 SSTORE PUSH32 0x7555FBE7A03A1845D092AE34447E52CC2CF366BBD2A8C185275753F775B0C3CC PUSH2 0x1C3C PUSH1 0x40 MLOAD SWAP3 PUSH1 0x40 DUP5 MSTORE PUSH1 0x40 DUP5 ADD SWAP1 PUSH2 0x30FC JUMP JUMPDEST SWAP2 PUSH1 0x24 CALLDATALOAD PUSH1 0x20 DUP3 ADD MSTORE DUP1 CALLER SWAP4 SUB SWAP1 LOG2 STOP JUMPDEST ADD MLOAD SWAP1 POP DUP6 DUP1 PUSH2 0x1B9F JUMP JUMPDEST SWAP1 PUSH1 0x7 DUP5 ADD PUSH1 0x0 MSTORE PUSH1 0x20 PUSH1 0x0 KECCAK256 SWAP2 PUSH1 0x0 JUMPDEST PUSH1 0x1F NOT DUP6 AND DUP2 LT PUSH2 0x1CB0 JUMPI POP SWAP2 DUP4 SWAP2 PUSH1 0x1 SWAP4 PUSH1 0x7 SWAP6 PUSH1 0x1F NOT DUP2 AND LT PUSH2 0x1C97 JUMPI JUMPDEST POP POP POP DUP2 SHL ADD SWAP2 ADD SSTORE PUSH2 0x1BB5 JUMP JUMPDEST ADD MLOAD PUSH1 0x0 NOT PUSH1 0xF8 DUP5 PUSH1 0x3 SHL AND SHR NOT AND SWAP1 SSTORE DUP6 DUP1 DUP1 PUSH2 0x1C89 JUMP JUMPDEST SWAP2 SWAP3 PUSH1 0x20 PUSH1 0x1 DUP2 SWAP3 DUP7 DUP6 ADD MLOAD DUP2 SSTORE ADD SWAP5 ADD SWAP3 ADD PUSH2 0x1C69 JUMP JUMPDEST PUSH2 0x1CF7 SWAP1 PUSH1 0x7 DUP6 ADD PUSH1 0x0 MSTORE PUSH1 0x20 PUSH1 0x0 KECCAK256 PUSH1 0x1F DUP6 ADD PUSH1 0x5 SHR DUP2 ADD SWAP2 PUSH1 0x20 DUP7 LT PUSH2 0xE2A JUMPI PUSH1 0x1F ADD PUSH1 0x5 SHR ADD SWAP1 PUSH2 0x31C0 JUMP JUMPDEST DUP5 PUSH2 0x1B83 JUMP JUMPDEST ADD MLOAD SWAP1 POP DUP7 DUP1 PUSH2 0x1A99 JUMP JUMPDEST PUSH1 0x5 DUP5 ADD PUSH1 0x0 MSTORE PUSH1 0x20 PUSH1 0x0 KECCAK256 SWAP6 PUSH1 0x0 JUMPDEST PUSH1 0x1F NOT DUP5 AND DUP2 LT PUSH2 0x1D64 JUMPI POP SWAP6 DUP3 SWAP2 PUSH2 0x180 SWAP6 SWAP7 SWAP8 PUSH1 0x1 SWAP5 PUSH1 0x1F NOT DUP2 AND LT PUSH2 0x1D4B JUMPI JUMPDEST POP POP POP DUP2 SHL ADD PUSH1 0x5 DUP5 ADD SSTORE PUSH2 0x1AB1 JUMP JUMPDEST ADD MLOAD PUSH1 0x0 NOT PUSH1 0xF8 DUP5 PUSH1 0x3 SHL AND SHR NOT AND SWAP1 SSTORE DUP7 DUP1 DUP1 PUSH2 0x1D3B JUMP JUMPDEST DUP3 DUP3 ADD MLOAD DUP9 SSTORE PUSH1 0x1 SWAP1 SWAP8 ADD SWAP7 PUSH1 0x20 SWAP3 DUP4 ADD SWAP3 ADD PUSH2 0x1D18 JUMP JUMPDEST PUSH2 0x1DAB SWAP1 PUSH1 0x5 DUP6 ADD PUSH1 0x0 MSTORE PUSH1 0x20 PUSH1 0x0 KECCAK256 PUSH1 0x1F DUP5 ADD PUSH1 0x5 SHR DUP2 ADD SWAP2 PUSH1 0x20 DUP6 LT PUSH2 0xE2A JUMPI PUSH1 0x1F ADD PUSH1 0x5 SHR ADD SWAP1 PUSH2 0x31C0 JUMP JUMPDEST DUP6 PUSH2 0x1A7B JUMP JUMPDEST PUSH1 0x0 SWAP3 PUSH1 0x0 JUMPDEST PUSH1 0x1F NOT DUP4 AND DUP4 SUB DUP2 LT PUSH2 0x1DD3 JUMPI POP POP PUSH1 0x5 SHR ADD SSTORE DUP4 DUP1 DUP1 PUSH2 0x1A4C JUMP JUMPDEST SWAP1 SWAP4 PUSH1 0x20 PUSH2 0x1DFE PUSH1 0x1 SWAP3 DUP5 DUP9 MLOAD SWAP2 PUSH2 0x1DEA DUP4 PUSH2 0x30DC JUMP JUMPDEST SWAP1 PUSH1 0xFF DUP1 SWAP2 PUSH1 0x3 SHL SWAP4 AND DUP4 SHL SWAP3 SHL NOT AND OR SWAP1 JUMP JUMPDEST SWAP6 ADD SWAP2 ADD PUSH2 0x1DB7 JUMP JUMPDEST PUSH1 0x0 DUP1 JUMPDEST PUSH1 0x20 DUP2 LT PUSH2 0x1E20 JUMPI POP DUP4 DUP3 ADD SSTORE PUSH1 0x1 ADD PUSH2 0x1A35 JUMP JUMPDEST SWAP5 SWAP1 PUSH1 0x20 PUSH2 0x1E37 PUSH1 0x1 SWAP3 DUP9 DUP6 MLOAD SWAP2 PUSH2 0x1DEA DUP4 PUSH2 0x30DC JUMP JUMPDEST SWAP3 ADD SWAP6 ADD PUSH2 0x1E0B JUMP JUMPDEST PUSH2 0x1E70 SWAP1 PUSH1 0x4 DUP7 ADD PUSH1 0x0 MSTORE PUSH1 0x1F DUP5 PUSH1 0x0 KECCAK256 SWAP2 DUP2 DUP8 AND DUP1 PUSH2 0x1E76 JUMPI JUMPDEST POP ADD PUSH1 0x5 SHR DUP2 ADD SWAP1 PUSH1 0x1F DUP7 ADD PUSH1 0x5 SHR ADD PUSH2 0x31C0 JUMP JUMPDEST DUP7 PUSH2 0x1A22 JUMP JUMPDEST PUSH1 0x0 NOT SWAP1 DUP2 DUP5 DUP11 ADD PUSH1 0x5 SHR DUP7 ADD ADD SWAP2 DUP3 SLOAD SWAP2 DUP10 SUB PUSH1 0x3 SHL SHR AND SWAP1 SSTORE DUP11 PUSH2 0x1E5B JUMP JUMPDEST ADD MLOAD SWAP1 POP DUP6 DUP1 PUSH2 0x19D3 JUMP JUMPDEST PUSH1 0x3 DUP4 ADD PUSH1 0x0 MSTORE PUSH1 0x20 PUSH1 0x0 KECCAK256 SWAP1 PUSH1 0x0 JUMPDEST PUSH1 0x1F NOT DUP5 AND DUP2 LT PUSH2 0x1EF9 JUMPI POP PUSH1 0x1 SWAP4 SWAP5 SWAP6 SWAP7 DUP4 PUSH1 0x1F NOT DUP2 AND LT PUSH2 0x1EE0 JUMPI JUMPDEST POP POP POP DUP2 SHL ADD PUSH1 0x3 DUP3 ADD SSTORE PUSH2 0x19EB JUMP JUMPDEST ADD MLOAD PUSH1 0x0 NOT PUSH1 0xF8 DUP5 PUSH1 0x3 SHL AND SHR NOT AND SWAP1 SSTORE DUP6 DUP1 DUP1 PUSH2 0x1ED0 JUMP JUMPDEST SWAP1 SWAP2 PUSH1 0x20 PUSH1 0x1 DUP2 SWAP3 DUP6 DUP12 ADD MLOAD DUP2 SSTORE ADD SWAP4 ADD SWAP2 ADD PUSH2 0x1EB2 JUMP JUMPDEST PUSH2 0x1F40 SWAP1 PUSH1 0x3 DUP5 ADD PUSH1 0x0 MSTORE PUSH1 0x20 PUSH1 0x0 KECCAK256 PUSH1 0x1F DUP5 ADD PUSH1 0x5 SHR DUP2 ADD SWAP2 PUSH1 0x20 DUP6 LT PUSH2 0xE2A JUMPI PUSH1 0x1F ADD PUSH1 0x5 SHR ADD SWAP1 PUSH2 0x31C0 JUMP JUMPDEST DUP6 PUSH2 0x19B8 JUMP JUMPDEST ADD MLOAD SWAP1 POP DUP6 DUP1 PUSH2 0x196A JUMP JUMPDEST PUSH1 0x1 DUP6 ADD PUSH1 0x0 MSTORE PUSH1 0x20 PUSH1 0x0 KECCAK256 SWAP1 PUSH1 0x0 JUMPDEST PUSH1 0x1F NOT DUP5 AND DUP2 LT PUSH2 0x1FA8 JUMPI POP PUSH1 0x1 SWAP4 SWAP5 SWAP6 SWAP7 DUP4 PUSH1 0x1F NOT DUP2 AND LT PUSH2 0x1F8F JUMPI JUMPDEST POP POP POP DUP2 SHL ADD PUSH1 0x1 DUP5 ADD SSTORE PUSH2 0x1982 JUMP JUMPDEST ADD MLOAD PUSH1 0x0 NOT PUSH1 0xF8 DUP5 PUSH1 0x3 SHL AND SHR NOT AND SWAP1 SSTORE DUP6 DUP1 DUP1 PUSH2 0x1F7F JUMP JUMPDEST SWAP1 SWAP2 PUSH1 0x20 PUSH1 0x1 DUP2 SWAP3 DUP6 DUP12 ADD MLOAD DUP2 SSTORE ADD SWAP4 ADD SWAP2 ADD PUSH2 0x1F61 JUMP JUMPDEST PUSH2 0x1FEF SWAP1 PUSH1 0x1 DUP7 ADD PUSH1 0x0 MSTORE PUSH1 0x20 PUSH1 0x0 KECCAK256 PUSH1 0x1F DUP5 ADD PUSH1 0x5 SHR DUP2 ADD SWAP2 PUSH1 0x20 DUP6 LT PUSH2 0xE2A JUMPI PUSH1 0x1F ADD PUSH1 0x5 SHR ADD SWAP1 PUSH2 0x31C0 JUMP JUMPDEST DUP6 PUSH2 0x194F JUMP JUMPDEST PUSH1 0x40 MLOAD PUSH3 0x461BCD PUSH1 0xE5 SHL DUP2 MSTORE PUSH1 0x20 PUSH1 0x4 DUP3 ADD MSTORE PUSH1 0x24 DUP1 DUP3 ADD MSTORE PUSH32 0x4174206C65617374206F6E65206F7267616E206D757374206265207370656369 PUSH1 0x44 DUP3 ADD MSTORE PUSH4 0x199A5959 PUSH1 0xE2 SHL PUSH1 0x64 DUP3 ADD MSTORE PUSH1 0x84 SWAP1 REVERT JUMPDEST PUSH1 0x40 MLOAD PUSH3 0x461BCD PUSH1 0xE5 SHL DUP2 MSTORE PUSH1 0x20 PUSH1 0x4 DUP3 ADD MSTORE PUSH1 0x23 PUSH1 0x24 DUP3 ADD MSTORE PUSH32 0x446F6E6F72206D757374206265206174206C6561737420313820796561727320 PUSH1 0x44 DUP3 ADD MSTORE PUSH3 0x1BDB19 PUSH1 0xEA SHL PUSH1 0x64 DUP3 ADD MSTORE PUSH1 0x84 SWAP1 REVERT JUMPDEST DUP3 CALLDATALOAD PUSH1 0x5 DUP2 LT ISZERO PUSH2 0x1C9 JUMPI DUP2 MSTORE PUSH1 0x20 SWAP3 DUP4 ADD SWAP3 ADD PUSH2 0x181A JUMP JUMPDEST CALLVALUE PUSH2 0x1C9 JUMPI PUSH1 0x20 CALLDATASIZE PUSH1 0x3 NOT ADD SLT PUSH2 0x1C9 JUMPI PUSH1 0x4 CALLDATALOAD PUSH1 0x5 SLOAD DUP2 LT ISZERO PUSH2 0x1C9 JUMPI PUSH2 0x20D9 PUSH1 0x20 SWAP2 PUSH2 0x308E JUMP JUMPDEST SWAP1 SLOAD PUSH1 0x40 MLOAD PUSH1 0x3 SWAP3 SWAP1 SWAP3 SHL SHR PUSH1 0x1 PUSH1 0x1 PUSH1 0xA0 SHL SUB AND DUP2 MSTORE RETURN JUMPDEST CALLVALUE PUSH2 0x1C9 JUMPI PUSH2 0x2100 CALLDATASIZE PUSH2 0x2FC5 JUMP JUMPDEST SWAP1 CALLER PUSH1 0x0 MSTORE PUSH1 0x1 SWAP1 PUSH1 0x20 SWAP2 DUP1 DUP4 MSTORE PUSH1 0x4 PUSH1 0xFF PUSH1 0x40 PUSH1 0x0 KECCAK256 SLOAD AND PUSH2 0x2122 DUP2 PUSH2 0x30DC JUMP JUMPDEST SUB PUSH2 0x22AF JUMPI CALLER PUSH1 0x0 MSTORE PUSH1 0x4 DUP4 MSTORE PUSH1 0xFF PUSH1 0x3 PUSH1 0x40 PUSH1 0x0 KECCAK256 ADD SLOAD AND ISZERO PUSH2 0x2271 JUMPI SWAP1 PUSH32 0x3E60282061AA9F0AC8F17CB522AB49946225E94F8597D84E6504593EE06A81E0 SWAP3 SWAP2 PUSH2 0x216D DUP6 PUSH2 0x30DC JUMP JUMPDEST DUP1 DUP6 EQ DUP1 DUP1 ISZERO PUSH2 0x225E JUMPI JUMPDEST PUSH2 0x2181 SWAP1 PUSH2 0x3292 JUMP JUMPDEST PUSH2 0x218A DUP7 PUSH2 0x30DC JUMP JUMPDEST ISZERO PUSH2 0x21F7 JUMPI PUSH1 0x1 PUSH1 0x1 PUSH1 0xA0 SHL SUB DUP3 AND PUSH1 0x0 DUP2 DUP2 MSTORE DUP3 DUP6 MSTORE PUSH1 0x40 SWAP1 KECCAK256 SLOAD SWAP1 SWAP2 PUSH2 0x21BE SWAP2 PUSH1 0xFF AND PUSH2 0x21B8 DUP2 PUSH2 0x30DC JUMP JUMPDEST EQ PUSH2 0x334F JUMP JUMPDEST PUSH1 0x0 MSTORE PUSH1 0x2 DUP3 MSTORE PUSH1 0x6 PUSH1 0x40 PUSH1 0x0 KECCAK256 ADD PUSH2 0x100 PUSH2 0xFF00 NOT DUP3 SLOAD AND OR SWAP1 SSTORE JUMPDEST PUSH1 0x40 MLOAD SWAP4 PUSH2 0x21E8 DUP2 PUSH2 0x30DC JUMP JUMPDEST DUP5 MSTORE PUSH1 0x1 PUSH1 0x1 PUSH1 0xA0 SHL SUB AND SWAP3 LOG2 STOP JUMPDEST PUSH2 0x2200 DUP6 PUSH2 0x30DC JUMP JUMPDEST PUSH1 0x2 DUP6 EQ PUSH2 0x220F JUMPI JUMPDEST POP PUSH2 0x21DB JUMP JUMPDEST PUSH1 0x1 PUSH1 0x1 PUSH1 0xA0 SHL SUB DUP3 AND PUSH1 0x0 DUP2 DUP2 MSTORE DUP3 DUP6 MSTORE PUSH1 0x40 SWAP1 KECCAK256 SLOAD PUSH2 0x223F SWAP1 PUSH1 0x2 SWAP1 PUSH1 0xFF AND PUSH2 0x2239 DUP2 PUSH2 0x30DC JUMP JUMPDEST EQ PUSH2 0x32ED JUMP JUMPDEST PUSH1 0x0 MSTORE PUSH1 0x3 DUP4 MSTORE PUSH1 0x7 PUSH1 0x40 PUSH1 0x0 KECCAK256 ADD SWAP1 PUSH1 0xFF NOT DUP3 SLOAD AND OR SWAP1 SSTORE DUP5 PUSH2 0x2209 JUMP JUMPDEST POP PUSH2 0x2268 DUP7 PUSH2 0x30DC JUMP JUMPDEST PUSH1 0x2 DUP7 EQ PUSH2 0x2178 JUMP JUMPDEST PUSH1 0x40 MLOAD PUSH3 0x461BCD PUSH1 0xE5 SHL DUP2 MSTORE PUSH1 0x4 DUP2 ADD DUP5 SWAP1 MSTORE PUSH1 0x16 PUSH1 0x24 DUP3 ADD MSTORE PUSH22 0x486F73706974616C206973206E6F7420616374697665 PUSH1 0x50 SHL PUSH1 0x44 DUP3 ADD MSTORE PUSH1 0x64 SWAP1 REVERT JUMPDEST PUSH1 0x40 MLOAD PUSH3 0x461BCD PUSH1 0xE5 SHL DUP2 MSTORE PUSH1 0x4 DUP2 ADD DUP5 SWAP1 MSTORE PUSH1 0xD PUSH1 0x24 DUP3 ADD MSTORE PUSH13 0x13DB9B1E481A1BDCDC1A5D185B PUSH1 0x9A SHL PUSH1 0x44 DUP3 ADD MSTORE PUSH1 0x64 SWAP1 REVERT JUMPDEST CALLVALUE PUSH2 0x1C9 JUMPI PUSH1 0x0 CALLDATASIZE PUSH1 0x3 NOT ADD SLT PUSH2 0x1C9 JUMPI PUSH1 0x40 MLOAD DUP1 PUSH1 0x6 SLOAD SWAP2 DUP3 DUP2 MSTORE PUSH1 0x20 DUP1 SWAP2 ADD SWAP3 PUSH1 0x6 PUSH1 0x0 MSTORE PUSH32 0xF652222313E28459528D920B65115C16C04F3EFC82AAEDC97BE59F3F377C0D3F SWAP2 PUSH1 0x0 SWAP1 JUMPDEST DUP3 DUP3 LT PUSH2 0x2354 JUMPI PUSH2 0x327 DUP6 PUSH2 0x2348 DUP2 DUP10 SUB DUP3 PUSH2 0x2E15 JUMP JUMPDEST PUSH1 0x40 MLOAD SWAP2 DUP3 SWAP2 DUP3 PUSH2 0x304A JUMP JUMPDEST DUP4 SLOAD PUSH1 0x1 PUSH1 0x1 PUSH1 0xA0 SHL SUB AND DUP7 MSTORE SWAP5 DUP6 ADD SWAP5 PUSH1 0x1 SWAP4 DUP5 ADD SWAP4 SWAP1 SWAP2 ADD SWAP1 PUSH2 0x2331 JUMP JUMPDEST CALLVALUE PUSH2 0x1C9 JUMPI PUSH1 0x20 CALLDATASIZE PUSH1 0x3 NOT ADD SLT PUSH2 0x1C9 JUMPI PUSH2 0x238D PUSH2 0x2D8D JUMP JUMPDEST CALLER PUSH1 0x0 MSTORE PUSH1 0x1 PUSH1 0x20 MSTORE PUSH2 0x23AD PUSH1 0x3 PUSH1 0xFF PUSH1 0x40 PUSH1 0x0 KECCAK256 SLOAD AND PUSH2 0x12A0 DUP2 PUSH2 0x30DC JUMP JUMPDEST PUSH1 0x1 PUSH1 0x1 PUSH1 0xA0 SHL SUB AND PUSH1 0x0 DUP2 DUP2 MSTORE PUSH1 0x2 PUSH1 0x20 MSTORE PUSH1 0x40 DUP2 KECCAK256 PUSH1 0x6 ADD DUP1 SLOAD PUSH1 0xFF NOT AND PUSH1 0x1 OR SWAP1 SSTORE PUSH32 0x5D1F8AE728605F1C5A96C33DF7EE3B56DED21030717A9F48200F94737DA9FD29 SWAP1 DUP1 LOG2 STOP JUMPDEST CALLVALUE PUSH2 0x1C9 JUMPI PUSH1 0x0 CALLDATASIZE PUSH1 0x3 NOT ADD SLT PUSH2 0x1C9 JUMPI PUSH1 0x40 MLOAD DUP1 PUSH1 0x5 SLOAD SWAP2 DUP3 DUP2 MSTORE PUSH1 0x20 DUP1 SWAP2 ADD SWAP3 PUSH1 0x5 PUSH1 0x0 MSTORE PUSH32 0x36B6384B5ECA791C62761152D0C79BB0604C104A5FB6F4EB0703F3154BB3DB0 SWAP2 PUSH1 0x0 SWAP1 JUMPDEST DUP3 DUP3 LT PUSH2 0x245C JUMPI PUSH2 0x327 DUP6 PUSH2 0x2348 DUP2 DUP10 SUB DUP3 PUSH2 0x2E15 JUMP JUMPDEST DUP4 SLOAD PUSH1 0x1 PUSH1 0x1 PUSH1 0xA0 SHL SUB AND DUP7 MSTORE SWAP5 DUP6 ADD SWAP5 PUSH1 0x1 SWAP4 DUP5 ADD SWAP4 SWAP1 SWAP2 ADD SWAP1 PUSH2 0x2445 JUMP JUMPDEST CALLVALUE PUSH2 0x1C9 JUMPI PUSH1 0x20 CALLDATASIZE PUSH1 0x3 NOT ADD SLT PUSH2 0x1C9 JUMPI PUSH2 0x2495 PUSH2 0x2D8D JUMP JUMPDEST CALLER PUSH1 0x0 MSTORE PUSH1 0x1 PUSH1 0x20 MSTORE PUSH2 0x24B5 PUSH1 0x3 PUSH1 0xFF PUSH1 0x40 PUSH1 0x0 KECCAK256 SLOAD AND PUSH2 0x12A0 DUP2 PUSH2 0x30DC JUMP JUMPDEST PUSH1 0x1 PUSH1 0x1 PUSH1 0xA0 SHL SUB AND PUSH1 0x0 DUP2 DUP2 MSTORE PUSH1 0x2 PUSH1 0x20 MSTORE PUSH1 0x40 DUP2 KECCAK256 PUSH1 0x6 ADD DUP1 SLOAD PUSH6 0xFF0000000000 NOT AND SWAP1 SSTORE PUSH32 0xF2F9E1301B8FC7B02F69F6EC7D37D40CA019DDCB0A1EC4EA542256FBA95CF692 SWAP1 DUP1 LOG2 STOP JUMPDEST CALLVALUE PUSH2 0x1C9 JUMPI PUSH1 0x40 CALLDATASIZE PUSH1 0x3 NOT ADD SLT PUSH2 0x1C9 JUMPI PUSH1 0x4 CALLDATALOAD PUSH1 0x1 PUSH1 0x1 PUSH1 0x40 SHL SUB DUP2 GT PUSH2 0x1C9 JUMPI PUSH2 0x2532 SWAP1 CALLDATASIZE SWAP1 PUSH1 0x4 ADD PUSH2 0x2FF4 JUMP JUMPDEST PUSH1 0x24 CALLDATALOAD PUSH1 0x1 PUSH1 0x1 PUSH1 0x40 SHL SUB DUP2 GT PUSH2 0x1C9 JUMPI PUSH2 0x2551 SWAP1 CALLDATASIZE SWAP1 PUSH1 0x4 ADD PUSH2 0x2FF4 JUMP JUMPDEST PUSH2 0x255D DUP3 MLOAD ISZERO ISZERO PUSH2 0x313E JUMP JUMPDEST PUSH2 0x2569 DUP2 MLOAD ISZERO ISZERO PUSH2 0x317D JUMP JUMPDEST CALLER PUSH1 0x0 MSTORE PUSH1 0x1 PUSH1 0x20 MSTORE PUSH1 0xFF PUSH1 0x40 PUSH1 0x0 KECCAK256 SLOAD AND PUSH2 0x2584 DUP2 PUSH2 0x30DC JUMP JUMPDEST PUSH2 0x28CD JUMPI PUSH1 0x40 MLOAD PUSH1 0x80 DUP2 ADD DUP2 DUP2 LT PUSH1 0x1 PUSH1 0x1 PUSH1 0x40 SHL SUB DUP3 GT OR PUSH2 0xD72 JUMPI PUSH1 0x40 MSTORE CALLER DUP2 MSTORE PUSH1 0x20 DUP2 ADD SWAP2 DUP4 DUP4 MSTORE PUSH1 0x40 DUP3 ADD MSTORE PUSH1 0x1 PUSH1 0x60 DUP3 ADD MSTORE CALLER PUSH1 0x0 MSTORE PUSH1 0x4 PUSH1 0x20 MSTORE PUSH1 0x40 PUSH1 0x0 KECCAK256 SWAP2 PUSH1 0x1 DUP1 PUSH1 0xA0 SHL SUB DUP3 MLOAD AND PUSH1 0x1 PUSH1 0x1 PUSH1 0x60 SHL SUB PUSH1 0xA0 SHL DUP5 SLOAD AND OR DUP4 SSTORE MLOAD DUP1 MLOAD PUSH1 0x1 PUSH1 0x1 PUSH1 0x40 SHL SUB DUP2 GT PUSH2 0xD72 JUMPI DUP1 PUSH2 0x2604 PUSH1 0x1 DUP7 ADD SLOAD PUSH2 0x2DA3 JUMP JUMPDEST SWAP3 PUSH1 0x1F SWAP4 DUP5 DUP2 GT PUSH2 0x289A JUMPI JUMPDEST POP PUSH1 0x20 SWAP1 DUP5 DUP4 GT PUSH1 0x1 EQ PUSH2 0x2828 JUMPI PUSH1 0x0 SWAP3 PUSH2 0x281D JUMPI JUMPDEST POP POP DUP2 PUSH1 0x1 SHL SWAP2 PUSH1 0x0 NOT SWAP1 PUSH1 0x3 SHL SHR NOT AND OR PUSH1 0x1 DUP5 ADD SSTORE JUMPDEST PUSH1 0x2 DUP4 ADD SWAP1 PUSH1 0x40 DUP4 ADD MLOAD SWAP1 DUP2 MLOAD SWAP2 PUSH1 0x1 PUSH1 0x1 PUSH1 0x40 SHL SUB DUP4 GT PUSH2 0xD72 JUMPI PUSH2 0x2664 DUP5 SLOAD PUSH2 0x2DA3 JUMP JUMPDEST DUP3 DUP2 GT PUSH2 0x27E3 JUMPI JUMPDEST POP PUSH1 0x20 SWAP2 DUP4 GT PUSH1 0x1 EQ PUSH2 0x2772 JUMPI SWAP3 DUP3 PUSH1 0x60 SWAP4 PUSH2 0x26BA SWAP8 SWAP7 SWAP4 PUSH1 0x3 SWAP7 PUSH1 0x0 SWAP3 PUSH2 0x2767 JUMPI JUMPDEST POP POP DUP2 PUSH1 0x1 SHL SWAP2 PUSH1 0x0 NOT SWAP1 DUP8 SHL SHR NOT AND OR SWAP1 SSTORE JUMPDEST ADD MLOAD ISZERO ISZERO SWAP2 ADD SWAP1 PUSH1 0xFF DUP1 NOT DUP4 SLOAD AND SWAP2 ISZERO ISZERO AND OR SWAP1 SSTORE JUMP JUMPDEST CALLER PUSH1 0x0 MSTORE PUSH1 0x1 PUSH1 0x20 MSTORE PUSH1 0x40 PUSH1 0x0 KECCAK256 PUSH1 0x4 PUSH1 0xFF NOT DUP3 SLOAD AND OR SWAP1 SSTORE PUSH1 0x7 SLOAD PUSH1 0x1 PUSH1 0x40 SHL DUP2 LT ISZERO PUSH2 0xD72 JUMPI PUSH1 0x1 DUP2 ADD DUP1 PUSH1 0x7 SSTORE DUP2 LT ISZERO PUSH2 0xD5C JUMPI PUSH1 0x7 PUSH1 0x0 MSTORE PUSH32 0xA66CC928B5EDB82AF9BD49922954155AB7B0942694BEA4CE44661D9A8736C688 ADD CALLER PUSH1 0x1 PUSH1 0x1 PUSH1 0x60 SHL SUB PUSH1 0xA0 SHL DUP3 SLOAD AND OR SWAP1 SSTORE PUSH32 0x72CEFCCB74B7EDACB21023A72B39A2CECB1123BA70D1EEA03D3509D046B941C2 PUSH1 0x40 MLOAD PUSH1 0x20 DUP2 MSTORE DUP1 PUSH2 0x2762 CALLER SWAP5 PUSH1 0x20 DUP4 ADD SWAP1 PUSH2 0x2EDC JUMP JUMPDEST SUB SWAP1 LOG2 STOP JUMPDEST ADD MLOAD SWAP1 POP DUP10 DUP1 PUSH2 0x268F JUMP JUMPDEST SWAP1 PUSH1 0x1F NOT DUP4 AND SWAP2 DUP5 PUSH1 0x0 MSTORE PUSH1 0x20 PUSH1 0x0 KECCAK256 SWAP3 PUSH1 0x0 JUMPDEST DUP2 DUP2 LT PUSH2 0x27CB JUMPI POP SWAP4 PUSH2 0x26BA SWAP8 SWAP7 SWAP4 PUSH1 0x3 SWAP7 SWAP4 PUSH1 0x1 SWAP4 DUP4 PUSH1 0x60 SWAP9 LT PUSH2 0x27B3 JUMPI JUMPDEST POP POP POP DUP2 SHL ADD SWAP1 SSTORE PUSH2 0x26A3 JUMP JUMPDEST ADD MLOAD PUSH1 0x0 NOT DUP4 DUP10 SHL PUSH1 0xF8 AND SHR NOT AND SWAP1 SSTORE DUP10 DUP1 DUP1 PUSH2 0x27A6 JUMP JUMPDEST SWAP3 SWAP4 PUSH1 0x20 PUSH1 0x1 DUP2 SWAP3 DUP8 DUP7 ADD MLOAD DUP2 SSTORE ADD SWAP6 ADD SWAP4 ADD PUSH2 0x2786 JUMP JUMPDEST PUSH2 0x280E SWAP1 DUP6 PUSH1 0x0 MSTORE PUSH1 0x20 PUSH1 0x0 KECCAK256 DUP5 DUP1 DUP8 ADD PUSH1 0x5 SHR DUP3 ADD SWAP3 PUSH1 0x20 DUP9 LT PUSH2 0x2814 JUMPI JUMPDEST ADD PUSH1 0x5 SHR ADD SWAP1 PUSH2 0x31C0 JUMP JUMPDEST DUP8 PUSH2 0x266C JUMP JUMPDEST SWAP3 POP DUP2 SWAP3 PUSH2 0x2803 JUMP JUMPDEST ADD MLOAD SWAP1 POP DUP7 DUP1 PUSH2 0x2626 JUMP JUMPDEST SWAP3 POP PUSH1 0x1 DUP7 ADD PUSH1 0x0 MSTORE PUSH1 0x20 PUSH1 0x0 KECCAK256 SWAP1 PUSH1 0x0 SWAP4 JUMPDEST PUSH1 0x1F NOT DUP5 AND DUP6 LT PUSH2 0x287F JUMPI PUSH1 0x1 SWAP5 POP DUP4 PUSH1 0x1F NOT DUP2 AND LT PUSH2 0x2866 JUMPI JUMPDEST POP POP POP DUP2 SHL ADD PUSH1 0x1 DUP5 ADD SSTORE PUSH2 0x263E JUMP JUMPDEST ADD MLOAD PUSH1 0x0 NOT PUSH1 0xF8 DUP5 PUSH1 0x3 SHL AND SHR NOT AND SWAP1 SSTORE DUP7 DUP1 DUP1 PUSH2 0x2856 JUMP JUMPDEST DUP2 DUP2 ADD MLOAD DUP4 SSTORE PUSH1 0x20 SWAP5 DUP6 ADD SWAP5 PUSH1 0x1 SWAP1 SWAP4 ADD SWAP3 SWAP1 SWAP2 ADD SWAP1 PUSH2 0x283B JUMP JUMPDEST PUSH2 0x28C7 SWAP1 PUSH1 0x1 DUP9 ADD PUSH1 0x0 MSTORE PUSH1 0x20 PUSH1 0x0 KECCAK256 DUP7 DUP1 DUP7 ADD PUSH1 0x5 SHR DUP3 ADD SWAP3 PUSH1 0x20 DUP8 LT PUSH2 0x2814 JUMPI ADD PUSH1 0x5 SHR ADD SWAP1 PUSH2 0x31C0 JUMP JUMPDEST DUP8 PUSH2 0x2610 JUMP JUMPDEST PUSH1 0x40 MLOAD PUSH3 0x461BCD PUSH1 0xE5 SHL DUP2 MSTORE PUSH1 0x20 PUSH1 0x4 DUP3 ADD MSTORE PUSH1 0x1A PUSH1 0x24 DUP3 ADD MSTORE PUSH32 0x4164647265737320616C72656164792072656769737465726564000000000000 PUSH1 0x44 DUP3 ADD MSTORE PUSH1 0x64 SWAP1 REVERT JUMPDEST CALLVALUE PUSH2 0x1C9 JUMPI PUSH2 0x2920 CALLDATASIZE PUSH2 0x2FC5 JUMP JUMPDEST SWAP1 CALLER PUSH1 0x0 MSTORE PUSH1 0x20 SWAP1 PUSH1 0x1 DUP3 MSTORE PUSH2 0x2943 PUSH1 0x3 PUSH1 0xFF PUSH1 0x40 PUSH1 0x0 KECCAK256 SLOAD AND PUSH2 0x12A0 DUP2 PUSH2 0x30DC JUMP JUMPDEST PUSH2 0x294C DUP4 PUSH2 0x30DC JUMP JUMPDEST PUSH1 0x1 DUP4 EQ DUP1 DUP1 ISZERO PUSH2 0x2B4A JUMPI JUMPDEST PUSH2 0x2961 SWAP1 PUSH2 0x3292 JUMP JUMPDEST PUSH2 0x296A DUP5 PUSH2 0x30DC JUMP JUMPDEST ISZERO PUSH2 0x2A55 JUMPI PUSH1 0x1 DUP1 PUSH1 0xA0 SHL SUB DUP2 AND DUP1 PUSH1 0x0 MSTORE PUSH1 0x1 DUP4 MSTORE PUSH2 0x2997 PUSH1 0x1 PUSH1 0xFF PUSH1 0x40 PUSH1 0x0 KECCAK256 SLOAD AND PUSH2 0x21B8 DUP2 PUSH2 0x30DC JUMP JUMPDEST DUP1 PUSH1 0x0 MSTORE PUSH1 0x2 DUP4 MSTORE PUSH1 0xFF PUSH1 0x6 PUSH1 0x40 PUSH1 0x0 KECCAK256 ADD SLOAD PUSH1 0x8 SHR AND ISZERO PUSH2 0x2A02 JUMPI SWAP1 PUSH32 0x3E60282061AA9F0AC8F17CB522AB49946225E94F8597D84E6504593EE06A81E0 SWAP3 SWAP2 PUSH1 0x0 MSTORE PUSH1 0x2 DUP3 MSTORE PUSH1 0x6 PUSH1 0x40 PUSH1 0x0 KECCAK256 ADD PUSH3 0x10000 PUSH3 0xFF0000 NOT DUP3 SLOAD AND OR SWAP1 SSTORE PUSH1 0x40 MLOAD SWAP4 PUSH2 0x21E8 DUP2 PUSH2 0x30DC JUMP JUMPDEST PUSH1 0x40 MLOAD PUSH3 0x461BCD PUSH1 0xE5 SHL DUP2 MSTORE PUSH1 0x4 DUP2 ADD DUP5 SWAP1 MSTORE PUSH1 0x25 PUSH1 0x24 DUP3 ADD MSTORE PUSH32 0x446F6E6F72206D75737420626520686F73706974616C20766572696669656420 PUSH1 0x44 DUP3 ADD MSTORE PUSH5 0x199A5C9CDD PUSH1 0xDA SHL PUSH1 0x64 DUP3 ADD MSTORE PUSH1 0x84 SWAP1 REVERT JUMPDEST PUSH2 0x2A5E DUP4 PUSH2 0x30DC JUMP JUMPDEST PUSH1 0x2 DUP4 EQ PUSH2 0x2A8F JUMPI JUMPDEST SWAP1 PUSH32 0x3E60282061AA9F0AC8F17CB522AB49946225E94F8597D84E6504593EE06A81E0 SWAP2 PUSH2 0x21DB JUMP JUMPDEST PUSH1 0x1 PUSH1 0x1 PUSH1 0xA0 SHL SUB DUP2 AND PUSH1 0x0 DUP2 DUP2 MSTORE PUSH1 0x1 DUP5 MSTORE PUSH1 0x40 SWAP1 KECCAK256 SLOAD PUSH2 0x2ABA SWAP1 PUSH1 0x2 SWAP1 PUSH1 0xFF AND PUSH2 0x2239 DUP2 PUSH2 0x30DC JUMP JUMPDEST DUP1 PUSH1 0x0 MSTORE PUSH1 0x3 DUP4 MSTORE PUSH1 0xFF PUSH1 0x7 PUSH1 0x40 PUSH1 0x0 KECCAK256 ADD SLOAD AND ISZERO PUSH2 0x2AF5 JUMPI PUSH1 0x0 SWAP1 DUP2 MSTORE PUSH1 0x3 DUP4 MSTORE PUSH1 0x40 SWAP1 KECCAK256 PUSH1 0x7 ADD DUP1 SLOAD PUSH2 0xFF00 NOT AND PUSH2 0x100 OR SWAP1 SSTORE PUSH2 0x2A67 JUMP JUMPDEST PUSH1 0x40 MLOAD PUSH3 0x461BCD PUSH1 0xE5 SHL DUP2 MSTORE PUSH1 0x4 DUP2 ADD DUP5 SWAP1 MSTORE PUSH1 0x27 PUSH1 0x24 DUP3 ADD MSTORE PUSH32 0x50617469656E74206D75737420626520686F73706974616C2076657269666965 PUSH1 0x44 DUP3 ADD MSTORE PUSH7 0x1908199A5C9CDD PUSH1 0xCA SHL PUSH1 0x64 DUP3 ADD MSTORE PUSH1 0x84 SWAP1 REVERT JUMPDEST POP PUSH2 0x2B54 DUP5 PUSH2 0x30DC JUMP JUMPDEST PUSH1 0x2 DUP5 EQ PUSH2 0x2958 JUMP JUMPDEST CALLVALUE PUSH2 0x1C9 JUMPI PUSH1 0x20 DUP1 PUSH1 0x3 NOT CALLDATASIZE ADD SLT PUSH2 0x1C9 JUMPI PUSH2 0x2B77 PUSH2 0x2D8D JUMP JUMPDEST CALLER PUSH1 0x0 MSTORE PUSH1 0x1 DUP3 MSTORE PUSH2 0x2B96 PUSH1 0x3 PUSH1 0xFF PUSH1 0x40 PUSH1 0x0 KECCAK256 SLOAD AND PUSH2 0x12A0 DUP2 PUSH2 0x30DC JUMP JUMPDEST PUSH1 0x1 DUP1 PUSH1 0xA0 SHL SUB AND SWAP1 DUP2 PUSH1 0x0 MSTORE PUSH1 0x1 DUP2 MSTORE PUSH1 0x1 PUSH1 0xFF PUSH1 0x40 PUSH1 0x0 KECCAK256 SLOAD AND PUSH2 0x2BBB DUP2 PUSH2 0x30DC JUMP JUMPDEST SUB PUSH2 0x2C09 JUMPI PUSH1 0x2 SWAP1 DUP3 PUSH1 0x0 MSTORE MSTORE PUSH1 0x6 PUSH1 0x40 PUSH1 0x0 KECCAK256 ADD PUSH4 0x1000000 PUSH4 0xFF000000 NOT DUP3 SLOAD AND OR SWAP1 SSTORE JUMPDEST PUSH32 0x904D1985D199946AAD94A6990736C4602ADCC5B717B04D0436ED05446B07169D PUSH1 0x0 DUP1 LOG2 STOP JUMPDEST DUP2 PUSH1 0x0 MSTORE PUSH1 0x1 DUP2 MSTORE PUSH1 0x2 PUSH1 0xFF PUSH1 0x40 PUSH1 0x0 KECCAK256 SLOAD AND PUSH2 0x2C25 DUP2 PUSH2 0x30DC JUMP JUMPDEST EQ PUSH2 0x2C31 JUMPI JUMPDEST POP PUSH2 0x2BE2 JUMP JUMPDEST PUSH1 0x3 SWAP1 DUP3 PUSH1 0x0 MSTORE MSTORE PUSH1 0x7 PUSH1 0x40 PUSH1 0x0 KECCAK256 ADD PUSH3 0x10000 PUSH3 0xFF0000 NOT DUP3 SLOAD AND OR SWAP1 SSTORE DUP2 PUSH2 0x2C2B JUMP JUMPDEST CALLVALUE PUSH2 0x1C9 JUMPI PUSH1 0x20 CALLDATASIZE PUSH1 0x3 NOT ADD SLT PUSH2 0x1C9 JUMPI PUSH2 0x2C6F PUSH2 0x2D8D JUMP JUMPDEST CALLER PUSH1 0x0 MSTORE PUSH1 0x1 PUSH1 0x20 MSTORE PUSH2 0x2C8F PUSH1 0x3 PUSH1 0xFF PUSH1 0x40 PUSH1 0x0 KECCAK256 SLOAD AND PUSH2 0x12A0 DUP2 PUSH2 0x30DC JUMP JUMPDEST PUSH1 0x1 PUSH1 0x1 PUSH1 0xA0 SHL SUB AND PUSH1 0x0 DUP2 DUP2 MSTORE PUSH1 0x1 PUSH1 0x20 MSTORE PUSH1 0x40 SWAP1 KECCAK256 SLOAD PUSH2 0x2CBA SWAP1 PUSH1 0x4 SWAP1 PUSH1 0xFF AND PUSH2 0x154A DUP2 PUSH2 0x30DC JUMP JUMPDEST PUSH1 0x0 SWAP1 DUP2 MSTORE PUSH1 0x4 PUSH1 0x20 MSTORE PUSH1 0x40 SWAP1 KECCAK256 PUSH1 0x3 ADD DUP1 SLOAD PUSH1 0xFF NOT AND PUSH1 0x1 OR SWAP1 SSTORE STOP JUMPDEST CALLVALUE PUSH2 0x1C9 JUMPI PUSH1 0x20 CALLDATASIZE PUSH1 0x3 NOT ADD SLT PUSH2 0x1C9 JUMPI PUSH1 0x1 PUSH1 0x1 PUSH1 0xA0 SHL SUB DUP1 PUSH2 0x2CFA PUSH2 0x2D8D JUMP JUMPDEST AND PUSH1 0x0 MSTORE PUSH1 0x3 PUSH1 0x20 MSTORE PUSH1 0x40 PUSH1 0x0 KECCAK256 SWAP1 DUP2 SLOAD AND PUSH2 0x327 PUSH2 0x2D1B PUSH1 0x1 DUP5 ADD PUSH2 0x2E36 JUMP JUMPDEST SWAP2 PUSH1 0x2 DUP5 ADD SLOAD PUSH2 0x2D2D PUSH1 0x3 DUP7 ADD PUSH2 0x2E36 JUMP JUMPDEST SWAP4 PUSH2 0x2D3A PUSH1 0x4 DUP8 ADD PUSH2 0x2E36 JUMP JUMPDEST SWAP6 PUSH2 0x2D47 PUSH1 0x5 DUP3 ADD PUSH2 0x2E36 JUMP JUMPDEST SWAP4 PUSH2 0x2D54 PUSH1 0x6 DUP4 ADD PUSH2 0x2E36 JUMP JUMPDEST PUSH2 0x2D65 PUSH1 0x8 PUSH1 0x7 DUP6 ADD SLOAD SWAP5 ADD PUSH2 0x2E36 JUMP JUMPDEST SWAP6 PUSH1 0x40 MLOAD SWAP10 DUP11 SWAP10 PUSH1 0xFF DUP7 PUSH1 0x18 SHR AND SWAP8 PUSH1 0xFF DUP8 PUSH1 0x10 SHR AND SWAP8 PUSH1 0xFF DUP1 DUP10 PUSH1 0x8 SHR AND SWAP9 AND SWAP7 DUP14 PUSH2 0x2F1C JUMP JUMPDEST PUSH1 0x4 CALLDATALOAD SWAP1 PUSH1 0x1 PUSH1 0x1 PUSH1 0xA0 SHL SUB DUP3 AND DUP3 SUB PUSH2 0x1C9 JUMPI JUMP JUMPDEST SWAP1 PUSH1 0x1 DUP3 DUP2 SHR SWAP3 AND DUP1 ISZERO PUSH2 0x2DD3 JUMPI JUMPDEST PUSH1 0x20 DUP4 LT EQ PUSH2 0x2DBD JUMPI JUMP JUMPDEST PUSH4 0x4E487B71 PUSH1 0xE0 SHL PUSH1 0x0 MSTORE PUSH1 0x22 PUSH1 0x4 MSTORE PUSH1 0x24 PUSH1 0x0 REVERT JUMPDEST SWAP2 PUSH1 0x7F AND SWAP2 PUSH2 0x2DB2 JUMP JUMPDEST PUSH2 0x1A0 DUP2 ADD SWAP1 DUP2 LT PUSH1 0x1 PUSH1 0x1 PUSH1 0x40 SHL SUB DUP3 GT OR PUSH2 0xD72 JUMPI PUSH1 0x40 MSTORE JUMP JUMPDEST PUSH2 0x180 DUP2 ADD SWAP1 DUP2 LT PUSH1 0x1 PUSH1 0x1 PUSH1 0x40 SHL SUB DUP3 GT OR PUSH2 0xD72 JUMPI PUSH1 0x40 MSTORE JUMP JUMPDEST SWAP1 PUSH1 0x1F DUP1 NOT SWAP2 ADD AND DUP2 ADD SWAP1 DUP2 LT PUSH1 0x1 PUSH1 0x1 PUSH1 0x40 SHL SUB DUP3 GT OR PUSH2 0xD72 JUMPI PUSH1 0x40 MSTORE JUMP JUMPDEST SWAP1 PUSH1 0x40 MLOAD SWAP2 DUP3 PUSH1 0x0 DUP3 SLOAD SWAP3 PUSH2 0x2E4A DUP5 PUSH2 0x2DA3 JUMP JUMPDEST SWAP1 DUP2 DUP5 MSTORE PUSH1 0x1 SWAP5 DUP6 DUP2 AND SWAP1 DUP2 PUSH1 0x0 EQ PUSH2 0x2EB9 JUMPI POP PUSH1 0x1 EQ PUSH2 0x2E76 JUMPI JUMPDEST POP POP PUSH2 0x2E74 SWAP3 POP SUB DUP4 PUSH2 0x2E15 JUMP JUMPDEST JUMP JUMPDEST SWAP1 SWAP4 SWAP2 POP PUSH1 0x0 MSTORE PUSH1 0x20 SWAP1 DUP2 PUSH1 0x0 KECCAK256 SWAP4 PUSH1 0x0 SWAP2 JUMPDEST DUP2 DUP4 LT PUSH2 0x2EA1 JUMPI POP POP PUSH2 0x2E74 SWAP4 POP DUP3 ADD ADD CODESIZE DUP1 PUSH2 0x2E66 JUMP JUMPDEST DUP6 SLOAD DUP9 DUP5 ADD DUP6 ADD MSTORE SWAP5 DUP6 ADD SWAP5 DUP8 SWAP5 POP SWAP2 DUP4 ADD SWAP2 PUSH2 0x2E89 JUMP JUMPDEST SWAP2 POP POP PUSH2 0x2E74 SWAP5 POP PUSH1 0x20 SWAP3 POP PUSH1 0xFF NOT AND DUP3 DUP5 ADD MSTORE ISZERO ISZERO PUSH1 0x5 SHL DUP3 ADD ADD CODESIZE DUP1 PUSH2 0x2E66 JUMP JUMPDEST SWAP2 SWAP1 DUP3 MLOAD SWAP3 DUP4 DUP3 MSTORE PUSH1 0x0 JUMPDEST DUP5 DUP2 LT PUSH2 0x2F08 JUMPI POP POP DUP3 PUSH1 0x0 PUSH1 0x20 DUP1 SWAP5 SWAP6 DUP5 ADD ADD MSTORE PUSH1 0x1F DUP1 NOT SWAP2 ADD AND ADD ADD SWAP1 JUMP JUMPDEST PUSH1 0x20 DUP2 DUP4 ADD DUP2 ADD MLOAD DUP5 DUP4 ADD DUP3 ADD MSTORE ADD PUSH2 0x2EE7 JUMP JUMPDEST SWAP9 SWAP6 SWAP2 SWAP5 PUSH2 0x2F6A DUP11 PUSH2 0x2FC2 SWAP15 SWAP13 SWAP10 SWAP7 PUSH2 0x2F86 SWAP7 SWAP12 SWAP15 SWAP12 PUSH1 0x40 PUSH2 0x2F5A PUSH2 0x2F94 SWAP12 PUSH2 0x2F78 SWAP9 PUSH1 0x1 DUP1 PUSH1 0xA0 SHL SUB AND DUP7 MSTORE PUSH2 0x180 DUP1 PUSH1 0x20 DUP9 ADD MSTORE DUP7 ADD SWAP1 PUSH2 0x2EDC JUMP JUMPDEST SWAP4 ADD MSTORE DUP13 DUP3 SUB PUSH1 0x60 DUP15 ADD MSTORE PUSH2 0x2EDC JUMP JUMPDEST SWAP1 DUP11 DUP3 SUB PUSH1 0x80 DUP13 ADD MSTORE PUSH2 0x2EDC JUMP JUMPDEST SWAP1 DUP9 DUP3 SUB PUSH1 0xA0 DUP11 ADD MSTORE PUSH2 0x2EDC JUMP JUMPDEST SWAP1 DUP7 DUP3 SUB PUSH1 0xC0 DUP9 ADD MSTORE PUSH2 0x2EDC JUMP JUMPDEST SWAP6 ISZERO ISZERO PUSH1 0xE0 DUP6 ADD MSTORE ISZERO ISZERO PUSH2 0x100 DUP5 ADD MSTORE ISZERO ISZERO PUSH2 0x120 DUP4 ADD MSTORE ISZERO ISZERO PUSH2 0x140 DUP3 ADD MSTORE PUSH2 0x160 DUP2 DUP5 SUB SWAP2 ADD MSTORE PUSH2 0x2EDC JUMP JUMPDEST SWAP1 JUMP JUMPDEST PUSH1 0x40 SWAP1 PUSH1 0x3 NOT ADD SLT PUSH2 0x1C9 JUMPI PUSH1 0x4 CALLDATALOAD PUSH1 0x1 PUSH1 0x1 PUSH1 0xA0 SHL SUB DUP2 AND DUP2 SUB PUSH2 0x1C9 JUMPI SWAP1 PUSH1 0x24 CALLDATALOAD PUSH1 0x5 DUP2 LT ISZERO PUSH2 0x1C9 JUMPI SWAP1 JUMP JUMPDEST DUP2 PUSH1 0x1F DUP3 ADD SLT ISZERO PUSH2 0x1C9 JUMPI DUP1 CALLDATALOAD SWAP1 PUSH1 0x1 PUSH1 0x1 PUSH1 0x40 SHL SUB DUP3 GT PUSH2 0xD72 JUMPI PUSH1 0x40 MLOAD SWAP3 PUSH2 0x3028 PUSH1 0x1F DUP5 ADD PUSH1 0x1F NOT AND PUSH1 0x20 ADD DUP6 PUSH2 0x2E15 JUMP JUMPDEST DUP3 DUP5 MSTORE PUSH1 0x20 DUP4 DUP4 ADD ADD GT PUSH2 0x1C9 JUMPI DUP2 PUSH1 0x0 SWAP3 PUSH1 0x20 DUP1 SWAP4 ADD DUP4 DUP7 ADD CALLDATACOPY DUP4 ADD ADD MSTORE SWAP1 JUMP JUMPDEST PUSH1 0x20 SWAP1 DUP2 PUSH1 0x40 DUP2 DUP4 ADD SWAP3 DUP3 DUP2 MSTORE DUP6 MLOAD DUP1 SWAP5 MSTORE ADD SWAP4 ADD SWAP2 PUSH1 0x0 JUMPDEST DUP3 DUP2 LT PUSH2 0x3071 JUMPI POP POP POP POP SWAP1 JUMP JUMPDEST DUP4 MLOAD PUSH1 0x1 PUSH1 0x1 PUSH1 0xA0 SHL SUB AND DUP6 MSTORE SWAP4 DUP2 ADD SWAP4 SWAP3 DUP2 ADD SWAP3 PUSH1 0x1 ADD PUSH2 0x3063 JUMP JUMPDEST PUSH1 0x5 SLOAD DUP2 LT ISZERO PUSH2 0xD5C JUMPI PUSH1 0x5 PUSH1 0x0 MSTORE PUSH32 0x36B6384B5ECA791C62761152D0C79BB0604C104A5FB6F4EB0703F3154BB3DB0 ADD SWAP1 PUSH1 0x0 SWAP1 JUMP JUMPDEST PUSH1 0x1 PUSH1 0x1 PUSH1 0x40 SHL SUB DUP2 GT PUSH2 0xD72 JUMPI PUSH1 0x5 SHL PUSH1 0x20 ADD SWAP1 JUMP JUMPDEST PUSH1 0x5 GT ISZERO PUSH2 0x30E6 JUMPI JUMP JUMPDEST PUSH4 0x4E487B71 PUSH1 0xE0 SHL PUSH1 0x0 MSTORE PUSH1 0x21 PUSH1 0x4 MSTORE PUSH1 0x24 PUSH1 0x0 REVERT JUMPDEST SWAP1 DUP2 MLOAD DUP1 DUP3 MSTORE PUSH1 0x20 DUP1 DUP1 SWAP4 ADD SWAP4 ADD SWAP2 PUSH1 0x0 JUMPDEST DUP3 DUP2 LT PUSH2 0x311C JUMPI POP POP POP POP SWAP1 JUMP JUMPDEST SWAP1 SWAP2 SWAP3 SWAP4 DUP3 DUP1 PUSH1 0x1 SWAP3 DUP8 MLOAD PUSH2 0x3130 DUP2 PUSH2 0x30DC JUMP JUMPDEST DUP2 MSTORE ADD SWAP6 ADD SWAP4 SWAP3 SWAP2 ADD PUSH2 0x310E JUMP JUMPDEST ISZERO PUSH2 0x3145 JUMPI JUMP JUMPDEST PUSH1 0x40 MLOAD PUSH3 0x461BCD PUSH1 0xE5 SHL DUP2 MSTORE PUSH1 0x20 PUSH1 0x4 DUP3 ADD MSTORE PUSH1 0x10 PUSH1 0x24 DUP3 ADD MSTORE PUSH16 0x13985B59481A5CC81C995C5D5A5C9959 PUSH1 0x82 SHL PUSH1 0x44 DUP3 ADD MSTORE PUSH1 0x64 SWAP1 REVERT JUMPDEST ISZERO PUSH2 0x3184 JUMPI JUMP JUMPDEST PUSH1 0x40 MLOAD PUSH3 0x461BCD PUSH1 0xE5 SHL DUP2 MSTORE PUSH1 0x20 PUSH1 0x4 DUP3 ADD MSTORE PUSH1 0x14 PUSH1 0x24 DUP3 ADD MSTORE PUSH20 0x131BD8D85D1A5BDB881A5CC81C995C5D5A5C9959 PUSH1 0x62 SHL PUSH1 0x44 DUP3 ADD MSTORE PUSH1 0x64 SWAP1 REVERT JUMPDEST DUP2 DUP2 LT PUSH2 0x31CB JUMPI POP POP JUMP JUMPDEST PUSH1 0x0 DUP2 SSTORE PUSH1 0x1 ADD PUSH2 0x31C0 JUMP JUMPDEST ISZERO PUSH2 0x31DE JUMPI JUMP JUMPDEST PUSH1 0x40 MLOAD PUSH3 0x461BCD PUSH1 0xE5 SHL DUP2 MSTORE PUSH1 0x20 PUSH1 0x4 DUP3 ADD MSTORE PUSH1 0xA PUSH1 0x24 DUP3 ADD MSTORE PUSH10 0x27B7363C9030B236B4B7 PUSH1 0xB1 SHL PUSH1 0x44 DUP3 ADD MSTORE PUSH1 0x64 SWAP1 REVERT JUMPDEST ISZERO PUSH2 0x3217 JUMPI JUMP JUMPDEST PUSH1 0x40 MLOAD PUSH3 0x461BCD PUSH1 0xE5 SHL DUP2 MSTORE PUSH1 0x20 PUSH1 0x4 DUP3 ADD MSTORE PUSH1 0xE PUSH1 0x24 DUP3 ADD MSTORE PUSH14 0x139BDD0818481A1BDCDC1A5D185B PUSH1 0x92 SHL PUSH1 0x44 DUP3 ADD MSTORE PUSH1 0x64 SWAP1 REVERT JUMPDEST ISZERO PUSH2 0x3254 JUMPI JUMP JUMPDEST PUSH1 0x40 MLOAD PUSH3 0x461BCD PUSH1 0xE5 SHL DUP2 MSTORE PUSH1 0x20 PUSH1 0x4 DUP3 ADD MSTORE PUSH1 0x16 PUSH1 0x24 DUP3 ADD MSTORE PUSH22 0x109B1BDBD9081D1E5C19481A5CC81C995C5D5A5C9959 PUSH1 0x52 SHL PUSH1 0x44 DUP3 ADD MSTORE PUSH1 0x64 SWAP1 REVERT JUMPDEST ISZERO PUSH2 0x3299 JUMPI JUMP JUMPDEST PUSH1 0x40 MLOAD PUSH3 0x461BCD PUSH1 0xE5 SHL DUP2 MSTORE PUSH1 0x20 PUSH1 0x4 DUP3 ADD MSTORE PUSH1 0x26 PUSH1 0x24 DUP3 ADD MSTORE PUSH32 0x43616E206F6E6C792076657269667920446F6E6F72206F722050617469656E74 PUSH1 0x44 DUP3 ADD MSTORE PUSH6 0x20726F6C6573 PUSH1 0xD0 SHL PUSH1 0x64 DUP3 ADD MSTORE PUSH1 0x84 SWAP1 REVERT JUMPDEST ISZERO PUSH2 0x32F4 JUMPI JUMP JUMPDEST PUSH1 0x40 MLOAD PUSH3 0x461BCD PUSH1 0xE5 SHL DUP2 MSTORE PUSH1 0x20 PUSH1 0x4 DUP3 ADD MSTORE PUSH1 0x2D PUSH1 0x24 DUP3 ADD MSTORE PUSH32 0x55736572206973206E6F74207265676973746572656420617320612050617469 PUSH1 0x44 DUP3 ADD MSTORE PUSH13 0x656E7420746F20766572696679 PUSH1 0x98 SHL PUSH1 0x64 DUP3 ADD MSTORE PUSH1 0x84 SWAP1 REVERT JUMPDEST ISZERO PUSH2 0x3356 JUMPI JUMP JUMPDEST PUSH1 0x40 MLOAD PUSH3 0x461BCD PUSH1 0xE5 SHL DUP2 MSTORE PUSH1 0x20 PUSH1 0x4 DUP3 ADD MSTORE PUSH1 0x2B PUSH1 0x24 DUP3 ADD MSTORE PUSH32 0x55736572206973206E6F742072656769737465726564206173206120446F6E6F PUSH1 0x44 DUP3 ADD MSTORE PUSH11 0x7220746F20766572696679 PUSH1 0xA8 SHL PUSH1 0x64 DUP3 ADD MSTORE PUSH1 0x84 SWAP1 REVERT JUMPDEST PUSH1 0x0 NOT DUP2 EQ PUSH2 0x33BE JUMPI PUSH1 0x1 ADD SWAP1 JUMP JUMPDEST PUSH4 0x4E487B71 PUSH1 0xE0 SHL PUSH1 0x0 MSTORE PUSH1 0x11 PUSH1 0x4 MSTORE PUSH1 0x24 PUSH1 0x0 REVERT JUMPDEST DUP1 MLOAD DUP3 LT ISZERO PUSH2 0xD5C JUMPI PUSH1 0x20 SWAP2 PUSH1 0x5 SHL ADD ADD SWAP1 JUMP JUMPDEST SWAP1 PUSH1 0x40 MLOAD PUSH2 0x33F5 DUP2 PUSH2 0x2DDD JUMP JUMPDEST DUP3 SLOAD PUSH1 0x1 PUSH1 0x1 PUSH1 0xA0 SHL SUB AND DUP2 MSTORE SWAP2 DUP3 SWAP1 PUSH1 0x1 PUSH2 0x3412 DUP2 DUP4 ADD PUSH2 0x2E36 JUMP JUMPDEST SWAP1 PUSH1 0x20 SWAP2 DUP3 DUP6 ADD MSTORE PUSH1 0x2 DUP4 ADD SLOAD PUSH1 0x40 DUP6 ADD MSTORE PUSH2 0x3430 PUSH1 0x3 DUP5 ADD PUSH2 0x2E36 JUMP JUMPDEST PUSH1 0x60 DUP6 ADD MSTORE PUSH1 0x4 DUP4 ADD PUSH1 0x40 MLOAD SWAP2 DUP3 DUP5 DUP4 SLOAD SWAP2 DUP3 DUP2 MSTORE ADD SWAP3 PUSH1 0x0 MSTORE DUP5 PUSH1 0x0 KECCAK256 PUSH1 0x0 SWAP1 JUMPDEST DUP3 PUSH1 0x1F DUP4 ADD LT PUSH2 0x39C8 JUMPI SWAP5 DUP7 PUSH2 0x180 SWAP9 SWAP6 PUSH2 0x35EF SWAP9 SWAP6 DUP4 SWAP6 PUSH2 0x357E SWAP6 PUSH1 0x7 SWAP11 SLOAD SWAP3 DUP6 DUP4 DUP4 LT PUSH2 0x39AC JUMPI JUMPDEST DUP4 DUP4 LT PUSH2 0x398D JUMPI JUMPDEST DUP4 DUP4 LT PUSH2 0x396E JUMPI JUMPDEST DUP4 DUP4 LT PUSH2 0x394F JUMPI JUMPDEST DUP4 DUP4 LT PUSH2 0x3931 JUMPI JUMPDEST DUP4 DUP4 LT PUSH2 0x3912 JUMPI JUMPDEST DUP4 DUP4 LT PUSH2 0x38F3 JUMPI JUMPDEST DUP4 DUP4 LT PUSH2 0x38D4 JUMPI JUMPDEST DUP4 DUP4 LT PUSH2 0x38B5 JUMPI JUMPDEST DUP4 DUP4 LT PUSH2 0x3896 JUMPI JUMPDEST DUP4 DUP4 LT PUSH2 0x3877 JUMPI JUMPDEST DUP4 DUP4 LT PUSH2 0x3858 JUMPI JUMPDEST DUP4 DUP4 LT PUSH2 0x3839 JUMPI JUMPDEST DUP4 DUP4 LT PUSH2 0x381A JUMPI JUMPDEST DUP4 DUP4 LT PUSH2 0x37FB JUMPI JUMPDEST DUP4 DUP4 LT PUSH2 0x37DC JUMPI JUMPDEST DUP4 DUP4 LT PUSH2 0x37BD JUMPI JUMPDEST DUP4 DUP4 LT PUSH2 0x379E JUMPI JUMPDEST DUP4 DUP4 LT PUSH2 0x377F JUMPI JUMPDEST DUP4 DUP4 LT PUSH2 0x3760 JUMPI JUMPDEST DUP4 DUP4 LT PUSH2 0x3741 JUMPI JUMPDEST DUP4 DUP4 LT PUSH2 0x3722 JUMPI JUMPDEST DUP4 DUP4 LT PUSH2 0x3703 JUMPI JUMPDEST DUP4 DUP4 LT PUSH2 0x36E4 JUMPI JUMPDEST DUP4 DUP4 LT PUSH2 0x36C5 JUMPI JUMPDEST DUP4 DUP4 LT PUSH2 0x36A6 JUMPI JUMPDEST DUP4 DUP4 LT PUSH2 0x3687 JUMPI JUMPDEST DUP4 DUP4 LT PUSH2 0x3668 JUMPI JUMPDEST DUP4 DUP4 LT PUSH2 0x3649 JUMPI JUMPDEST DUP4 DUP4 LT PUSH2 0x362A JUMPI JUMPDEST DUP4 DUP4 LT PUSH2 0x360B JUMPI JUMPDEST POP POP LT PUSH2 0x35F4 JUMPI JUMPDEST POP SWAP1 POP SUB DUP3 PUSH2 0x2E15 JUMP JUMPDEST PUSH1 0x80 DUP8 ADD MSTORE PUSH2 0x358F PUSH1 0x5 DUP4 ADD PUSH2 0x2E36 JUMP JUMPDEST PUSH1 0xA0 DUP8 ADD MSTORE PUSH1 0x6 DUP3 ADD SLOAD DUP1 SWAP2 PUSH1 0xFF SWAP3 DUP4 SWAP2 DUP3 DUP3 AND ISZERO ISZERO PUSH1 0xC0 DUP12 ADD MSTORE DUP3 DUP3 PUSH1 0x8 SHR AND ISZERO ISZERO PUSH1 0xE0 DUP12 ADD MSTORE DUP3 DUP3 PUSH1 0x10 SHR AND ISZERO ISZERO PUSH2 0x100 DUP12 ADD MSTORE DUP3 DUP3 PUSH1 0x18 SHR AND ISZERO ISZERO PUSH2 0x120 DUP12 ADD MSTORE SHR AND ISZERO ISZERO PUSH2 0x140 DUP9 ADD MSTORE PUSH1 0x28 SHR AND ISZERO ISZERO PUSH2 0x160 DUP7 ADD MSTORE ADD PUSH2 0x2E36 JUMP JUMPDEST SWAP2 ADD MSTORE JUMP JUMPDEST PUSH1 0xF8 SHR PUSH2 0x3600 DUP2 PUSH2 0x30DC JUMP JUMPDEST DUP2 MSTORE ADD DUP5 SWAP1 CODESIZE PUSH2 0x3574 JUMP JUMPDEST SWAP1 SWAP2 SWAP5 PUSH1 0xFF DUP6 PUSH1 0xF0 SHR AND PUSH2 0x361E DUP2 PUSH2 0x30DC JUMP JUMPDEST DUP2 MSTORE ADD SWAP4 ADD CODESIZE DUP6 PUSH2 0x356C JUMP JUMPDEST DUP2 SWAP3 SWAP6 PUSH1 0xFF DUP7 PUSH1 0xE8 SHR AND PUSH2 0x363D DUP2 PUSH2 0x30DC JUMP JUMPDEST DUP2 MSTORE ADD SWAP5 ADD SWAP1 DUP6 PUSH2 0x3564 JUMP JUMPDEST DUP2 SWAP3 SWAP6 PUSH1 0xFF DUP7 PUSH1 0xE0 SHR AND PUSH2 0x365C DUP2 PUSH2 0x30DC JUMP JUMPDEST DUP2 MSTORE ADD SWAP5 ADD SWAP1 DUP6 PUSH2 0x355C JUMP JUMPDEST DUP2 SWAP3 SWAP6 PUSH1 0xFF DUP7 PUSH1 0xD8 SHR AND PUSH2 0x367B DUP2 PUSH2 0x30DC JUMP JUMPDEST DUP2 MSTORE ADD SWAP5 ADD SWAP1 DUP6 PUSH2 0x3554 JUMP JUMPDEST DUP2 SWAP3 SWAP6 PUSH1 0xFF DUP7 PUSH1 0xD0 SHR AND PUSH2 0x369A DUP2 PUSH2 0x30DC JUMP JUMPDEST DUP2 MSTORE ADD SWAP5 ADD SWAP1 DUP6 PUSH2 0x354C JUMP JUMPDEST DUP2 SWAP3 SWAP6 PUSH1 0xFF DUP7 PUSH1 0xC8 SHR AND PUSH2 0x36B9 DUP2 PUSH2 0x30DC JUMP JUMPDEST DUP2 MSTORE ADD SWAP5 ADD SWAP1 DUP6 PUSH2 0x3544 JUMP JUMPDEST DUP2 SWAP3 SWAP6 PUSH1 0xFF DUP7 PUSH1 0xC0 SHR AND PUSH2 0x36D8 DUP2 PUSH2 0x30DC JUMP JUMPDEST DUP2 MSTORE ADD SWAP5 ADD SWAP1 DUP6 PUSH2 0x353C JUMP JUMPDEST DUP2 SWAP3 SWAP6 PUSH1 0xFF DUP7 PUSH1 0xB8 SHR AND PUSH2 0x36F7 DUP2 PUSH2 0x30DC JUMP JUMPDEST DUP2 MSTORE ADD SWAP5 ADD SWAP1 DUP6 PUSH2 0x3534 JUMP JUMPDEST DUP2 SWAP3 SWAP6 PUSH1 0xFF DUP7 PUSH1 0xB0 SHR AND PUSH2 0x3716 DUP2 PUSH2 0x30DC JUMP JUMPDEST DUP2 MSTORE ADD SWAP5 ADD SWAP1 DUP6 PUSH2 0x352C JUMP JUMPDEST DUP2 SWAP3 SWAP6 PUSH1 0xFF DUP7 PUSH1 0xA8 SHR AND PUSH2 0x3735 DUP2 PUSH2 0x30DC JUMP JUMPDEST DUP2 MSTORE ADD SWAP5 ADD SWAP1 DUP6 PUSH2 0x3524 JUMP JUMPDEST DUP2 SWAP3 SWAP6 PUSH1 0xFF DUP7 PUSH1 0xA0 SHR AND PUSH2 0x3754 DUP2 PUSH2 0x30DC JUMP JUMPDEST DUP2 MSTORE ADD SWAP5 ADD SWAP1 DUP6 PUSH2 0x351C JUMP JUMPDEST DUP2 SWAP3 SWAP6 PUSH1 0xFF DUP7 PUSH1 0x98 SHR AND PUSH2 0x3773 DUP2 PUSH2 0x30DC JUMP JUMPDEST DUP2 MSTORE ADD SWAP5 ADD SWAP1 DUP6 PUSH2 0x3514 JUMP JUMPDEST DUP2 SWAP3 SWAP6 PUSH1 0xFF DUP7 PUSH1 0x90 SHR AND PUSH2 0x3792 DUP2 PUSH2 0x30DC JUMP JUMPDEST DUP2 MSTORE ADD SWAP5 ADD SWAP1 DUP6 PUSH2 0x350C JUMP JUMPDEST DUP2 SWAP3 SWAP6 PUSH1 0xFF DUP7 PUSH1 0x88 SHR AND PUSH2 0x37B1 DUP2 PUSH2 0x30DC JUMP JUMPDEST DUP2 MSTORE ADD SWAP5 ADD SWAP1 DUP6 PUSH2 0x3504 JUMP JUMPDEST DUP2 SWAP3 SWAP6 PUSH1 0xFF DUP7 PUSH1 0x80 SHR AND PUSH2 0x37D0 DUP2 PUSH2 0x30DC JUMP JUMPDEST DUP2 MSTORE ADD SWAP5 ADD SWAP1 DUP6 PUSH2 0x34FC JUMP JUMPDEST DUP2 SWAP3 SWAP6 PUSH1 0xFF DUP7 PUSH1 0x78 SHR AND PUSH2 0x37EF DUP2 PUSH2 0x30DC JUMP JUMPDEST DUP2 MSTORE ADD SWAP5 ADD SWAP1 DUP6 PUSH2 0x34F4 JUMP JUMPDEST DUP2 SWAP3 SWAP6 PUSH1 0xFF DUP7 PUSH1 0x70 SHR AND PUSH2 0x380E DUP2 PUSH2 0x30DC JUMP JUMPDEST DUP2 MSTORE ADD SWAP5 ADD SWAP1 DUP6 PUSH2 0x34EC JUMP JUMPDEST DUP2 SWAP3 SWAP6 PUSH1 0xFF DUP7 PUSH1 0x68 SHR AND PUSH2 0x382D DUP2 PUSH2 0x30DC JUMP JUMPDEST DUP2 MSTORE ADD SWAP5 ADD SWAP1 DUP6 PUSH2 0x34E4 JUMP JUMPDEST DUP2 SWAP3 SWAP6 PUSH1 0xFF DUP7 PUSH1 0x60 SHR AND PUSH2 0x384C DUP2 PUSH2 0x30DC JUMP JUMPDEST DUP2 MSTORE ADD SWAP5 ADD SWAP1 DUP6 PUSH2 0x34DC JUMP JUMPDEST DUP2 SWAP3 SWAP6 PUSH1 0xFF DUP7 PUSH1 0x58 SHR AND PUSH2 0x386B DUP2 PUSH2 0x30DC JUMP JUMPDEST DUP2 MSTORE ADD SWAP5 ADD SWAP1 DUP6 PUSH2 0x34D4 JUMP JUMPDEST DUP2 SWAP3 SWAP6 PUSH1 0xFF DUP7 PUSH1 0x50 SHR AND PUSH2 0x388A DUP2 PUSH2 0x30DC JUMP JUMPDEST DUP2 MSTORE ADD SWAP5 ADD SWAP1 DUP6 PUSH2 0x34CC JUMP JUMPDEST DUP2 SWAP3 SWAP6 PUSH1 0xFF DUP7 PUSH1 0x48 SHR AND PUSH2 0x38A9 DUP2 PUSH2 0x30DC JUMP JUMPDEST DUP2 MSTORE ADD SWAP5 ADD SWAP1 DUP6 PUSH2 0x34C4 JUMP JUMPDEST DUP2 SWAP3 SWAP6 PUSH1 0xFF DUP7 PUSH1 0x40 SHR AND PUSH2 0x38C8 DUP2 PUSH2 0x30DC JUMP JUMPDEST DUP2 MSTORE ADD SWAP5 ADD SWAP1 DUP6 PUSH2 0x34BC JUMP JUMPDEST DUP2 SWAP3 SWAP6 PUSH1 0xFF DUP7 PUSH1 0x38 SHR AND PUSH2 0x38E7 DUP2 PUSH2 0x30DC JUMP JUMPDEST DUP2 MSTORE ADD SWAP5 ADD SWAP1 DUP6 PUSH2 0x34B4 JUMP JUMPDEST DUP2 SWAP3 SWAP6 PUSH1 0xFF DUP7 PUSH1 0x30 SHR AND PUSH2 0x3906 DUP2 PUSH2 0x30DC JUMP JUMPDEST DUP2 MSTORE ADD SWAP5 ADD SWAP1 DUP6 PUSH2 0x34AC JUMP JUMPDEST DUP2 SWAP3 SWAP6 PUSH1 0xFF DUP7 PUSH1 0x28 SHR AND PUSH2 0x3925 DUP2 PUSH2 0x30DC JUMP JUMPDEST DUP2 MSTORE ADD SWAP5 ADD SWAP1 DUP6 PUSH2 0x34A4 JUMP JUMPDEST DUP2 SWAP3 SWAP6 PUSH1 0xFF DUP7 DUP4 SHR AND PUSH2 0x3943 DUP2 PUSH2 0x30DC JUMP JUMPDEST DUP2 MSTORE ADD SWAP5 ADD SWAP1 DUP6 PUSH2 0x349C JUMP JUMPDEST DUP2 SWAP3 SWAP6 PUSH1 0xFF DUP7 PUSH1 0x18 SHR AND PUSH2 0x3962 DUP2 PUSH2 0x30DC JUMP JUMPDEST DUP2 MSTORE ADD SWAP5 ADD SWAP1 DUP6 PUSH2 0x3494 JUMP JUMPDEST DUP2 SWAP3 SWAP6 PUSH1 0xFF DUP7 PUSH1 0x10 SHR AND PUSH2 0x3981 DUP2 PUSH2 0x30DC JUMP JUMPDEST DUP2 MSTORE ADD SWAP5 ADD SWAP1 DUP6 PUSH2 0x348C JUMP JUMPDEST DUP2 SWAP3 SWAP6 PUSH1 0xFF DUP7 PUSH1 0x8 SHR AND PUSH2 0x39A0 DUP2 PUSH2 0x30DC JUMP JUMPDEST DUP2 MSTORE ADD SWAP5 ADD SWAP1 DUP6 PUSH2 0x3484 JUMP JUMPDEST DUP2 SWAP3 SWAP6 PUSH1 0xFF DUP7 AND PUSH2 0x39BC DUP2 PUSH2 0x30DC JUMP JUMPDEST DUP2 MSTORE ADD SWAP5 ADD SWAP1 DUP6 PUSH2 0x347C JUMP JUMPDEST SWAP4 DUP4 PUSH2 0x400 DUP9 SWAP3 DUP8 SLOAD PUSH1 0xFF DUP2 AND PUSH2 0x39DE DUP2 PUSH2 0x30DC JUMP JUMPDEST DUP3 MSTORE PUSH1 0xFF DUP2 PUSH1 0x8 SHR AND PUSH2 0x39F0 DUP2 PUSH2 0x30DC JUMP JUMPDEST DUP6 DUP4 ADD MSTORE PUSH1 0xFF DUP2 PUSH1 0x10 SHR AND PUSH2 0x3A04 DUP2 PUSH2 0x30DC JUMP JUMPDEST PUSH1 0x40 DUP4 ADD MSTORE PUSH1 0xFF DUP2 PUSH1 0x18 SHR AND PUSH2 0x3A19 DUP2 PUSH2 0x30DC JUMP JUMPDEST PUSH1 0x60 DUP4 ADD MSTORE PUSH1 0xFF DUP2 DUP7 SHR AND PUSH2 0x3A2D DUP2 PUSH2 0x30DC JUMP JUMPDEST PUSH1 0x80 DUP4 ADD MSTORE PUSH1 0xFF DUP2 PUSH1 0x28 SHR AND PUSH2 0x3A42 DUP2 PUSH2 0x30DC JUMP JUMPDEST PUSH1 0xA0 DUP4 ADD MSTORE PUSH1 0xFF DUP2 PUSH1 0x30 SHR AND PUSH2 0x3A57 DUP2 PUSH2 0x30DC JUMP JUMPDEST PUSH1 0xC0 DUP4 ADD MSTORE PUSH2 0x3A6B PUSH1 0xFF DUP3 PUSH1 0x38 SHR AND PUSH2 0x30DC JUMP JUMPDEST PUSH1 0xFF DUP2 PUSH1 0x38 SHR AND PUSH1 0xE0 DUP4 ADD MSTORE PUSH1 0xFF DUP2 PUSH1 0x40 SHR AND PUSH2 0x3A87 DUP2 PUSH2 0x30DC JUMP JUMPDEST PUSH2 0x100 DUP4 ADD MSTORE PUSH1 0xFF DUP2 PUSH1 0x48 SHR AND PUSH2 0x3A9D DUP2 PUSH2 0x30DC JUMP JUMPDEST PUSH2 0x120 DUP4 ADD MSTORE PUSH1 0xFF DUP2 PUSH1 0x50 SHR AND PUSH2 0x3AB3 DUP2 PUSH2 0x30DC JUMP JUMPDEST PUSH2 0x140 DUP4 ADD MSTORE PUSH1 0xFF DUP2 PUSH1 0x58 SHR AND PUSH2 0x3AC9 DUP2 PUSH2 0x30DC JUMP JUMPDEST PUSH2 0x160 DUP4 ADD MSTORE PUSH1 0xFF DUP2 PUSH1 0x60 SHR AND PUSH2 0x3ADF DUP2 PUSH2 0x30DC JUMP JUMPDEST PUSH2 0x180 DUP4 ADD MSTORE PUSH1 0xFF DUP2 PUSH1 0x68 SHR AND PUSH2 0x3AF5 DUP2 PUSH2 0x30DC JUMP JUMPDEST PUSH2 0x1A0 DUP4 ADD MSTORE PUSH1 0xFF DUP2 PUSH1 0x70 SHR AND PUSH2 0x3B0B DUP2 PUSH2 0x30DC JUMP JUMPDEST PUSH2 0x1C0 DUP4 ADD MSTORE PUSH1 0xFF DUP2 PUSH1 0x78 SHR AND PUSH2 0x3B21 DUP2 PUSH2 0x30DC JUMP JUMPDEST PUSH2 0x1E0 DUP4 ADD MSTORE PUSH1 0xFF DUP2 PUSH1 0x80 SHR AND PUSH2 0x3B37 DUP2 PUSH2 0x30DC JUMP JUMPDEST PUSH2 0x200 DUP4 ADD MSTORE PUSH1 0xFF DUP2 PUSH1 0x88 SHR AND PUSH2 0x3B4D DUP2 PUSH2 0x30DC JUMP JUMPDEST PUSH2 0x220 DUP4 ADD MSTORE PUSH1 0xFF DUP2 PUSH1 0x90 SHR AND PUSH2 0x3B63 DUP2 PUSH2 0x30DC JUMP JUMPDEST PUSH2 0x240 DUP4 ADD MSTORE PUSH1 0xFF DUP2 PUSH1 0x98 SHR AND PUSH2 0x3B79 DUP2 PUSH2 0x30DC JUMP JUMPDEST PUSH2 0x260 DUP4 ADD MSTORE PUSH1 0xFF DUP2 PUSH1 0xA0 SHR AND PUSH2 0x3B8F DUP2 PUSH2 0x30DC JUMP JUMPDEST PUSH2 0x280 DUP4 ADD MSTORE PUSH1 0xFF DUP2 PUSH1 0xA8 SHR AND PUSH2 0x3BA5 DUP2 PUSH2 0x30DC JUMP JUMPDEST PUSH2 0x2A0 DUP4 ADD MSTORE PUSH1 0xFF DUP2 PUSH1 0xB0 SHR AND PUSH2 0x3BBB DUP2 PUSH2 0x30DC JUMP JUMPDEST PUSH2 0x2C0 DUP4 ADD MSTORE PUSH1 0xFF DUP2 PUSH1 0xB8 SHR AND PUSH2 0x3BD1 DUP2 PUSH2 0x30DC JUMP JUMPDEST PUSH2 0x2E0 DUP4 ADD MSTORE PUSH1 0xFF DUP2 PUSH1 0xC0 SHR AND PUSH2 0x3BE7 DUP2 PUSH2 0x30DC JUMP JUMPDEST PUSH2 0x300 DUP4 ADD MSTORE PUSH1 0xFF DUP2 PUSH1 0xC8 SHR AND PUSH2 0x3BFD DUP2 PUSH2 0x30DC JUMP JUMPDEST PUSH2 0x320 DUP4 ADD MSTORE PUSH1 0xFF DUP2 PUSH1 0xD0 SHR AND PUSH2 0x3C13 DUP2 PUSH2 0x30DC JUMP JUMPDEST PUSH2 0x340 DUP4 ADD MSTORE PUSH1 0xFF DUP2 PUSH1 0xD8 SHR AND PUSH2 0x3C29 DUP2 PUSH2 0x30DC JUMP JUMPDEST PUSH2 0x360 DUP4 ADD MSTORE PUSH1 0xFF DUP2 PUSH1 0xE0 SHR AND PUSH2 0x3C3F DUP2 PUSH2 0x30DC JUMP JUMPDEST PUSH2 0x380 DUP4 ADD MSTORE PUSH1 0xFF DUP2 PUSH1 0xE8 SHR AND PUSH2 0x3C55 DUP2 PUSH2 0x30DC JUMP JUMPDEST PUSH2 0x3A0 DUP4 ADD MSTORE PUSH1 0xFF DUP2 PUSH1 0xF0 SHR AND PUSH2 0x3C6B DUP2 PUSH2 0x30DC JUMP JUMPDEST PUSH2 0x3C0 DUP4 ADD MSTORE PUSH1 0xF8 SHR PUSH2 0x3C7D DUP2 PUSH2 0x30DC JUMP JUMPDEST PUSH2 0x3E0 DUP3 ADD MSTORE ADD SWAP6 ADD SWAP2 ADD SWAP1 PUSH2 0x3452 JUMP INVALID LOG2 PUSH5 0x6970667358 0x22 SLT KECCAK256 0x5E CALLDATALOAD 0xD1 SWAP8 0xF6 0xBA PUSH18 0x5C3DE54ADD44C33CF91C97C7677F1EF153F7 SHR 0xD1 0xE8 0xE2 PUSH5 0x79664736F PUSH13 0x63430008140033000000000000 "},"methodIdentifiers":{"adminVerifyUser(address,uint8)":"2f383cb7","deactivateHospital(address)":"af70f3e3","donorList(uint256)":"5eed3dcb","donors(address)":"ca0cdea8","flagUser(address)":"a33a2d80","getAvailableOrgans()":"c9047be7","getDonorDetails(address)":"afcb67d3","getDonorList()":"48cfc779","getPatientDetails(address)":"efe2ccc1","getPatientList()":"503b1354","hospitalList(uint256)":"c82412b9","hospitalVerifyUser(address,uint8)":"592d7e20","hospitals(address)":"f093cf80","markDonorDeceased(address)":"4c1da6a9","markOrganAsMatched(address,address)":"8371a454","owner()":"8da5cb5b","patientList(uint256)":"babb1d41","patients(address)":"0869cfbc","reactivateHospital(address)":"099efadb","registerDonor(string,uint256,string,uint8[],string,string)":"7bb848fc","registerHospital(string,string)":"2fdfdf79","registerPatient(string,string,string,string,string,string,uint256)":"c5f37813","revokeDonorCommitment(address)":"312b6d4d","roles(address)":"99374642","suspendUser(address)":"1e153acb","validateDonorCommitment(address)":"bbad68a6"}}}}}